:100000000C9450040C9494040C9494040C94940454
:100010000C9494040C9494040C9494040C94940400
:100020000C9494040C9494040C94E8070C948D089C
:100030000C94C8170C9494040C9494040C94940499
:100040000C9494040C9494040C9494040C949404D0
:100050000C9494040C9406180C9494040C9494043A
:100060000C9494040C9494040C9494040C949404B0
:100070000C9494040C9494040C9494040C949404A0
:100080000C9494040C9494040C9494040C94940490
:100090000C9494040C9494040C9494040C94940480
:1000A0000C9494040C9494040C9494041A0D1A0D5A
:1000B000480D480D9D0DB20FB20FB20FD90DB20F02
:1000C000D00ED00E8C0FB20FB20FA00F37006512FA
:1000D0000F26404100E2E647004600000034381396
:1000E00033272F2D2844450031432A4200000000C9
:1000F0000000E30000000000E500E1001D290014FD
:10010000041E2B351B64001A161F393A190A0515EF
:1001100009211722063D000807203C3B100B11184F
:100120000D241C23363F000C0E25302E000000004D
:10013000004E004B00525000004D004AE4000048C1
:10014000003E00E0002C51000000004C00004F0079
:100150000000004900000000E70000000A00253010
:100160003862003A200025303258000A722F63208E
:1001700030313233343536370A00626F756E63655D
:10018000213A20253032580A000A00253032580022
:10019000206D6F64733A2000200025303258006BC8
:1001A0006579733A2000000100005F03120002002D
:1001B0000035026D002100004702090022000020E6
:1001C000033F0021020060020900220200D2021552
:1001D0000021030079020900220300A2023000215D
:1001E000040079020900220400E70239000300003C
:1001F0003102040103090421020E02030904010271
:100200001E1E0348004900440020004C00690062A3
:1002100000650072006100740069006F006E0000EC
:10022000000E0374002E006D002E006B002E0000E7
:10023000000403090409026D00040100A03209044E
:1002400000000103010100092111010001223F000A
:100250000705810308000A090402000103000000E9
:100260000921110100012215000705830320000167
:10027000090403000103000000092111010001220B
:1002800030000705840308000A0904040001030084
:100290000000092111010001223900070585031022
:1002A000000105010980A1018502150125B7190189
:1002B00029B7751095018100C0050C0901A10185C0
:1002C000031501269C0219012A9C027510950181D3
:1002D00000C00631FF0974A1537508150026FF0000
:1002E000952009758102C005010906A101750195D6
:1002F00008050719E029E715002501810295057514
:1003000001050819012905910295017503910395CD
:10031000787501150025010507190029778102C0AC
:1003200005010906A10175019508050719E029E7EE
:100330001500250181029501750881039505750158
:100340000508190129059102950175039103950688
:100350007508150025FF0507190029FF8100C01247
:1003600001000200000020EDFE19B90100010200A9
:100370000101C1020001C12601C10601C116000A26
:10038000002530325820006B6579626F6172645FBE
:100390007265706F72743A20000A0025303258007E
:1003A0006B6579626F6172645F7365745F6C6564BD
:1003B0003A200064656C5F6B65795F6269743A200E
:1003C00063616E27742064656C3A20253032580AC8
:1003D000006164645F6B65795F6269743A20636190
:1003E0006E2774206164643A20253032580A006414
:1003F0006F6E652E0A00626F6F676D6167696320BB
:100400007363616E3A202E2E2E20003F00433E2063
:10041000004C25640A000A092D20436F6E736F6C2F
:1004200065202D0A4553432F713A09717569740A85
:10043000000A092D204D61676963202D0A643A097D
:1004400064656275670A783A096465627567206D4C
:1004500061747269780A6B3A096465627567206B2A
:100460006579626F6172640A6D3A096465627567E5
:10047000206D6F7573650A763A0976657273696FD8
:100480006E0A733A097374617475730A633A096387
:100490006F6E736F6C65206D6F64650A302D343A32
:1004A000096C61796572302D34284631302D46341F
:1004B000290A506175733A09626F6F746C6F6164D9
:1004C00065720A653A09656570726F6D0A6E3A0960
:1004D0004E4B524F0A000A002575002E6E6B726F4C
:1004E0003A20000A002575002E737761705F626103
:1004F000636B736C6173685F6261636B737061637C
:10050000653A20000A002575002E737761705F67D9
:10051000726176655F6573633A20000A0025750095
:100520002E6E6F5F6775693A20000A002575002EF0
:10053000737761705F72616C745F726775693A207E
:10054000000A002575002E737761705F6C616C7412
:100550005F6C6775693A20000A002575002E63619B
:1005600070736C6F636B5F746F5F636F6E74726FC9
:100570006C3A20000A002575002E737761705F6366
:100580006F6E74726F6C5F636170736C6F636B3AE4
:1005900020000A0025303258006B65796D61705F6C
:1005A000636F6E6669672E7261773A20000A0025D4
:1005B00075002E6D6F7573653A20000A0025750071
:1005C0002E6B6579626F6172643A20000A002575AE
:1005D000002E6D61747269783A20000A002575005A
:1005E0002E656E61626C653A20000A002530325833
:1005F0000064656275675F636F6E6669672E72611E
:10060000773A20000A0025750064656661756C7490
:100610005F6C617965723A20003F004E4B524F3A51
:10062000206F66660A004E4B524F3A206F6E0A00EA
:100630007573625F6B6579626F6172645F69646C28
:10064000655F636F756E743A2025580A0075736292
:100650005F6B6579626F6172645F6C6564733A2089
:1006600025580A005544494E543A2025580A005549
:100670004449454E3A2025580A005544434F4E3AC6
:100680002025580A0074696D65725F636F756E741A
:100690003A202530346C580A006B6579626F6172BC
:1006A000645F6E6B726F3A2025580A006B65796241
:1006B0006F6172645F69646C653A2025580A006B4B
:1006C0006579626F6172645F70726F746F636F6C73
:1006D0003A2025580A00686F73745F6B6579626F02
:1006E0006172645F6C65647328293A2025580A009A
:1006F0000A092D20537461747573202D0A00474335
:10070000433A20342E382E31204156522D4C494246
:10071000433A20312E382E3073766E204156525F88
:10072000415243483A20617672350A004F5054498D
:100730004F4E533A20504A524320424F4F544D415E
:100740004749432045585452414B455920434F4E49
:10075000534F4C4520434F4D4D414E44204E4B523C
:100760004F20343039360A004255494C443A203043
:100770003464363537372D64697274792028313105
:100780003A31393A3538204A616E203238203230D9
:100790003136290A005649443A20307846454544C6
:1007A00028742E6D2E6B2E29205049443A20307823
:1007B0004239313928484944204C69626572617474
:1007C000696F6E29205645523A20307830303031EA
:1007D0000A00444553433A20742E6D2E6B2E206B35
:1007E0006579626F617264206669726D77617265A6
:1007F00020666F7220484944204C696265726174BA
:10080000696F6E0A000A092D2056657273696F6E52
:10081000202D0A000A6D6F7573653A206F66660AAF
:10082000000A6D6F7573653A206F6E0A000A6B657A
:1008300079626F6172643A206F66660A000A6B65BE
:1008400079626F6172643A206F6E0A000A6D61749A
:100850007269783A206F66660A000A6D617472697F
:10086000783A206F6E0A000A64656275673A206FF5
:100870006E0A000A64656275673A206F66660A0050
:100880000A0A626F6F746C6F616465722E2E2E207F
:1008900000433E20006565636F6E6669673A0A0033
:1008A00011241FBECFEFDAE0DEBFCDBF04B603FEDA
:1008B00024C08091380290913902A0913A02B091FF
:1008C0003B028730904BA740B04BB9F410923802EE
:1008D0001092390210923A0210923B0214BE84B771
:1008E000877F84BF88E10FB6F894809360001092F0
:1008F00060000FBEE0E0F8E3099511E0A0E0B1E090
:10090000EAEBFAE302C005900D92A639B107D9F7D8
:1009100022E0A6E9B1E001C01D92A833B207E1F7D9
:100920000E948A060C945B1D0C940000FF93EF93C9
:10093000E0919601F0919701309709F00995EF91B8
:10094000FF910895FC018591803011F0EFDFFBCF1E
:100950000895FF27E0E230E247FF0CC0419597FF82
:1009600009C0EDE26095709580959095611D711DAF
:10097000811D911D27FF02C0219530E350E2AA2777
:10098000660F771F881F991FAA1FA41710F0A41BBA
:1009900063955A95A9F7AA3008F0A95FA05DAF93B7
:1009A000F395611571058105910541F7ED3211F45B
:1009B000EF93F395F21718F43F93F395FBCF8F91D4
:1009C000B5DFFA95E1F70895E991F99185918030C5
:1009D00021F0853219F0AADFF9CF089520E0E894DC
:1009E00055915532C1F3503311F4689455915A33EF
:1009F00048F4505390F3220F022E220F220F200DA5
:100A0000250FF4CF0EF4219589919991533619F35E
:100A1000533729F1533559F1BC0188279927E894B8
:100A20005C3621F48991999168945591543639F442
:100A300046EF7EF077FF0DC08FEF9FEF0AC055376E
:100A40004AE039F0583540E121F0523642E009F0F1
:100A50000895FF93EF937DDFEF91FF91B7CFFF9361
:100A6000EF93FC0181918030B9F360DFFBCFFF93FE
:100A7000EF9368DFF1CFDF93CF93CDB7DEB7259645
:100A8000A3DFCF91DF910895E72F70E0F0E083E0DE
:100A9000EE0FFF1F8A95E1F7E60FF71FE453FF4FB4
:100AA0008491089580E090E00895CF93DF9385B717
:100AB000806885BF85B7806885BF84B18E6084B942
:100AC00085B1817F85B9E2E7F1E088E191E0CEE48C
:100AD000D1E041915191DC012D91CD012095DA01B8
:100AE0003C9132233C93A991B9913C9132233C93A0
:100AF000B1E0E639FB0769F784B1806684B985B156
:100B0000806685B9EAEAF1E0A8E9B1E011921D92A8
:100B100021E0EC3BF207D1F7DF91CF9108952F92BE
:100B20003F924F925F926F927F928F929F92AF927D
:100B3000BF92CF92DF92EF92FF920F931F93CF93CA
:100B4000DF9320E1C22E21E0D22E412C512C6624CD
:100B50006394712C0AE711E048E0342ED6018D91A0
:100B60006D0195B1917F892B85B9BAE1BA95F1F7FD
:100B700000C07301042C02C0EE0CFF1C0A94E2F7C3
:100B80002E2C8AE2A82E81E0B82E98E1892E91E0E1
:100B9000992EC8E9D1E02881D501ED91FD915D0143
:100BA000D4014D914D01822F90E08E219F2131E0A3
:100BB000892B09F430E08081842391E009F490E0EE
:100BC0003917B1F02225288380910001882371F024
:100BD0009091300290FF0AC01F928F931F930F9342
:100BE0000E943B050F900F900F900F9030920001E4
:100BF0002196B1E0CA3ADB0771F6EFEF4E1A5E0AB2
:100C0000F8E04F16510409F0A9CF80910001882324
:100C1000B1F0815080930001882339F08FE99FE083
:100C20000197F1F700C000000AC0AAEAB1E0E8E9C4
:100C3000F1E081918D9391E0EA3AF907D1F781E0F3
:100C4000DF91CF911F910F91FF90EF90DF90CF90A8
:100C5000BF90AF909F908F907F906F905F904F90DC
:100C60003F902F900895E82FF0E0E655FE4F8081E9
:100C70000895CF92DF92EF92FF920F931F93CF933D
:100C8000DF938BE691E00E94A2045AEAE52E51E040
:100C9000F52EC0E0D0E066E6C62E61E0D62E0EE569
:100CA00011E0DF93CF93DF92CF920E943B0583E662
:100CB00091E00E94A204F70181917F010E947B17BD
:100CC0001F928F931F930F930E943B058CE591E039
:100CD0000E94A20421968DB79EB708960FB6F8948D
:100CE0009EBF0FBE8DBFC231D105D9F6DF91CF9126
:100CF0001F910F91FF90EF90DF90CF90089581FFAB
:100D000002C02D9801C02D9A82FF02C02E9808952E
:100D10002E9A089580E880936100109261000E94ED
:100D2000FF0A0E94BA070E94D3078823E1F38CE6EA
:100D300097E00E9476170E94010B0E94BF060E9456
:100D40007C0A8091C201882369F00E948D178091EE
:100D5000C3018823B1F30E94B117882391F30E9445
:100D6000DE07EFCF0E942F0BECCF8091BC010895DE
:100D700008950C94740A0C94780A0C944F0781E03F
:100D800091E00895FF920F931F93CF93DF93D82F95
:100D9000F92E162F042F0E94D307811102C08FEF66
:100DA0002AC02FB7F8941093E900C091E400CE5CFC
:100DB0008091E80085FF04C09D2FED2FFF2D0EC010
:100DC0002FBF0E94D307882351F38091E4008C1732
:100DD00031F32FB7F8941093E900EACF8E2F891BD7
:100DE000801720F481918093F100F8CF8AE38093FB
:100DF000E8002FBF80E0DF91CF911F910F91FF900E
:100E00000895EF92FF920F931F93CF93DF938C017E
:100E10008091300282FF3CC08FE991E00E94A204E1
:100E2000C0E0D0E08AE9E82E81E0F82EF801EC0F6E
:100E3000FD1F82811F928F93FF92EF920E943B05CC
:100E400088E991E00E94A20421960F900F900F90E4
:100E50000F90CE30D10551F780E991E00E94A204B5
:100E6000F80180811F928F938BE891E09F938F937D
:100E70000E943B050F900F900F900F9089E891E032
:100E8000DF91CF911F910F91FF90EF900C94A204EE
:100E9000DF91CF911F910F91FF90EF9008951F93D5
:100EA000CF93DF93EC0180910D01882319F040E18D
:100EB00065E002C048E061E0CE010E94C206182F42
:100EC000811105C01092BD01CE010E940107812F42
:100ED000DF91CF911F9108951F93CF93DF93D82F68
:100EE0000E94D307882371F09FB7F89483E0809322
:100EF000E9008091BE01882349F08091E80085FDDA
:100F000003C09FBF8FEF2DC01092BE01C091E400BF
:100F1000CC5F13E08091E80085FD12C09FBF8091F7
:100F2000E4008C1304C081E08093BE01EBCF0E94EB
:100F3000D307882339F39FB7F8941093E900EACFD9
:100F4000D093F1008091E80085FD06C08AE380938C
:100F5000E8001092BF0103C082E08093BF019FBFF1
:100F600080E0DF91CF911F9108958091E80080FF8C
:100F7000FCCF089581E08093D70080EA8093D80069
:100F800082E189BD09B400FEFDCF80E98093D800DD
:100F90001092E0001092C1011092C2018DE1809385
:100FA000E200789408958091C101882329F080910E
:100FB000C20191E08927089580E008958091E000C2
:100FC00082608093E0008091E00081FDFCCF089575
:100FD0001F920F920FB60F9211242F933F934F93AE
:100FE0005F936F937F938F939F93AF93BF93CF93B1
:100FF000EF93FF93C091E1001092E100C0FF15C094
:101000008091E20080FF11C08091C101882369F0C6
:101010008091E2008E7F8093E2008091E200806107
:101020008093E20081E08093C201C4FF16C08091EA
:10103000E20084FF12C08091C101882371F00E94F8
:10104000C6178091E20081608093E2008091E20007
:101050008F7E8093E2001092C201C3FF0FC01092F6
:10106000E90081E08093EB001092EC0082E2809333
:10107000ED0088E08093F0001092C101C2FF3BC0F8
:101080008091C1018823B9F18091BF01882391F03B
:1010900081508093BF0181110DC083E08093E900EE
:1010A0008091E80085FF03C01092F100F9CF8AE338
:1010B0008093E80080910D0181111DC080910B018A
:1010C0008823C9F08091C0018F5F8093C001837035
:1010D00091F481E08093E9008091E80085FF0BC0E6
:1010E0008091BD018F5F8093BD0190910B018913A9
:1010F00002C01092BD01FF91EF91CF91BF91AF91CE
:101100009F918F917F916F915F914F913F912F911F
:101110000F900FBE0F901F9018951F920F920FB651
:101120000F921124EF92FF920F931F932F933F93EF
:101130004F935F936F937F938F939F93AF93BF93DF
:10114000EF93FF93CF93DF931F92CDB7DEB710924B
:10115000E9008091E80083FF72C19091F1008091D5
:10116000F1003091F1002091F100E32EF12CF22AF0
:101170000091F1002091F10010E0122B2091F1007C
:101180004091F10030E0342B42EF4093E80086308C
:1011900009F044C06DE086EA91E0FC01459154916C
:1011A0004E155F0539F4FC01329645915491401774
:1011B000510721F00796615081F741C1FC01349637
:1011C00045915491FC01369684912F3F310519F0D9
:1011D00010F02FEF30E0281708F4822F3EEF9091A7
:1011E000E800292F2570D9F392FD2CC1982F813268
:1011F00008F090E2FA01292F222331F064916093E4
:10120000F10021503196F8CF490F511D891B3093C1
:10121000E8008111E4CF903211F314C1853051F40C
:101220008EEF8093E8000E94B5078E2D8068809332
:10123000E30008C1893059F591114BC0E092C1011A
:101240008EEF8093E80041E081E793E051E0409326
:10125000E9009C012F5F3F4FFC016491662371F010
:101260005093EB00F90124912093EC009C012D5F39
:101270003F4F319684918093ED0002C01092EB00B5
:101280004F5F473011F0C901E2CF8EE744C088308C
:1012900041F4903809F052C00E94B5078091C10115
:1012A0007EC0811116C099830E94B507998192383A
:1012B00051F40093E9008091EB0085FB882780F9C9
:1012C0001092E90001C080E08093F1001092F100DB
:1012D0008DC0482F4D7F413089F5923009F5EF28B8
:1012E00009F088C0402F4F775FEF540F563008F059
:1012F00081C09EEF9093E8004093E900833009F4A9
:101300009EC089E18093EB0081E090E0042E01C053
:10131000880F0A94EAF78093EA001092EA0092C0DC
:1013200091110CC0EA94EF2809F064C0833019F4DD
:101330004093C3015BC01092C30158C00115110551
:1013400009F05BC0913A71F58130D9F40E94B5077C
:10135000E0910E01F0910F0180818093F1001092D5
:10136000F10080E090E0E0910E01F0910F01E80FB4
:10137000F91F22812093F10001968630910599F79B
:1013800035C0823029F40E94B50780910B0107C057
:10139000833009F054C00E94B50780910C018093FE
:1013A000F10024C0913209F04AC0893061F4809183
:1013B000E80082FFFCCF8091F1008093BC018BEFAD
:1013C0008093E80013C08A3029F4F0920B01109248
:1013D000BD010CC08B3099F5E0920C0181E0E11069
:1013E00001C080E080930D010E94CF0F8EEF8093AB
:1013F000E80028C00115110511F102301105F9F4BA
:101400008130E9F4913AD9F43EEF8091E800982FC9
:101410009570D9F382FD16C0822F213208F080E248
:10142000982F992321F01092F1009150FACF281BA8
:101430003093E8002111E9CF803239F303C081E213
:101440008093EB000F90DF91CF91FF91EF91BF91CF
:10145000AF919F918F917F916F915F914F913F914C
:101460002F911F910F91FF90EF900F900FBE0F9053
:101470001F901895FF920F931F93CF93DF93D82F50
:101480008B010E94D307811102C08FEF27C09FB745
:10149000F89484E08093E900C091E400CE5C84E09D
:1014A000F82E8091E80085FD0EC09FBF0E94D307F3
:1014B000882359F38091E4008C1739F39FB7F8948F
:1014C000F092E900EECFD093F1000093F100109379
:1014D000F1008AE38093E8009FBF80E0DF91CF9125
:1014E0001F910F91FF900895BC0183E00C943A0A7C
:1014F000BC0182E00C943A0A9093C9018093C80120
:101500000895E091C801F091C901309721F0019050
:10151000F081E02D099480E00895FF920F931F93CE
:10152000CF93DF938C01E091C801F091C90130970E
:1015300099F10280F381E02D09958091300282FFBC
:101540002BC080FF04C087E893E00E94A204E8015A
:1015500080E1F82E01E813E08091300280FF0BC09B
:1015600088811F928F931F930F930E943B050F90CA
:101570000F900F900F90FA942196F110EDCF80917B
:10158000300280FF09C08FE793E0DF91CF911F9178
:101590000F91FF900C94A204DF91CF911F910F91B6
:1015A000FF9008952091C6013091C70182179307DB
:1015B00071F09093C7018093C601E091C801F0914A
:1015C000C901309721F00680F781E02D0994089534
:1015D0002091C4013091C5018217930771F0909357
:1015E000C5018093C401E091C801F091C901309711
:1015F00021F00084F185E02D0994089508950C945C
:10160000FE0A0E94F1170E9455050C949118CF9381
:10161000C82F8091300282FF1EC080FF04C080EA84
:1016200093E00E94A2048091300280FF0CC01F92C0
:10163000CF932BE933E03F932F930E943B050F900C
:101640000F900F900F908091300280FF04C089E9C5
:1016500093E00E94A2048C2FCF910C947F06CF922E
:10166000DF92EF92FF920F931F93CF93DF93CDB74B
:10167000DEB72B970FB6F894DEBF0FBECDBF0E942A
:101680008F053BECE32E31E0F32E00E010E0C02E9E
:10169000802F0E943306F701D1907F01D826B1F444
:1016A0000F5F1F4F0231110591F78FEF89838A83F6
:1016B0001B820E94FA178160782F9D838C83498159
:1016C0005A816B818D810E94D00B41C09091300274
:1016D00091FF04C08B870E9439068B8520E030E0A3
:1016E0004D2D50E0922FBA01022E02C075956795DC
:1016F0000A94E2F760FF25C02E83CF82EE24E394A4
:10170000F12C02C0EE0CFF1C9A95E2F790E08E21BE
:101710009F2121E0892B09F420E028870E94FA17F5
:101720008160782F9A8789874E815F8168858A8555
:101730000E94D00BF801E553FE4F80818E258083F7
:1017400006C02F5F3F4F2830310561F6A9CF1091B9
:10175000CA010E94810A1817A1F00E94810A809391
:10176000CA012B960FB6F894DEBF0FBECDBFDF9136
:10177000CF911F910F91FF90EF90DF90CF900C943D
:10178000070B2B960FB6F894DEBF0FBECDBFDF91CF
:10179000CF911F910F91FF90EF90DF90CF90089520
:1017A000CF93DF93CDB7DEB72B970FB6F894DEBF9C
:1017B0000FBECDBF4F83588769877A878B87DE013D
:1017C000119686E0FD0111928A95E9F785E0FE0108
:1017D000379601900D928A95E1F749815A816B8184
:1017E0007C818D819E810E949B122B960FB6F8946E
:1017F000DEBF0FBECDBFDF91CF910895CF93C82F2D
:10180000882309F498C08CEF8C0F813A48F48C2F10
:101810000E94D81C81118FC08C2F0E9438150CC0DB
:1018200080E28C0F883058F4C77081E001C0880FC7
:10183000CA95EAF70E94DB15CF910C9414168BE53C
:101840008C0F833078F4C53A29F0C63A31F482E837
:1018500090E005C081E890E002C083E890E0CF917D
:101860000C94D20A88E58C0F833108F064C0C83A22
:1018700039F1C93A41F1CA3A49F1CB3A51F1CC3A7E
:1018800059F1CD3A61F1C03B69F1CE3A71F1CF3AED
:1018900079F1C13B81F1C23B89F1C33B91F1C43B7A
:1018A00099F1C53BA1F1C63BA9F1C73BB1F1C83BDA
:1018B000B9F1C93BC1F1CA3BC9F58AE292E038C02F
:1018C00082EE90E035C089EE90E032C08AEE90E082
:1018D0002FC085EB90E02CC086EB90E029C087EB11
:1018E00090E026C08CEC90E023C08DEC90E020C00E
:1018F00083E891E01DC08AE891E01AC082E991E096
:1019000017C084E991E014C081E292E011C083E243
:1019100092E00EC084E292E00BC085E292E008C043
:1019200086E292E005C087E292E002C080E090E0AB
:10193000CF910C94E80ACF910895882329F19CEF68
:10194000980F913A18F40E9489150DC090E2980FF3
:10195000983058F4877091E001C0990F8A95EAF7A2
:10196000892F0E94E1150C9414169BE5980F933073
:1019700020F480E090E00C94D20A885A833120F45D
:1019800080E090E00C94E80A0895882321F00E94FA
:10199000DB150C9414160895882321F00E94E1159C
:1019A0000C9414160895CF92DF92EF92FF920F934A
:1019B0001F93CF93DF93CDB7DEB728970FB6F89478
:1019C000DEBF0FBECDBF8C0185E0F801DE011196B0
:1019D00001900D928A95E1F7F80140813181F28002
:1019E000258122952F7083819481892B31F03F3F8F
:1019F00031F481E04F3F19F403C081E001C080E081
:101A000080FDB0C249833A8389819A812F830E94E5
:101A1000F6149E8388870E94F5140E94C8134E8195
:101A2000E42FE295EF70F0E0EA5AFF4F2F816885CE
:101A30000C94241D842F807F142F1F70882311F095
:101A40001295107FFF2059F0112309F440C2812F15
:101A500068870E94EB150E941416688538C2862F8D
:101A60000E949D0C112309F47DC2812F0E94F11563
:101A700028960FB6F894DEBF0FBECDBFDF91CF9191
:101A80001F910F91FF90EF90DF90CF900C94141660
:101A9000342F307F842F8F70303211F08295807F09
:101AA000662319F0613009F12AC0FF20A1F022233A
:101AB00081F1213071F528960FB6F894DEBF0FBE84
:101AC000CDBFDF91CF911F910F91FF90EF90DF90ED
:101AD000CF900C94FB15222319F0213009F442C257
:101AE0008E830E94FE158E8176C1FF2021F0263064
:101AF00008F038C20EC0253008F034C26CC1FF2097
:101B0000C1F0222331F0F801958190FFE0C19F7070
:101B1000958328960FB6F894DEBF0FBECDBFDF9138
:101B2000CF911F910F91FF90EF90DF90CF900C9489
:101B3000C50C222309F44FC1DEC1242F269526951A
:101B4000237030E02115310521F021303105C9F035
:101B500009C2FF2021F0862F942F937002C080E0ED
:101B600090E028960FB6F894DEBF0FBECDBFDF9190
:101B7000CF911F910F91FF90EF90DF90CF900C9439
:101B8000D20AFF2021F0862F942F937002C080E0AC
:101B900090E028960FB6F894DEBF0FBECDBFDF9160
:101BA000CF911F910F91FF90EF90DF90CF900C9409
:101BB000E80A842F837009F076C0F110D3C1262F74
:101BC000229526952770220F220F862F8F70C82E00
:101BD000D12CE12CF12C022E04C0CC0CDD1CEE1C0F
:101BE000FF1C0A94D2F764FF10C06FE070E080E041
:101BF00090E004C0660F771F881F991F2A95D2F7BF
:101C0000609570958095909503C060E070E0CB0181
:101C1000242F269526952370422F50E042305105FF
:101C2000D1F04330510559F16C297D298E299F2926
:101C30004130510541F128960FB6F894DEBF0FBE32
:101C4000CDBFDF91CF911F910F91FF90EF90DF906B
:101C5000CF900C94ED136C297D298E299F2928960D
:101C60000FB6F894DEBF0FBECDBFDF91CF911F91AD
:101C70000F91FF90EF90DF90CF900C9407140E948B
:101C8000ED13C701B60128960FB6F894DEBF0FBE5C
:101C9000CDBFDF91CF911F910F91FF90EF90DF901B
:101CA000CF900C94D313FF2019F0842F817001C0C2
:101CB0008695882309F456C1262F229526952770EC
:101CC000220F220F862F8F70C82ED12CE12CF12CE1
:101CD000022E04C0CC0CDD1CEE1CFF1C0A94D2F7B3
:101CE00064FF10C06FE070E080E090E004C0660F19
:101CF000771F881F991F2A95D2F760957095809558
:101D0000909503C060E070E0CB01242F26952695C6
:101D10002370422F50E042305105D1F0433051053D
:101D200059F16C297D298E299F294130510541F1B6
:101D300028960FB6F894DEBF0FBECDBFDF91CF91CE
:101D40001F910F91FF90EF90DF90CF900C94C114F2
:101D50006C297D298E299F2928960FB6F894DEBF1D
:101D60000FBECDBFDF91CF911F910F91FF90EF90EC
:101D7000DF90CF900C94DB140E94C114C701B60110
:101D800028960FB6F894DEBF0FBECDBFDF91CF917E
:101D90001F910F91FF90EF90DF90CF900C94A714BC
:101DA000603F49F118F4603E48F48CC0623F09F48A
:101DB00051C0E0F1633F09F461C084C0162F1F7069
:101DC000842F8F71FF2021F00E944014812FA1CE1B
:101DD0000E946114812F28960FB6F894DEBF0FBEC3
:101DE000CDBFDF91CF911F910F91FF90EF90DF90CA
:101DF000CF900C94CC0CFF20A9F0253008F0B2C095
:101E0000842F8F7128960FB6F894DEBF0FBECDBF1A
:101E1000DF91CF911F910F91FF90EF90DF90CF90C6
:101E20000C948614263008F09DC0EACFFF20A1F064
:101E3000842F8F7128960FB6F894DEBF0FBECDBFEA
:101E4000DF91CF911F910F91FF90EF90DF90CF9096
:101E50000C944014FF2061F3842F8F7128960FB6E5
:101E6000F894DEBF0FBECDBFDF91CF911F910F91D0
:101E7000FF90EF90DF90CF900C946114FF2091F0D1
:101E8000842F8F7128960FB6F894DEBF0FBECDBF9A
:101E9000DF91CF911F910F91FF90EF90DF90CF9046
:101EA0000C942B1428960FB6F894DEBF0FBECDBF4E
:101EB000DF91CF911F910F91FF90EF90DF90CF9026
:101EC0000C942114FF20A1F0222309F4B1CF862F16
:101ED00028960FB6F894DEBF0FBECDBFDF91CF912D
:101EE0001F910F91FF90EF90DF90CF900C94FE0B1D
:101EF000222309F4B1CF862F28960FB6F894DEBFBF
:101F00000FBECDBFDF91CF911F910F91FF90EF904A
:101F1000DF90CF900C949D0C4F70C8010E947217F7
:101F200028960FB6F894DEBF0FBECDBFDF91CF91DC
:101F30001F910F91FF90EF90DF90CF900C9448137A
:101F40004F70C80128960FB6F894DEBF0FBECDBF04
:101F5000DF91CF911F910F91FF90EF90DF90CF9085
:101F60000C94751728960FB6F894DEBF0FBECDBF40
:101F7000DF91CF911F910F91FF90EF90DF90CF9065
:101F800008950E94F8150E94CD150E94141680E055
:101F900090E00E94D20A80E090E00C94E80A0E944F
:101FA000E8150C94C10F0E94F614292F22952F706A
:101FB00030E02C3031054CF42A3031056CF42250DD
:101FC00031092230310590F407C02C30310551F031
:101FD0002F30310539F00AC0803E10F0803F31F4D7
:101FE00081E0089593FB882780F9089580E00895A3
:101FF000CF93DF9300D000D01F92CDB7DEB70F9004
:102000000F900F900F900F90DF91CF910895CF9385
:10201000DF9300D000D000D0CDB7DEB726960FB644
:10202000F894DEBF0FBECDBFDF91CF9108951F930F
:10203000CF93DF93C091DD0116E08091DE01C817D8
:1020400099F0D0E01C9FF0011D9FF00D1124E1528A
:10205000FE4F4081518162817381848195810E940C
:1020600007102196C770E9CFDF91CF911F91089596
:1020700040910F0250911002609111027091120272
:1020800080911302909114020C940710CF938091C9
:10209000140282958F7009F05FC08091110288232D
:1020A00009F45AC02091DD01A091DE0160910F0278
:1020B00070911002809112029091130231E06F3FF3
:1020C00009F030E0B32FC6E02A1709F445C00097A5
:1020D00021F07F3F21F44B2F03C041E001C040E0DD
:1020E00030E040FD35C0C29FF001C39FF00D1124C8
:1020F000E152FE4F418174132BC04081641328C00C
:102100004281411125C0438154814817590710F479
:1021100041505109481B590B483C5105C8F4809166
:1021200014028F7080618093140286E0829FF00118
:10213000839FF00D1124EC51FE4F80818F708061E0
:1021400080838FE092E00E94D30CCF910C94171003
:102150002F5F3F4F2770B8CFCF910895CF92DF9276
:10216000EF92FF920F931F93CF93DF93CDB7DEB71C
:1021700062970FB6F894DEBF0FBECDBF8C0185E02D
:10218000F801DE011D9601900D928A95E1F7D801C4
:102190004C9111965C91119712966C91129713962F
:1021A000ED90FC90149770910F02E0911002209135
:1021B0001202309113022115310531F0EF3F31F455
:1021C00081E07F3F19F403C081E001C080E0B82FB7
:1021D000B170CB2E80FD6CC1D0901102DD2009F4CE
:1021E000F5C0F0911402E216F30638F0C701821B25
:1021F000930B883C910548F09BC0209530952E0D9F
:102200003F1D283C310508F093C08F2F807F09F0D7
:1022100052C0E51314C0741312C0D62E61110FC042
:10222000FF70F061F09314020E9438108FE092E08A
:102230000E94D30C80911402F80185836CC1EF28B1
:1022400031F05F3F31F481E04F3F19F403C081E08A
:1022500001C080E080FD03C081E0862701C080E0EE
:10226000F82FF170FF2E80FF1CC08091DD012091BE
:10227000DE0136E0821709F428C190E0389FF001B2
:10228000399FF00D1124E152FE4F7181571306C0A2
:102290007081471303C07281671303C00196877072
:1022A000E9CFD62E662309F436C1809114028160ED
:1022B0008093140253C0E51308C0741306C0611163
:1022C00004C0D8011596FC93AEC04D875E878D85FE
:1022D0009E856A8B0E94D30F6A89882329F1D62EA6
:1022E000662311F120911402822F82958F7090E065
:1022F00002970CF460C080910F02909110029887B1
:102300008F831986FB86EA862C87CE01079651C0FB
:10231000E51731F14D875E878D859E856A8B0E941A
:10232000D30F6A8981112EC0C8010E94D30CA4C0AA
:102330008F2F807F69F77E2DF98AE88A89890E942C
:10234000F80F8FE092E00E94D30CEFE0F2E086E01D
:10235000DF011D928A95E9F70E943810D12CDBC06D
:102360007413D8CF6111D6CFD8011596FC93C8014C
:102370000E94D30CEFE0F2E086E0DF011D928A9527
:10238000E9F7C9C0D62E662379F220911402822F74
:1023900082958F7090E0029774F080910F02909177
:1023A00010029A8389831B82FD82EC822E83CE01E8
:1023B00001960E94D30C86E0F801AFE0B2E00190F4
:1023C0000D928A95E1F70E9446106FC0E216F3065F
:1023D00028F0C701821B930B9C0104C02095309507
:1023E0002E0D3F1D283C310508F052C0D62E662325
:1023F00009F49ACFE5132CC074132AC080911402FB
:1024000080FD1DC0982F92959F70C9F0D801159638
:102410008C9315979F3039F09F5F9295907F8F70C6
:10242000892B15968C93C8010E94D30C86E0F80185
:10243000AFE0B2E001900D928A95E1F736C086E0F8
:10244000F801AFE0B2E001900D928A95E1F763C028
:102450004D875E878D859E850E94D30F882379F0F6
:1024600086E0F801AFE0B2E001900D928A95E1F7C5
:102470000E9446100E943810DD24D3944CC08091F5
:102480001402816080931402C8010E94D30C43C0DF
:102490007E2DF98AE88A89890E94F80FEFE0F2E040
:1024A00086E0DF011D928A95E9F70E94381033C05B
:1024B000662309F439CF4D875E878D859E850E94FE
:1024C000D30F882309F430CFCBCF4D875E878D851E
:1024D0009E850E94F614292F22952F7030E022301D
:1024E00031052CF49F7041F0811106C00CC02430DE
:1024F00031052CF49F7049F4805E883020F0C801CB
:102500000E94D30CCF2CDC2C06C0D80115969C91D0
:10251000907F91F7F8CF8D2D62960FB6F894DEBFBD
:102520000FBECDBFDF91CF911F910F91FF90EF9024
:10253000DF90CF9008951F93CF93DF93CDB7DEB791
:102540002C970FB6F894DEBF0FBECDBF4F835887D0
:1025500069877A878B879C87CE0107960E94AE1089
:102560008823C1F02F8138858A859B85892B31F09E
:102570003F3F11F080E003C02F3FE1F781E0811180
:1025800047C04F81588569857A858B859C850E94D7
:1025900007103EC086E0FE013796DE0111960190DD
:1025A0000D928A95E1F7FF81E8854A855B854115A3
:1025B000510531F0EF3F31F481E0FF3F19F403C0E2
:1025C00081E001C080E080FD23C02091DE0130E089
:1025D000C9010196877099276091DD0170E0861727
:1025E0009707F1F1F983EA835D834C8396E0929F2C
:1025F000D001939FB00D1124A152BE4FFE01319620
:1026000001900D929A95E1F78093DE010E941710D8
:1026100016E08091DD019091DE01891779F1189F14
:10262000C001112481529E4F0E94AE10882331F1C7
:10263000E091DD011E9FF0011124E152FE4F408127
:10264000518162817381848195810E9407108091FC
:10265000DD0190E00196877099278093DD01D9CF45
:102660000E94CF0F1092DE011092DD01EFE0F2E048
:1026700086E0DF011D928A95E9F7CACF2C960FB646
:10268000F894DEBF0FBECDBFDF91CF911F910895AB
:10269000EF92FF920F931F93CF93DF93FC0100976C
:1026A00009F46FC0F12CEE24E394EF01219684919C
:1026B000843740F4843008F055C0813081F0823096
:1026C00021F15FC0853709F447C0C0F19CE7980F3E
:1026D000903708F056C08F770E949D0C45C08F013F
:1026E0000E5F1F4FFE01849190E2980F983050F4D6
:1026F0008770FE2D01C0FF0F8A95EAF78F2F0E9489
:10270000EB1515C00E94FE0B14C08F010E5F1F4F0A
:10271000FE01849190E2980F983068F48770FE2D46
:1027200001C0FF0F8A95EAF78F2F0E94F1150E94D2
:102730001416E80119C00E949D0CFBCFCF01029630
:10274000FE01C491CC2361F0EFE9FFE03197F1F78E
:1027500000C00000C150F6CFCF010296FE01F490F8
:10276000EC0102C00E94FE0B8F2D882341F0EFE99F
:10277000FFE03197F1F700C000008150F6CFFE0175
:1027800094CFDF91CF911F910F91FF90EF9008951B
:1027900008956093190270931A0280931B0290931C
:1027A0001C020C94C10F0F931F93009119021091FA
:1027B0001A0220911B0230911C02062B172B282B8A
:1027C000392B0093190210931A0220931B023093A5
:1027D0001C021F910F910C94C10F0F931F93009136
:1027E000190210911A0220911B0230911C0206233B
:1027F0001723282339230093190210931A022093D8
:102800001B0230931C021F910F910C94C10F0F9368
:102810001F930091190210911A0220911B0230910E
:102820001C0206271727282739270093190210931F
:102830001A0220931B0230931C021F910F910C94DB
:10284000C10F1092150210921602109217021092E8
:1028500018020C94C10F41E050E060E070E004C049
:10286000440F551F661F771F8A95D2F740931502B4
:102870005093160260931702709318020C94C10FC4
:1028800041E050E060E070E004C0440F551F661F57
:10289000771F8A95D2F78091150290911602A09128
:1028A0001702B0911802842B952BA62BB72B80937F
:1028B000150290931602A0931702B09318020C947D
:1028C000C10F41E050E060E070E004C0440F551FCC
:1028D000661F771F8A95D2F7409550956095709541
:1028E0008091150290911602A0911702B0911802E2
:1028F00084239523A623B723809315029093160271
:10290000A0931702B09318020C94C10F41E050E05D
:1029100060E070E004C0440F551F661F771F8A9562
:10292000D2F78091150290911602A0911702B091F2
:10293000180284279527A627B7278093150290931E
:102940001602A0931702B09318020C94C10F0F93B4
:102950001F930091150210911602209117023091D9
:102960001802062B172B282B392B009315021093D6
:10297000160220931702309318021F910F910C94A6
:10298000C10F0F931F930091150210911602209111
:1029900017023091180206231723282339230093A6
:1029A00015021093160220931702309318021F91FC
:1029B0000F910C94C10F0F931F930091150210916A
:1029C0001602209117023091180206271727282790
:1029D00039270093150210931602209317023093A3
:1029E00018021F910F910C94C10F0895CF92DF929E
:1029F000EF92FF920F931F93CF93DF93EC01C09060
:102A00001902D0901A02E0901B02F0901C028091F3
:102A1000150290911602A0911702B0911802C82ACF
:102A2000D92AEA2AFB2A0FE110E0B701A601002EFD
:102A300004C076956795579547950A94D2F740FF5D
:102A400007C0BE01802F0E94FF168130910539F426
:102A50000150110950F7BE0180E00E94FF16DF917E
:102A6000CF911F910F91FF90EF90DF90CF9008953D
:102A700090910C01992361F190910D01992341F1FD
:102A8000982F9695969596959F3088F4E0910E0133
:102A9000F0910F01E90FF11D877021E030E001C0D6
:102AA000220F8A95EAF78181822B81830895909184
:102AB000300290FF2DC01F928F9381ED93E09F9382
:102AC0008F930E943B050F900F900F900F900895E9
:102AD00040910E0150910F0120E030E09FEFFA018C
:102AE000E20FF31F6281681799F09F3F19F461119B
:102AF00001C0922F2F5F3F4F2E30310581F79F3F4E
:102B000039F0FA01E90FF11D97FDFA9582830895D6
:102B1000089590910C01992369F190910D019923E9
:102B200049F1982F9695969596959F3090F4E0915F
:102B30000E01F0910F01E90FF11D877021E030E0E7
:102B400001C0220F8A95EAF72095818128232183ED
:102B500008959091300290FF1FC01F928F9383EBD6
:102B600093E09F938F930E943B050F900F900F90DF
:102B70000F90089540910E0150910F0120E030E038
:102B8000FA01E20FF31F9281981301C012822F5FA6
:102B90003F4F2E303105A1F7089581E090E0E0919C
:102BA0000E01F0910F01E80FF91F1082019680319C
:102BB0009105A9F7089590912F02982B90932F02D9
:102BC0000895809590912F02982390932F02089555
:102BD00010922F02089590912E02982B90932E021E
:102BE0000895809590912E02982390932E02089537
:102BF00010922E02089580931D02089510921D02D6
:102C0000089540910E0150910F0120E030E080E0E6
:102C1000FA01E20FF31F918191118F5F2F5F3F4FF8
:102C20002F303105A9F70895E0910E01F0910F01C1
:102C300080912F028083E0910E01F0910F0180813D
:102C400090912E02892B808390911D02992361F02F
:102C5000E0910E01F0910F018081892B80830E9409
:102C60000116811110921D0280910E0190910F01A9
:102C70000C948D0ACF93DF938D3B60F4883A90F5E6
:102C8000853A38F5843010F5813009F06DC0C1E027
:102C9000D0E0B1C0883E98F4803EC0F48F3B09F08C
:102CA00063C00E94CF0F2FEF80E792E02150804059
:102CB0009040E1F700C000000E942B189CC0803FAC
:102CC00008F452C0C82FD0E0D06595C0C82FD0E01E
:102CD00092C0853A09F44BC0863A09F04BC0C2E86D
:102CE000D0E489C0883A09F448C0893A09F448C058
:102CF0008A3A09F448C08B3A09F448C08C3A09F47E
:102D000048C08B3B09F448C08C3B09F448C08D3A5D
:102D100009F448C0803B09F448C08E3A09F448C021
:102D20008F3A09F448C0813B09F448C0823B09F45A
:102D300048C0833B09F448C0843B09F448C0853B44
:102D400009F448C0863B09F448C0873B09F448C0F1
:102D5000883B09F448C0893B09F448C08A3B09F024
:102D600048C0CAE2D6E447C0C0E0D0E044C0C1E8F1
:102D7000D0E441C0C3E8D0E43EC0C2EED4E43BC0DE
:102D8000C9EED4E438C0CAEED4E435C0C5EBD4E40F
:102D900032C0C6EBD4E42FC0C3EBD4E42CC0C4EBE8
:102DA000D4E429C0C7EBD4E426C0CCECD4E423C0DF
:102DB000CDECD4E420C0C3E8D5E41DC0CAE8D5E416
:102DC0001AC0C2E9D5E417C0C4E9D5E414C0C1E211
:102DD000D6E411C0C3E2D6E40EC0C4E2D6E40BC010
:102DE000C5E2D6E408C0C6E2D6E405C0C7E2D6E430
:102DF00002C0C0E0D4E4CE01DF91CF9108950E94DB
:102E00004405803EA8F4803C00F5813309F45CC0A1
:102E100038F4893209F452C08A3209F45BC05FC0C9
:102E20008933B1F08238A1F0853309F441C057C02D
:102E3000833E41F128F4803E99F0823EB9F04FC0C4
:102E4000863E31F1873E71F14AC00E9452050895D5
:102E50009091370290FD02C091FF41C080EE3FC0CB
:102E60008091370280FFFACF89E339C08091370221
:102E700082FF0CC08091370284FF02C080E02FC027
:102E800083EE2DC08091370282FFF4CF82EE27C0FF
:102E90008091370283FF0AC08091370284FDEECF14
:102EA00087EE1DC08091370283FFF6CF86EE17C0F4
:102EB0008091370285FF06C089E211C080913702F8
:102EC00085FFFACF85E30BC08091370286FF06C0ED
:102ED0008AE205C08091370286FFFACF81E30E9423
:102EE0003A16089580E090E0089508959093970130
:102EF0008093960108958295982F9C7C969596953F
:102F0000837344E0849F90011124922B892F8A7A45
:102F100086959575990F892B08951092310220E4BA
:102F200088E190E00FB6F894A895809360000FBEFA
:102F30002093600083B7817F846083BF83B7816003
:102F400083BF7894889583B78E7F83BF88E10FB65F
:102F5000F89480936000109260000FBE0895089569
:102F60000895CF930E94AF170E948F050E94B0175B
:102F7000C0E08C2F0E943306811105C0CF5FC231A3
:102F8000C1F780E001C081E0CF9108950C94CF0F8C
:102F90001F920F920FB60F9211248F939F93AF93AE
:102FA000BF9380913102811113C0809132029091C0
:102FB0003302A0913402B09135024196A11DB11D9A
:102FC0008093320290933302A0933402B09335027F
:102FD000BF91AF919F918F910F900FBE0F901F9057
:102FE000189582E084BD93E095BD9AEF97BD8093DC
:102FF0006E0008952FB7F8948091320290913302B9
:10300000A0913402B09135022FBF08951F920F9204
:103010000FB60F9211248F939F93AF93BF9380911C
:10302000320290913302A0913402B09135020196A0
:10303000A11DB11D8093320290933302A0933402FC
:10304000B0933502BF91AF919F918F910F900FBEBA
:103050000F901F901895F89481E08093E00080E233
:103060008093D8001092C9008FE19EE40197F1F798
:1030700000C0000087E090EBDC0180933802909361
:103080003902A0933A02B0933B022CE088E190E031
:103090000FB6F894A895809360000FBE209360004F
:1030A000FFCFEF92FF920F931F93CF93DF93E82E02
:1030B000F12C8F2D0E943306C0E0D0E0082F10E0E5
:1030C00098010C2E02C0359527950A94E2F720FD51
:1030D00005C02196C830D10599F709C06C2F7F2D06
:1030E00080E00E944405E812F4CF81E005C0F3942B
:1030F00082E1F812DECF80E0DF91CF911F910F9136
:10310000FF90EF900895CF93C82F8CE20E94511842
:10311000882321F08C2FCF910C94511880E0CF910F
:103120000895CF930E94DE19811102C00E94C41934
:1031300086EF93E00E94A204C5E6C15049F00E94C8
:103140008F058FE39CE90197F1F700C00000F5CFF0
:103150008FEE93E00E94A20489E20E9483188111FD
:1031600011C18AE20E94831881110E94C41985E06E
:103170000E94831881110E942B180E94E9198093E4
:10318000300287E00E948318882399F18BE10E9426
:103190008318882351F09091300291FB882780F9A1
:1031A00021E0822780FB91F922C08EE00E948318E3
:1031B000882351F09091300292FB882780F921E01A
:1031C000822780FB92F913C080E10E9483189091BE
:1031D0003002882341F093FB882780F921E0822781
:1031E00080FB93F904C0892F809580FB90F9909320
:1031F0003002809130020E94ED190E94FB198093E9
:10320000370280EE0E948318882341F080913702B4
:10321000982F909590FB80F98093370289E30E9464
:103220008318882359F09091370291FB882780F901
:1032300021E0822780FB91F99093370282EE0E9471
:103240008318882359F09091370292FB882780F9E0
:1032500021E0822780FB92F99093370286EE0E944C
:103260008318882359F09091370293FB882780F9BF
:1032700021E0822780FB93F99093370283EE0E942E
:103280008318882359F09091370294FB882780F99E
:1032900021E0822780FB94F99093370285E30E9416
:1032A0008318882359F09091370295FB882780F97D
:1032B00021E0822780FB95F99093370281E30E94F9
:1032C0008318882359F09091370296FB882780F95C
:1032D00021E0822780FB96F99093370281E10E94DA
:1032E0008318882359F09091370297FB882780F93B
:1032F00021E0822780FB97F9909337028091370273
:103300000E94FF198091370287FB882780F98093FC
:103310000D0187E20E948318C82F8EE10E94831856
:103320008111C2608FE10E9483188111C46080E224
:103330000E9483188111C86081E20E948318811164
:10334000C06182E20E9483188111C06283E20E9400
:1033500083188111C06484E20E948318882311F0CD
:10336000C06802C0CC2329F08C2F0E94F6196C2F64
:1033700003C00E94F219682F70E080E090E0CF91C6
:103380000C94C913CF9108956DEE7EEF80E090E02C
:103390000E94461D60E082E090E00E94381D60E0DF
:1033A00083E090E00E94381D60E084E090E00E949D
:1033B000381D60E085E090E00C94381D80E090E0DE
:1033C0000E94321D21E08D3E9E4F09F020E0822FA9
:1033D000089582E090E00C942A1D682F82E090E02E
:1033E0000C94381D83E090E00C942A1D682F83E034
:1033F00090E00C94381D84E090E00C942A1D682F16
:1034000084E090E00C94381DCF93C82F1F928F93C7
:1034100021E134E03F932F930E943B0561E070E08F
:1034200080E090E004C0660F771F881F991FCA953F
:10343000D2F70E94C9130F900F900F900F90CF9169
:103440000C94CF0FCF938B3109F4CCC108F049C055
:103450008E3009F4DAC100F5873009F4AAC1A8F466
:10346000863009F099C280913002817F8E7F8093EF
:10347000300286E194E00E94A20481E998E00E9473
:10348000A20481E08093360292C1883009F45BC0C7
:103490008B3009F488C180C2813109F465C220F4FF
:1034A000803109F4C5C178C2863109F4DBC18931A4
:1034B00009F072C285E098E00E94A20482ED97E0D4
:1034C0000E94A20485E997E00E94A20488E697E0A2
:1034D0000E94A2048CE297E00E94A2048EEF96E084
:1034E00064C1853309F452C268F4873209F44EC2CC
:1034F00028F48E3108F450C28D514BC2893209F440
:1035000045C24AC2833438F48A3308F041C2883352
:1035100009F449C141C2833409F438C2883409F03E
:103520003BC20E94CF0F80E898E00E94A2049FEF68
:1035300023ED30E3915020403040E1F700C000001F
:103540000E942B1834C185E998E00E94A20489E00A
:1035500096E00E94A2040E94F2191F928F9386E0C7
:1035600096E09F938F930E943B0584E096E00E9433
:10357000A2040E94E919C82F81EF95E00E94A204DD
:103580001F92CF932CEE35E03F932F930E943B0583
:103590008AEE95E00E94A20480EE95E00E94A204CB
:1035A0008C2F81701F928F932DED35E03F932F93D9
:1035B0000E943B058BED95E00E94A20481ED95E011
:1035C0000E94A204C1FB882780F91F928F932EECE2
:1035D00035E03F932F930E943B058CEC95E00E94D1
:1035E000A20480EC95E00E94A204C2FB882780F927
:1035F0001F928F932DEB35E03F932F930E943B0555
:103600008BEB95E00E94A20482EB95E00E94A2045D
:10361000C3FBCC27C0F91F92CF938FEA95E09F930D
:103620008F930E943B058DEA95E00E94A2040E94C0
:10363000FB19C82F89E995E00E94A2041F92CF933D
:1036400024E935E03F932F930E943B0582E995E002
:103650000E94A20489E795E00E94A2048C2F817049
:103660001F928F9326E735E03F932F930E943B05EF
:103670002DB73EB7205E3F4F0FB6F8943EBF0FBE4A
:103680002DBF84E795E00E94A2048DE595E00E949D
:10369000A204C1FB882780F91F928F932AE535E0A9
:1036A0003F932F930E943B0588E595E00E94A2047A
:1036B00086E495E00E94A204C2FB882780F91F924D
:1036C0008F9323E435E03F932F930E943B0581E4E1
:1036D00095E00E94A2048FE295E00E94A204C3FB41
:1036E000882780F91F928F932CE235E03F932F9328
:1036F0000E943B058AE295E00E94A20480E295E0E8
:103700000E94A204C4FB882780F91F928F932DE1A9
:1037100035E03F932F930E943B058BE195E00E949B
:10372000A20489E095E00E94A204C5FB882780F9E5
:103730001F928F9326E035E03F932F930E943B0525
:1037400084E095E00E94A20488EE94E00E94A20426
:10375000C6FB882780F91F928F9325EE34E03F93B4
:103760002F930E943B0583EE94E00E94A2048BED10
:1037700094E00E94A204C7FBCC27C0F91F92CF930C
:1037800088ED94E09F938F930E943B0586ED94E033
:103790000E94A2048DB79EB74C960FB6F8949EBFB8
:1037A0000FBE8DBF04C081E394E00E94A204C1E07B
:1037B000F8C080913002C82FC17080FF09C083E734
:1037C00098E00E94A20480913002817F8E7F44C0E5
:1037D00087E698E00E94A204809130028160809385
:1037E0003002E5CF8091300281FBCC27C0F991E017
:1037F000C927C0FB81F980933002CC2319F08AE5F8
:1038000098E025C08CE498E0D0CF8091300282FB14
:10381000CC27C0F991E0C927C0FB82F98093300220
:10382000CC2319F08DE398E012C08DE298E0BDCF73
:103830008091300283FBCC27C0F991E0C927C0FBFF
:1038400083F980933002CC2351F081E298E00E940A
:10385000A20480913002816080933002A2C084E192
:1038600098E0A3CF80EF96E00E94A2040E94810A14
:103870001F928F9386ED96E09F938F930E943B0556
:1038800080910C011F928F938FEB96E09F938F9303
:103890000E943B0580910B011F928F938CEA96E06A
:1038A0009F938F930E943B0580910D011F928F93F0
:1038B00089E996E09F938F930E943B0580913202A5
:1038C00090913302A0913402B0913502BF93AF932F
:1038D0009F938F9385E896E09F938F930E943B057B
:1038E0008091E0001F928F938AE796E09F938F93D9
:1038F0000E943B058091E2001F928F938FE696E035
:103900009F938F930E943B058091E1001F928F93BC
:1039100084E696E09F938F930E943B058091BC01C3
:103920002DB73EB72E5D3F4F0FB6F8943EBF0FBE8A
:103930002DBF1F928F938DE496E09F938F930E94EB
:103940003B058091BD011F928F9380E396E09F938A
:103950008F930E943B058DB79EB708960FB6F894DB
:103960009EBF0FBE8DBF23CF0E94CF0FC0910D0110
:1039700081E0C827C0930D01CC2329F086E296E0B0
:103980000E94A2040EC08BE196E00FCF80E001C040
:1039900089530E94041A0BCF89E196E00E94A20489
:1039A000C0E08C2FCF91089580E0089580E00895C5
:1039B000CF93C82F80913602882319F0813049F0C7
:1039C0003BC0E0910E01F0910F0180818232B1F590
:1039D00007C0E0910E01F0910F018081823249F41D
:1039E0008C2F0E94D41C811124C08C2F0E94221A7B
:1039F00021C08C2F0E94D61C81111BC0C43189F0BC
:103A000018F4CB3029F010C0C93259F0C83361F432
:103A100086E194E00E94A2048DE094E00E94A2045A
:103A200008C0109236020CC08BE094E00E94A20401
:103A300007C081E0817006C01092360280E002C0AB
:103A400080E0F8CFCF910895EE0FFF1F0590F4911D
:103A5000E02D0994F999FECF92BD81BDF89A99277E
:103A600080B50895A8E1B0E042E050E00C944D1D0F
:103A7000262FF999FECF1FBA92BD81BD20BD0FB68A
:103A8000F894FA9AF99A0FBE019608950E94381D8B
:103A9000272F0C94391DDC01CB01FC01F999FECFD5
:103AA00006C0F2BDE1BDF89A319600B40D924150C6
:0A3AB0005040B8F70895F894FFCFD6
:103ABA0008B506BD06B806BB06B9067D01011E0299
:103ACA0000020406080A0C0E108040800102040855
:103ADA00102040800102102040802300230026008D
:103AEA002600290029002900290029002900290087
:103AFA0029002F002F002F002F002F002F00250054
:103B0A002500280028002B002B002B002B002B005F
:103B1A002B002B002B003100310031003100310025
:103B2A00310024002400270027002A002A002A0046
:103B3A002A002A002A002A002A0030003000300019
:063B4A00300030003000E5
:00000001FF
