:100000000C94A3010C94EA010C94EA010C94EA010B
:100010000C94EA010C94EA010C94EA010C94EA01B4
:100020000C94EA010C94EA010C94EA010C94A607E2
:100030000C94EA010C9469150C94EA010C94EA0101
:100040000C94EA010C94EA010C94EA010C94D11589
:100050000C94EA010C94EA010C94EA010C94EA0174
:100060000C94EA010C94EA010C94EA010C94EA0164
:100070000C94EA018E026F0271027302750277021C
:1000800079027B027D027F02810283028502870260
:1000900089028B028D0279089B0889099B088909CE
:1000A000E0080309890958096B095D0C5D0C8A0C8D
:1000B0008A0CE50C210D190F190F390D190F340E8B
:1000C000340EEF0E190F190F050FF1A100E4000017
:1000D000E048003E45282A3142004443E600000043
:1000E0000047E246C037400F411200260036300E6E
:1000F0002E0C3F2511101C0D23180B240519170970
:1001000022150A2100063C073B083D20001B39163A
:100110003A1A641F001D2B043514291E51535C59D3
:100120004C5F2C004F545D5A49606200000000E7AC
:10013000000000000000E1E5000000005000005851
:100140004A57524D0000E3000000000056555E5B28
:100150004B61634E38002F332D133427000100000C
:1001600001A600AA01010101B000ABAC0100000032
:1001700000A501A70101B201AF01000100010101C9
:100180000101A901010101010101010101010101B7
:10019000010101010001B701B601B3010001010134
:1001A000B5010101000101010101B40101010101D9
:1001B0000101010001010101010101000000000134
:1001C000000000000000010100000000010000012B
:1001D0000101010100000100000000000101010116
:1001E0000101010101000101010101011A034300A4
:1001F0004D002000530074006F0072006D0020005D
:1002000051004600520000000E0343006F007300CF
:100210007400610072000000040309040902540024
:10022000030100A0320904000001030101000921BB
:10023000110100012240000705810308000A09049A
:1002400001000103010200092111010001224D00FA
:100250000705820308000A090402000103000000E8
:100260000921110100012236000705830308000A55
:100270001201100100000008EDFE506004010102AF
:10028000000105010980A101850216010026B700C1
:100290001A01002AB700751095018100C0050C09EC
:1002A00001A1018503160100269C021A01002A9C67
:1002B00002751095018100C005010902A101090123
:1002C000A1000509190129051500250195057501EC
:1002D00081029501750381010501093009311581FC
:1002E000257F95027508810609381581257F9501BE
:1002F00075088106050C0A38021581257F95017560
:10030000088106C0C005010906A101050719E029F9
:10031000E715002501950875018102950175088191
:1003200001050819012905950575019102950175C9
:100330000391010507190029FF150026FF00950606
:1003400075088100C00011241FBECFEFD4E0DEBFCE
:10035000CDBF04B603FE27C0809108029091090228
:10036000A0910A02B0910B028730904BA740B04B8E
:10037000D1F4109208021092090210920A0210920F
:100380000B0214BE84B7877F84BF0FB6F894A8957C
:1003900080916000886180936000109260000FBEC1
:1003A000E0E0F8E3099511E0A0E0B1E0EAE2F9E36A
:1003B00002C005900D92AE32B107D9F722E0AEE24D
:1003C000B1E001C01D92A830B207E1F70E9400051C
:1003D0000C94931C0C940000E72FF0E0262F30E0E3
:1003E000823078F490E062E170E00E94541C820F49
:1003F000931F23E0880F991F2A95E1F7E80FF91F53
:1004000007C083E0220F331F8A95E1F7E20FF31F45
:10041000E453FF4F84910895803C29F4EAECF0E026
:1004200085919491089580E090E0089584B18F7A49
:1004300084B987B18B7687B98AB18C7E8AB985B148
:10044000806585B988B1846988B98BB183618BB9BE
:1004500084B18F6284B9EEE4F1E0AEE2B1E01192D2
:100460001192119211921D921D921D921D9281E086
:10047000EE36F807A1F708952F923F924F925F92C0
:100480006F927F928F929F92AF92BF92CF92DF92A4
:10049000EF92FF920F931F93CF93DF93CDB7DEB709
:1004A00029970FB6F894DEBF0FBECDBF20E030E035
:1004B000412C512C3201439401E010E0822F90E056
:1004C000FC013197E131F10530F4E65CFF4F85B175
:1004D000807D0C94791C85B1807D8D601FC0806209
:1004E0001DC088601BC08C6019C0826217C0866204
:1004F00015C08A6213C08E6211C08C620FC0816009
:100500000DC08E600BC0896009C0886207C083601F
:1005100005C0846203C08F6001C0846085B940E17A
:100520004A95F1F786B18095881F8827881F3499EE
:1005300002C092E001C090E0892B1C9902C094E0B7
:1005400001C090E0982B1E9902C048E001C040E035
:10055000942B489902C060E101C060E0962B4C9951
:1005600002C050E201C050E0952B329902C040E435
:1005700001C040E0492B499902C090E801C090E0D9
:10058000942B53014201022E04C0880C991CAA1C12
:10059000BB1C0A94D2F75091000159876EE271E0BA
:1005A0007E836D83FB0140E050E0A92FB0E0B88767
:1005B000AF83C080D180E280F380C701B60168219B
:1005C00079218A219B2122242394672B682B692B74
:1005D00009F4212CB801042E02C0660F771F0A947B
:1005E000E2F78F8198856823792333243394672B2E
:1005F00009F4312C231451F0C824D924EA24FB2413
:10060000C082D182E282F38295E099874F5F5F4F8B
:1006100034964830510569F6A985A09300012F5FF3
:100620003F4F2231310509F049CFAA23F1F08A2F3B
:10063000815080930001882339F08FE99FE0019772
:10064000F1F700C0000011C0EEE4F1E0AD81BE8121
:100650004D915D916D917D91BE83AD834193519399
:1006600061937193AE54B14089F781E029960FB63A
:10067000F894DEBF0FBECDBFDF91CF911F910F91D8
:10068000FF90EF90DF90CF90BF90AF909F908F90B2
:100690007F906F905F904F903F902F900895E82F3C
:1006A000F0E0EE0FFF1FEE0FFF1FE25BFE4F6081D9
:1006B00071818281938108950895279A97B19066F8
:1006C00097B981FF02C02F9801C02F9A80FF02C006
:1006D000459801C0459A82FF02C046980895469AFF
:1006E0000895809176010895CF93DF9300D01F92F3
:1006F000CDB7DEB79C018091FF01843019F593E0FE
:1007000099833B832A839093E9008FEF9091E800CF
:10071000815095FD06C095ED9A95F1F70000811185
:10072000F5CF8091E80085FF0DC040E050E063E028
:1007300070E0CE0101960E94B2058091E8008E77AC
:100740008093E8000F900F900F90DF91CF91089564
:10075000CF93DF9300D01F92CDB7DEB72091FF017A
:10076000243021F522E029839B838A8383E08093D0
:10077000E9008FEF9091E800815095FD06C095ED5E
:100780009A95F1F700008111F5CF8091E80085FF7F
:100790000DC040E050E063E070E0CE0101960E94A1
:1007A000B2058091E8008E778093E8000F900F905B
:1007B0000F90DF91CF9108952091FF012430F1F443
:1007C00022E02093E9002FEF3091E800215035FD21
:1007D00006C035ED3A95F1F700002111F5CF2091D3
:1007E000E80025FF0BC040E050E065E070E00E94AB
:1007F000B2058091E8008E778093E8000895CF934A
:10080000DF932091FF01243039F521E02093E900A6
:100810002FEF3091E800215035FD06C035ED3A95B7
:10082000F1F700002111F5CF2091E80025FF14C059
:10083000EC0140E050E068E070E00E94B205809179
:10084000E8008E778093E80088E0FE01AEE6B1E034
:1008500001900D928A95E1F7DF91CF910895089567
:1008600042E061EC81E00E94BD0642E061EC82E082
:100870000E94BD0642E061EC83E00C94BD068091CD
:100880000102833009F453C030F4813071F08230BA
:1008900009F48CC008958A3009F478C08B3009F4CB
:1008A0005EC0893009F09AC020C080910002813A70
:1008B00009F094C08091E800877F8093E8008091E0
:1008C000040290910502892B21F468E08EE691E004
:1008D00003C060E080E090E070E00E94FF0580913E
:1008E000E8008B778093E8000895809100028132C0
:1008F00009F074C08091040290910502892B09F0DF
:100900006DC08091E800877F8093E8008091E800C7
:1009100082FD05C08091FF018111F8CF5FC08091F9
:10092000F100809376018091E8008B7753C080912D
:100930000002813A09F052C08091040290910502B0
:10094000892B09F04BC08091E800877F8093E800F5
:100950008091E80080FFFCCF80910B0136C0809130
:1009600000028132D9F58091040290910502892B11
:10097000A9F58091E800877F8093E8000E94F20645
:100980008091020280930B010C943A0F8091000237
:10099000813221F58091E800877F8093E8000E94F2
:1009A000F2068091030280937701089580910002FE
:1009B000813AA1F48091E800877F8093E8008091DC
:1009C000E80080FFFCCF809177018093F100809157
:1009D000E8008E778093E8000C94F206089508955D
:1009E000089508950C94F1040E9425158091FD014D
:1009F000882329F00E94501581110C949C050895BC
:100A000084B7877F84BF0FB6F894A8958091600063
:100A1000886180936000109260000FBE90E080E8D3
:100A20000FB6F89480936100909361000FBE0E940E
:100A3000EF040E94110A0E9443070E9496078091CA
:100A4000E20084608093E20078948091FF0184301A
:100A500019F00E94A209F9CF0E94130A81E091E0E7
:100A60000E94BD090E94F0048091FF01853019F4B5
:100A70000E94F404F9CF0E94170A0E94A209F4CF41
:100A80000C9467150C944005292F3327233031052A
:100A9000C9F064F42130310581F02230310509F0CC
:100AA00043C084E590E02CE132E042C021323105C0
:100AB000F1F02232310541F137C082E190E020E7C8
:100AC00032E036C099278130910541F0823091059E
:100AD00041F0892B49F5E8E1F2E005C0E8E0F2E0F9
:100AE00002C0ECEEF1E0849190E09F0121C0633000
:100AF000D8F4E62FF0E0EE0FFF1FE35EFE4F2081FB
:100B0000318189E090E014C0633070F470E0FB0143
:100B1000EE0FFF1FE95EFE4F20813181FB01EC5E8D
:100B2000FE4F808190E004C080E090E020E030E063
:100B3000FA0131832083089584E089BD86E089BD70
:100B400009B400FEFDCF8091D8008F7D8093D8003E
:100B50008091E00082608093E0008091E00081FD60
:100B6000FCCF0895CF92DF92EF92FF920F931F93E5
:100B7000CF93DF93EC018B017A010E941107811161
:100B800035C0E114F10439F0F70180819181081B2F
:100B9000190BC80FD91FC12CD12C0115110529F132
:100BA0008091E80085FD18C08091E8008E778093E1
:100BB000E8000E94A209E114F10449F0F7018081E4
:100BC0009181C80ED91ED182C08285E00FC00E94DB
:100BD0001107882311F30AC089918093F100015015
:100BE0001109FFEFCF1ADF0AD8CF80E0DF91CF9154
:100BF0001F910F91FF90EF90DF90CF90089520917B
:100C00000602309107022617370748F06115710573
:100C100039F42091E8002E772093E80001C0B90153
:100C200040E06115710591F12091FF01222309F443
:100C300040C0253009F43FC02091E80023FD3DC0AD
:100C40002091E80022FD2FC02091E80020FFE9CF8D
:100C50002091F20030E0FC01CF016115710559F0DF
:100C60002830310540F481918093F1006150710981
:100C70002F5F3F4FF1CF41E02830310509F040E0D0
:100C80002091E8002E772093E800CBCF4111CCCF04
:100C90000AC08091FF01882361F0853061F0809166
:100CA000E80083FD0AC08091E80082FFF2CF80E077
:100CB000089582E0089583E0089581E008952091E9
:100CC0000602309107022617370748F061157105B3
:100CD00039F42091E8002E772093E80001C0B90193
:100CE000FC0120E06115710579F18091FF018823F5
:100CF00009F43DC0853009F43CC08091E80083FDD3
:100D00003AC08091E80082FD2CC08091E80080FF0D
:100D1000E9CF8091F20090E06115710559F08830BB
:100D2000910540F424912093F100319661507109AE
:100D30000196F2CF21E0089709F020E08091E800C9
:100D40008E778093E800CECF2111CFCF0AC080915B
:100D5000FF01882361F0853061F08091E80083FD18
:100D60000AC08091E80082FFF2CF80E0089582E01F
:100D7000089583E0089581E00895982F953058F5FF
:100D80009093E900981739F07091EC002091ED00F4
:100D90005091F00003C0242F762F50E021FF19C09E
:100DA0003091EB003E7F3093EB003091ED003D7FC2
:100DB0003093ED003091EB0031603093EB00709395
:100DC000EC002093ED005093F0002091EE0027FFFF
:100DD00007C09F5FD3CF8F708093E90081E00895B3
:100DE00080E008958091000287FF11C08091E800A3
:100DF00082FD05C08091FF018111F8CF11C0809163
:100E0000E8008B770BC08091FF01882349F0809127
:100E1000E80080FFF8CF8091E8008E778093E800AB
:100E200008952091E4003091E50095E64091EC00B2
:100E3000842F817040FF22C08091E80080FD1CC09B
:100E40008091FF01882391F0853091F08091EB0033
:100E500085FD10C04091E4005091E5004217530712
:100E600029F39A01915011F784E0089582E00895E2
:100E700083E0089581E0089580E008954091E800BE
:100E800042FFDECF08950E94A0070E94A307E0EE74
:100E9000F0E0808181608083E8EDF0E080818F77F1
:100EA000808319BCE3E6F0E080818160808310924A
:100EB000FE0108950E94A0070E94A3078091D80018
:100EC0008F778093D8008091D80080688093D80075
:100ED0008091D8008F7D8093D80084E089BD86E022
:100EE00089BD09B400FEFDCF1092FF011092FB01F5
:100EF0001092FD011092FC0142E060E080E00E944F
:100F0000BD068091E1008E7F8093E1008091E20038
:100F100081608093E2008091E20088608093E2002B
:100F20008091E0008E7F8093E0000895E3E6F0E09A
:100F300080818E7F808381E08093FE010C945A072C
:100F40001092E20008951092E10008951F920F920E
:100F50000FB60F9211242F933F934F935F936F938C
:100F60007F938F939F93AF93BF93EF93FF93809162
:100F7000E10082FF0BC08091E20082FF07C08091F8
:100F8000E1008B7F8093E1000E94A1098091E10044
:100F900080FF19C08091E20080FF15C08091E200BF
:100FA0008E7F8093E2008091E20080618093E20076
:100FB0008091D80080628093D80019BC85E080932E
:100FC000FF010E94F2048091E10084FF30C0809113
:100FD000E20084FF2CC084E089BD86E089BD09B4AD
:100FE00000FEFDCF8091D8008F7D8093D800809146
:100FF000E1008F7E8093E1008091E2008F7E8093FC
:10100000E2008091E20081608093E2008091FB0128
:10101000882311F084E007C08091E30087FD02C0BF
:1010200081E001C083E08093FF010E94420580912E
:10103000E10083FF24C08091E20083FF20C0809103
:10104000E100877F8093E10082E08093FF011092AE
:10105000FB018091E1008E7F8093E1008091E200AE
:101060008E7F8093E2008091E20080618093E200B5
:1010700042E060E080E00E94BD060E942F04FF91E4
:10108000EF91BF91AF919F918F917F916F915F9100
:101090004F913F912F910F900FBE0F901F90189579
:1010A0001F93CF93DF93CDB7DEB7AA970FB6F8940F
:1010B000DEBF0FBECDBFE0E0F2E088E08E0F909182
:1010C000F10091938E13FBCF0E943F048091E800C2
:1010D00083FF1FC18091000290910102492F50E0CF
:1010E0004A30510508F015C1FA01E55BFF4F0C9439
:1010F000791C803881F0823809F00BC1809104029C
:101100008F708093E9008091EB0085FB882780F940
:101110001092E90006C08091FC019091FD019111AF
:1011200082609091E800977F9093E8008093F100AF
:101130001092F100C8C0282F2D7F09F0EAC0882343
:1011400019F0823061F0E5C080910202813009F02F
:10115000E0C0933009F080E08093FD012BC08091C6
:101160000202811127C0809104028F7009F4D1C05E
:101170008093E9002091EB0020FF1CC0933021F404
:101180008091EB00806214C09091EB00906190938D
:10119000EB0021E030E0A90102C0440F551F8A9501
:1011A000E2F74093EA001092EA008091EB00886039
:1011B0008093EB001092E9008091E800877F86C061
:1011C0008111A7C0109102021F778091E3008078FF
:1011D000812B8093E3008091E800877F8093E80073
:1011E0000E94F2068091E80080FFFCCF8091E3002E
:1011F00080688093E300111102C082E001C083E0A7
:101200008093FF0186C08058823008F082C08091B0
:101210000202909103028C3D53E0950779F583E03B
:101220008A838AE289834FB7F894DE01139620E01F
:101230003EE051E2E32FF0E050935700E49120FFAD
:1012400003C0E295EF703F5FEF708E2F90E0EA30C1
:1012500010F0C79601C0C0968D939D932F5F2431E7
:1012600049F74FBF8091E800877F8093E8006AE2EA
:1012700070E0CE0101960E94FF0514C0AE014F5FE1
:101280005F4F609104020E944405BC01892B09F460
:1012900040C09091E800977F9093E80089819A81FF
:1012A0000E945F068091E8008B778093E80031C050
:1012B000803879F58091E800877F8093E8008091FD
:1012C000FB018093F1008091E8008E778093E80025
:1012D0000E94F2061EC081111CC090910202923041
:1012E000C0F48091E800877F8093E8009093FB0131
:1012F0000E94F2068091FB01811106C08091E300FB
:1013000087FD02C081E001C084E08093FF010E945C
:1013100030048091E80083FF0AC08091E800877F55
:101320008093E8008091EB0080628093EB00AA96A6
:101330000FB6F894DEBF0FBECDBFDF91CF911F91E6
:1013400008950895CF938091FF018823A1F0C09163
:10135000E900CF709091EC00892F817090FD80E8BA
:10136000C82B1092E9008091E80083FD0E9450088C
:10137000CF70C093E900CF91089590937D01809341
:101380007C010895E0917C01F0917D01309721F07E
:101390000190F081E02D099480E00895E0917C01B6
:1013A000F0917D01309721F00280F381E02D0994C6
:1013B0000895E0917C01F0917D01309721F0048047
:1013C000F581E02D0994089520917A0130917B01F7
:1013D0008217930771F090937B0180937A01E091DB
:1013E0007C01F0917D01309721F00680F781E02D9E
:1013F000099408952091780130917901821793071B
:1014000071F09093790180937801E0917C01F091E3
:101410007D01309721F00084F185E02D0994089535
:1014200008950C94100A0E9492150C9416024F9283
:101430005F926F927F929F92AF92BF92CF92DF9214
:10144000EF92FF920F931F93CF93DF93CDB7DEB749
:1014500029970FB6F894DEBF0FBECDBF0E943C02A5
:101460004FE7A42E41E0B42E00E010E0902E802F34
:101470000E944F03F501C190D190E190F1905F017E
:10148000C626D726E826F926C114D104E104F104C2
:10149000B1F40F5F1F4F0830110541F78FEF8983BB
:1014A0008A831B820E949B158160782F9D838C8389
:1014B00049815A816B818D810E94000B64C020910B
:1014C000EA0121FF0AC06E837F83888799870E9483
:1014D0005C03998588857F816E8140E050E026011C
:1014E0003701042E04C076946794579447940A9465
:1014F000D2F740FE41C049839A82C12CD12C76019B
:10150000C39404C0CC0CDD1CEE1CFF1C4A95D2F722
:1015100026013701462257226822792281E0452898
:101520004628472809F480E08B830E949B15816040
:10153000782F9D838C8349815A816B818D810E9494
:10154000000B49815A816B817C818D810E9412152B
:10155000000F111F000F111FF801E158FE4F80818D
:101560009181A281B381C826D926EA26FB26C082B2
:10157000D182E282F38207C04F5F5F4F4231510553
:1015800009F0ADCF86CF0E9411150E946518109109
:101590007E010E94C2091817D9F00E94C2098093E7
:1015A0007E0129960FB6F894DEBF0FBECDBFDF9146
:1015B000CF911F910F91FF90EF90DF90CF90BF9050
:1015C000AF909F907F906F905F904F900C942315F9
:1015D00029960FB6F894DEBF0FBECDBFDF91CF9135
:1015E0001F910F91FF90EF90DF90CF90BF90AF9041
:1015F0009F907F906F905F904F9008950C945D0343
:10160000CF93DF93CDB7DEB72B970FB6F894DEBF3D
:101610000FBECDBF942F4F83252F588769877A87B8
:101620008B874A855B85452B21F02F3F09F59F3F2E
:10163000F9F4DE01119686E0FD0111928A95E9F731
:1016400085E0FE01379601900D928A95E1F7498178
:101650005A816B817C818D819E810E94E3112B9642
:101660000FB6F894DEBF0FBECDBFDF91CF910895C6
:101670004F81588569857A858B850E941215D9CF4F
:10168000CF93882309F4A4C0C82F8CEF8C0F813A24
:1016900048F48C2F0E94831A81119AC08C2F0E94CB
:1016A00072140CC080E28C0F883058F4C77081E04F
:1016B00001C0880FCA95EAF70E94B114CF910C942B
:1016C000EB148BE58C0F833078F4C53A29F0C63AD9
:1016D00031F083E890E005C081E890E002C082E844
:1016E00090E0CF910C94E40988E58C0F853108F0E7
:1016F0006FC0C83A61F1C93A69F1CA3A71F1CB3A9F
:1017000079F1CC3A81F1CD3A89F1CE3A91F1CF3AE3
:1017100099F1C13BA1F1C03BA9F1C23BB1F1C33B7F
:10172000B9F1C43BC1F1C53BC9F1C63BD1F1C73BDF
:10173000D9F1C83BE1F1C93BE9F1CA3BF1F1CB3B3F
:10174000F9F1CC3B09F43FC080E090E03EC082EE6E
:1017500090E03BC089EE90E038C08AEE90E035C062
:1017600085EB90E032C086EB90E02FC083EB90E0F9
:101770002CC084EB90E029C087EB90E026C08CEC75
:1017800090E023C08DEC90E020C083E891E01DC084
:101790008AE891E01AC082E991E017C084E991E0FB
:1017A00014C081E292E011C083E292E00EC084E2B4
:1017B00092E00BC085E292E008C086E292E005C0AC
:1017C00087E292E002C08AE292E0CF910C94FA099B
:1017D000CF910895882329F19CEF980F913A18F43E
:1017E0000E948F140DC090E2980F983058F48770C3
:1017F00091E001C0990F8A95EAF7892F0E94B714EA
:101800000C94EB149BE5980F933020F480E090E06B
:101810000C94E409885A853120F480E090E00C941F
:10182000FA090895882321F00E94B1140C94EB1456
:101830000895882321F00E94B7140C94EB140895A6
:10184000CF92DF92EF92FF920F931F93CF93DF938C
:1018500000D000D000D0CDB7DEB725E0FC01DE011E
:10186000119601900D922A95E1F7FC01408131819A
:10187000F280258122952F7063817481672B09F492
:10188000D8C23F3F19F44F3F09F4D3C26C014983DA
:101890003A8389819A812E830E943114182F092F4F
:1018A0000E9430140E944013E02FE295EF70F0E0A8
:1018B000EB5AFF4F2E810C94791C802F807F902F44
:1018C0009F70092F882311F00295007FFF2049F0B7
:1018D000002309F45FC2802F0E94C4140E94EB14FD
:1018E00059C2812F0E94EA0B002309F4A2C2802F63
:1018F0000E94CA1426960FB6F894DEBF0FBECDBF65
:10190000DF91CF911F910F91FF90EF90DF90CF90DB
:101910000C94EB14802F807F902F9F70092F8032C2
:1019200011F00295007F112319F0113001F129C047
:10193000FF20A9F0802F222349F1213039F5269686
:101940000FB6F894DEBF0FBECDBFDF91CF911F91D0
:101950000F91FF90EF90DF90CF900C94D41422233E
:1019600019F0213009F465C20E94D7142CC0FF2061
:10197000E9F0263008F05DC20E94AE14802329F001
:1019800022C0FF20F1F0211115C0802F26960FB63E
:10199000F894DEBF0FBECDBFDF91CF911F910F91A5
:1019A000FF90EF90DF90CF900C94120C253008F050
:1019B00040C209C0F601858180FFECC18F7085832C
:1019C000E4CF2111FBC1802F69C1202F26952695D8
:1019D000237030E02115310521F021303105C9F0A7
:1019E00028C2FF2021F0812F902F937002C080E049
:1019F00090E026960FB6F894DEBF0FBECDBFDF9104
:101A0000CF911F910F91FF90EF90DF90CF900C94AA
:101A1000E409FF2021F0812F902F937002C080E015
:101A200090E026960FB6F894DEBF0FBECDBFDF91D3
:101A3000CF911F910F91FF90EF90DF90CF900C947A
:101A4000FA09812FFF2019F00E946D1702C00E9431
:101A5000D51726960FB6F894DEBF0FBECDBFDF9127
:101A6000CF911F910F91FF90EF90DF90CF900C944A
:101A70005A18802F837009F078C0F110DAC1812FD5
:101A8000829586958770880F880F912F9F70C92E39
:101A9000D12CE12CF12C082E04C0CC0CDD1CEE1C4A
:101AA000FF1C0A94D2F714FF12C04FE050E060E030
:101AB00070E004C0440F551F661F771F8A95D2F748
:101AC000CB01BA01609570958095909503C060E058
:101AD00070E0CB01202F269526952370422F50E0F1
:101AE00042305105D1F04330510559F16C297D291F
:101AF0008E299F294130510541F126960FB6F89461
:101B0000DEBF0FBECDBFDF91CF911F910F91FF9030
:101B1000EF90DF90CF900C9455136C297D298E297E
:101B20009F2926960FB6F894DEBF0FBECDBFDF917A
:101B3000CF911F910F91FF90EF90DF90CF900C9479
:101B400067130E945513C701B60126960FB6F89485
:101B5000DEBF0FBECDBFDF91CF911F910F91FF90E0
:101B6000EF90DF90CF900C944313FF2019F0802F5B
:101B7000817001C08695882309F45BC1812F82950D
:101B800086958770880F880F912F9F70C92ED12C52
:101B9000E12CF12C082E04C0CC0CDD1CEE1CFF1C2B
:101BA0000A94D2F714FF12C04FE050E060E070E0FA
:101BB00004C0440F551F661F771F8A95D2F7CB01CB
:101BC000BA01609570958095909503C060E070E0D3
:101BD000CB01202F269526952370422F50E04230CE
:101BE0005105D1F04330510559F16C297D298E29D9
:101BF0009F294130510541F126960FB6F894DEBF7A
:101C00000FBECDBFDF91CF911F910F91FF90EF904D
:101C1000DF90CF900C940C146C297D298E299F297C
:101C200026960FB6F894DEBF0FBECDBFDF91CF91E1
:101C30001F910F91FF90EF90DF90CF900C941E14A6
:101C40000E940C14C701B60126960FB6F894DEBFA9
:101C50000FBECDBFDF91CF911F910F91FF90EF90FD
:101C6000DF90CF900C94FA13103F41F118F4103E1E
:101C700048F48BC0123F09F450C0D8F1133F09F467
:101C800060C083C01F70802F8F71FF2021F00E94E1
:101C90009313812F7BCE0E94B413812F26960FB60B
:101CA000F894DEBF0FBECDBFDF91CF911F910F9192
:101CB000FF90EF90DF90CF900C94190CFF20A9F0CB
:101CC000253008F0B6C0802F8F7126960FB6F89495
:101CD000DEBF0FBECDBFDF91CF911F910F91FF905F
:101CE000EF90DF90CF900C94D913263008F0A1C06C
:101CF000EACFFF20A1F0802F8F7126960FB6F894BF
:101D0000DEBF0FBECDBFDF91CF911F910F91FF902E
:101D1000EF90DF90CF900C949313FF2061F3802F0E
:101D20008F7126960FB6F894DEBF0FBECDBFDF9140
:101D3000CF911F910F91FF90EF90DF90CF900C9477
:101D4000B413FF2091F0802F8F7126960FB6F89470
:101D5000DEBF0FBECDBFDF91CF911F910F91FF90DE
:101D6000EF90DF90CF900C947E1326960FB6F894E8
:101D7000DEBF0FBECDBFDF91CF911F910F91FF90BE
:101D8000EF90DF90CF900C947913FF20A1F02223E5
:101D900009F4B1CF812F26960FB6F894DEBF0FBE9F
:101DA000CDBFDF91CF911F910F91FF90EF90DF900A
:101DB000CF900C94400B222309F4B1CF812F2696AB
:101DC0000FB6F894DEBF0FBECDBFDF91CF911F914C
:101DD0000F91FF90EF90DF90CF900C94EA0B402F83
:101DE0004F70612FC6010E94E31626960FB6F89435
:101DF000DEBF0FBECDBFDF91CF911F910F91FF903E
:101E0000EF90DF90CF900C948B12402F4F70612F8A
:101E1000C60126960FB6F894DEBF0FBECDBFDF9188
:101E2000CF911F910F91FF90EF90DF90CF900C9486
:101E3000E61626960FB6F894DEBF0FBECDBFDF9133
:101E4000CF911F910F91FF90EF90DF90CF90089569
:101E50000E94D1140E94A0140E94EB140E940C193D
:101E60000E945A1880E090E00E94E40980E090E02F
:101E70000C94FA090E94C1140C94280F0E9431148A
:101E8000292F22952F7030E02C3031054CF42A3068
:101E900031056CF4225031092230310588F407C035
:101EA0002C30310549F02F30310531F009C0803E2A
:101EB00048F0803F29F406C093FB882780F90895F5
:101EC00080E0089581E00895CF93DF9300D000D0A3
:101ED0001F92CDB7DEB70F900F900F900F900F901D
:101EE000DF91CF910895CF93DF9300D000D000D041
:101EF000CDB7DEB726960FB6F894DEBF0FBECDBFC6
:101F0000DF91CF910895CF93DF93C0919F0180918E
:101F1000A001C817A1F0D0E0CE0166E070E00E94F9
:101F2000541CFC01EF55FE4F408151816281738149
:101F3000848195810E94730F2196C770E8CFDF914D
:101F4000CF9108954091D1015091D2016091D30178
:101F50007091D4018091D5019091D6010C94730FAA
:101F6000CF93DF938091D60182958F7009F05CC08A
:101F70008091D301882309F457C020919F01D0910B
:101F8000A0014091D101C091D201E091D401F09122
:101F9000D5012D1709F448C030E0309709F440C04E
:101FA000CF3F11F44F3FE1F1C90166E070E00E94BC
:101FB000541CDC01AF55BE4F11968C911197C8137C
:101FC0002FC08C9148132CC012968C9112978111BE
:101FD00027C013968D919C9114978E179F0708F434
:101FE00001978E1B9F0B883C9105D0F48091D60100
:101FF0008F7080618093D601C90166E070E00E9415
:10200000541CFC01EA55FE4F90819F7090619083B3
:1020100081ED91E00E94200CDF91CF910C94830F11
:102020002F5F3F4F2770B5CFDF91CF910895BF92BB
:10203000CF92DF92EF92FF920F931F93CF93DF9394
:10204000CDB7DEB761970FB6F894DEBF0FBECDBF38
:102050008C0185E0F801DE011D9601900D928A95B4
:10206000E1F7D8014C9111962C9111971296EC90B2
:1020700012971396CD90DC9014975091D1016091F6
:10208000D2018091D4019091D501009709F46EC1DD
:102090006F3F19F45F3F09F469C1B090D301BB20D1
:1020A00009F4C3C03091D601C816D90628F0F6014C
:1020B000E81BF90BCF0104C0809590958C0D9D1DF8
:1020C000FF24F394883C910588F0F12C307F09F0CF
:1020D000CBC07C2DD98AC88A522F6E2D89890E9447
:1020E000640F81ED91E00E94200CB4C0832F807FAB
:1020F00009F049C0621314C0541312C0E11010C09B
:102100003F7030613093D6010E94A20F81ED91E0C3
:102110000E94200C8091D601D80115968C9331C075
:10212000CD2831F12F3F11F44F3F11F1FE2CE1107A
:102130001FC0E0919F013091A001E31709F45CC03A
:10214000F0E0CF0166E070E00E94541CDC01AF5566
:10215000BE4F11968C911197281307C08C9148138C
:1021600004C012968C91811103C03196E770E5CFBF
:10217000FE2CEE2009F416C18091D6018160809377
:10218000D601F12C0FC1621308C0541306C0E11030
:1021900004C08091D601D801C1C04D872E878D859E
:1021A0009E850E943E0F8823E1F1EE20D1F120911F
:1021B000D601822F82958F7090E0029774F0809103
:1021C000D1019091D20198878F831986DB86CA86C8
:1021D0002C87CE0107960E94200C86E0F801A1ED25
:1021E000B1E001900D928A95E1F70E94B00F0E9434
:1021F000A20FFF24F394D6C04D872E878D859E8530
:102200000E943114292F22952F7030E022303105A1
:102210000CF0BCC09F7009F0B6C0805E883008F436
:10222000C1C0C8010E94200CE4CFC816D90608F42A
:1022300053C0F601E81BF90BCF01883C910508F467
:1022400050C0F12C7C2DD98AC88A522F6E2D8989D5
:102250000E94640FE1EDF1E086E0DF011D928A95B6
:10226000E9F70E94A20F9EC0621314C0541312C05B
:10227000E11010C08091D601F8018583C8010E9449
:10228000200C86E0E1EDF1E0DF011D928A95E9F78F
:10229000FB2C88C04D872E878D859E850E943E0F22
:1022A000882309F4BECFEE2009F4BBCF2091D601DC
:1022B000822F82958F7090E002970CF48ECF8091E0
:1022C000D1019091D2019A8389831B82DD82CC82D5
:1022D0002E83CE0101967FCF809590958C0D9D1D0C
:1022E000ACCFFE2CEE2009F49CCF62132EC0541309
:1022F0002CC02091D60120FD1FC0822F82958F70A7
:10230000D9F0D80115962C9315978F3049F08F5F2F
:10231000982F9295907F822F8F70892B15968C9392
:10232000C8010E94200C86E0F801A1EDB1E0019007
:102330000D928A95E1F795CF86E0F801A1EDB1E025
:1023400001900D928A95E1F72DC04D872E878D85DE
:102350009E850E943E0F811140CF8091D601816001
:102360008093D601C8010E94200C1CC0EE2009F405
:1023700058CF4D872E878D859E850E943E0F8823DE
:1023800009F44FCF2ACF811148CF0CC0243031053A
:102390000CF047CF9F7009F440CFF8019581907FF2
:1023A00009F03BCF8F2D61960FB6F894DEBF0FBEBC
:1023B000CDBFDF91CF911F910F91FF90EF90DF90F4
:1023C000CF90BF900895CF93DF93CDB7DEB72C9712
:1023D0000FB6F894DEBF0FBECDBF4F835887698715
:1023E0007A878B879C87CE0107960E9417108823D7
:1023F00071F08F8198852A853B85232B09F43FC096
:102400009F3F09F068C08F3F09F065C038C086E083
:10241000FE013796DE01119601900D928A95E1F743
:102420006F817885EA85FB85309749F17F3F11F40C
:102430006F3F29F18091A00190E09C012F5F3F4FF9
:102440002770332740919F0150E02417350709F486
:102450004BC069837A83FD83EC8366E070E00E9461
:10246000541CDC01AF55BE4F96E0FE013196019041
:102470000D929A95E1F72093A0010E94830F80911D
:102480009F019091A0018917E9F190E066E070E06A
:102490000E94541C8F559E4F0E941710882391F163
:1024A00080919F0190E066E070E00E94541CFC0166
:1024B000EF55FE4F40815181628173818481958106
:1024C0000E94730F80919F0190E001968770992779
:1024D00080939F01D4CF4F81588569857A858B85FC
:1024E0009C850E94730FCBCF0E943A0F1092A001DF
:1024F00010929F01E1EDF1E086E0DF011D928A95E7
:10250000E9F7BDCF2C960FB6F894DEBF0FBECDBF56
:10251000DF91CF910895DF92EF92FF920F931F9377
:10252000CF93DF93FC01892B09F48AC0E12CF12CB5
:10253000DD24D394EF0121968491853709F461C09D
:1025400058F4843708F04EC0843008F06AC08130F7
:10255000D1F0823071F174C0883709F45DC050F455
:10256000863709F455C0873709F06AC08E2D0E945E
:10257000BE1454C09CE7980F903708F061C08F7765
:102580000E94EA0B50C08F010E5F1F4FFE01849125
:1025900090E2980F983050F48770FD2D01C0FF0F26
:1025A0008A95EAF78F2F0E94C41414C00E94400B32
:1025B00013C08F010E5F1F4FFE01C49180E28C0F8C
:1025C000883060F4C7708D2D01C0880FCA95EAF776
:1025D0000E94CA140E94EB14E80125C08C2F0E94AF
:1025E000EA0BFACF9F012E5F3F4FFE01C491CC232F
:1025F00069F08FE99FE00197F1F700C00000C1503A
:10260000F6CF9F012E5F3F4FFE01F490E9010BC012
:102610000E94AE14E82E07C00E94C1140E94EB1461
:1026200002C00E94400B8F2D882341F0EFE9FFE0AC
:102630003197F1F700C000008150F6CFFE017ACF4C
:10264000DF91CF911F910F91FF90EF90DF90089550
:102650006093DB017093DC018093DD019093DE01D8
:102660000E9421150C94280F6093D7017093D80114
:102670008093D9019093DA010E9422150C94280FBF
:1026800008950C9428130F931F930091DB01109170
:10269000DC012091DD013091DE01602B712B822B5A
:1026A000932B1F910F910C9428130F931F9300915C
:1026B000DB011091DC012091DD013091DE0160230E
:1026C0007123822393231F910F910C9428130F934E
:1026D0001F930091DB011091DC012091DD0130910D
:1026E000DE0160277127822793271F910F910C9499
:1026F000281360E070E0CB010C9434130F931F9308
:1027000041E050E060E070E08A019B0104C0000FEE
:10271000111F221F331F8A95D2F7C901B8011F91DB
:102720000F910C9434130F931F9341E050E060E03D
:1027300070E004C0440F551F661F771F8A95D2F7BB
:102740008091D7019091D801A091D901B091DA017F
:102750008A019B01082B192B2A2B3B2BC901B8019D
:102760001F910F910C9434130F931F9341E050E08D
:1027700060E070E004C0440F551F661F771F8A9504
:10278000D2F740955095609570958091D7019091C2
:10279000D801A091D901B091DA018A019B010823E7
:1027A00019232A233B23C901B8011F910F910C94CF
:1027B00034130F931F9341E050E060E070E004C0D9
:1027C000440F551F661F771F8A95D2F78091D70156
:1027D0009091D801A091D901B091DA018A019B01B1
:1027E000082719272A273B27C901B8011F910F91F4
:1027F0000C9434130F931F930091D7011091D801BB
:102800002091D9013091DA01602B712B822B932B0F
:102810001F910F910C9434130F931F930091D701C4
:102820001091D8012091D9013091DA0160237123F0
:10283000822393231F910F910C9434130F931F93B2
:102840000091D7011091D8012091D9013091DA017E
:1028500060277127822793271F910F910C943413BF
:102860000895CF92DF92EF92FF920F931F93CF9331
:10287000DF938C01C090DB01D090DC01E090DD01A2
:10288000F090DE014091D7015091D8016091D901BB
:102890007091DA01C42AD52AE62AF72ACFE1D0E0DE
:1028A000D701C6010C2E04C0B695A79597958795BC
:1028B0000A94D2F780FF07C0B8018C2F0E94181627
:1028C0008130910531F4219758F7B80180E00E94DA
:1028D0001816DF91CF911F910F91FF90EF90DF902D
:1028E000CF90089520910C0130910D01F90132969D
:1028F0009FEF40E05191581789F09F3F19F4511113
:1029000001C0942F4F5F4630A9F79F3F39F0F9017E
:10291000E90FF11D97FDFA9582830895089520919E
:102920000C0130910D01F9013296285F3F4F9081E3
:10293000981301C010823196E217F307C1F708958A
:1029400081E090E0E0910C01F0910D01E80FF91F9A
:102950001082019688309105A9F708958091E901C8
:1029600008959091E901892B8093E901089580955C
:102970009091E90189238093E90108958093E90109
:1029800008951092E90108959091E801892B8093B0
:10299000E801089580959091E80189238093E801EA
:1029A00008951092E80108958093DF010895109230
:1029B000DF01089580910C0190910D01FC01319689
:1029C0009C01285F3F4F80E0919191118F5FE2174A
:1029D000F307D1F70895E0910C01F0910D0180917A
:1029E000E9018083E0910C01F0910D0190818091CB
:1029F000E801892B80838091DF01882361F0E091D9
:102A00000C01F0910D019081892B80830E94DA14D2
:102A100081111092DF0180910C0190910D010C94B5
:102A2000CE090895CF93DF9300D000D01F92CDB789
:102A3000DEB70F900F900F900F900F90DF91CF9116
:102A40000895089508950C94FE0A8091FF01843042
:102A500021F11092EB0120E488E190E00FB6F894A8
:102A6000A895809360000FBE2093600083B7817F9C
:102A7000846083BF83B7816083BF7894889583B770
:102A80008E7F83BF0FB6F894A8958091600088610F
:102A900080936000109260000FBE0895089508951D
:102AA000CF930E944E150E943C020E944F15C0E039
:102AB0008C2F0E944F03672B682B692B29F4CF5F63
:102AC000C830B1F780E001C081E0CF9108950C9447
:102AD0003A0F1F920F920FB60F9211248F939F936C
:102AE000AF93BF938091EB01811113C08091EC01F2
:102AF0009091ED01A091EE01B091EF014196A11DE1
:102B0000B11D8093EC019093ED01A093EE01B09381
:102B1000EF01BF91AF919F918F910F900FBE0F90DA
:102B20001F90189582E084BD93E095BD9AEF97BD04
:102B300080936E0008952FB7F8948091EC019091E6
:102B4000ED01A091EE01B091EF012FBF0895CF925A
:102B5000DF92EF92FF920F931F932FB7F89440915B
:102B6000EC015091ED016091EE017091EF012FBFEA
:102B70006A017B01EE24FF248C0120E030E0C016C6
:102B8000D106E206F30610F4415051099A01281BC0
:102B9000390BC9011F910F91FF90EF90DF90CF90FB
:102BA00008951F920F920FB60F9211248F939F9347
:102BB000AF93BF938091EC019091ED01A091EE0154
:102BC000B091EF010196A11DB11D8093EC0190938E
:102BD000ED01A093EE01B093EF01BF91AF919F91F2
:102BE0008F910F900FBE0F901F9018950E94430772
:102BF000F8942FEF87EA91E6215080409040E1F76A
:102C000000C0000087E090EBDC0180930802909305
:102C10000902A0930A02B0930B029CE088E10FB670
:102C2000F894A895809360000FBE90936000FFCF4A
:102C30000E94EC0190E4980F903218F40E940C026C
:102C400008958D3B50F4883A80F5853A28F5843014
:102C500000F5813009F46EC06AC0883E98F4803E69
:102C6000C0F48F3B09F063C00E943A0F2FEF80E75A
:102C700092E0215080409040E1F700C000000E94A7
:102C8000F61555C0803F08F452C0282F30E030655B
:102C900098C0282F30E095C0853A09F44EC0863A96
:102CA00009F44EC023E830E48CC0883A09F44BC0E4
:102CB000893A09F44BC08A3A09F44BC08B3A09F4BB
:102CC0004BC08C3A09F44BC08D3A09F44BC08E3A94
:102CD00009F44BC08F3A09F44BC0813B09F44BC057
:102CE000803B09F44BC0823B09F44BC0833B09F4A1
:102CF0004BC0843B09F44BC0853B09F44BC0863B79
:102D000009F44BC0873B09F44BC0883B09F44BC026
:102D1000893B09F44BC08A3B09F44BC08B3B09F457
:102D20004BC08C3B09F44BC020E034E44AC020E0A7
:102D300030E047C021E030E044C021E830E441C049
:102D400022E830E43EC022EE34E43BC029EE34E415
:102D500038C02AEE34E435C025EB34E432C026EB2B
:102D600034E42FC023EB34E42CC024EB34E429C03A
:102D700027EB34E426C02CEC34E423C02DEC34E4FF
:102D800020C023E835E41DC02AE835E41AC022E952
:102D900035E417C024E935E414C021E236E411C05B
:102DA00023E236E40EC024E236E40BC025E236E42A
:102DB00008C026E236E405C027E236E402C02AE273
:102DC00036E4C901089580E090E008950895809167
:102DD000F20180FF0CC08091110190E065E070E08D
:102DE0000E94541C95958795959587952EC081FFD7
:102DF0000AC08091110190E065E070E00E94541CCF
:102E00009595879522C082FF08C08091110190E0BE
:102E100065E070E00E94541C18C02091F301222349
:102E2000D1F030911001231780F78091110190E0CB
:102E300065E070E00E94541C622F70E00E94541CF8
:102E4000632F70E00E94651CCB018038910530F43F
:102E5000009731F0089585E090E008958FE7089598
:102E600081E008958091F20180FF08C060910F0118
:102E700070E0759567957595679523C081FF06C0CD
:102E800060910F0170E0759567951BC082FF04C0CB
:102E900060910F0170E012C06091F3016623D1F0E0
:102EA00020910E016217A0F780910F0170E090E071
:102EB0000E94541C622F70E00E94651C60387105EE
:102EC00028F46115710521F0862F08958FE7089584
:102ED00081E0089561E070E0F4CF803F21F40E942A
:102EE000E716819504C0813F29F40E94E71680937C
:102EF000F6010895823F21F40E94E716819504C0EF
:102F0000833F29F40E94E7168093F5010895893FD5
:102F100019F40E94321705C08A3F31F40E9432171B
:102F200081958093F70108958B3F21F40E94321719
:102F3000819504C08C3F29F40E9432178093F801D8
:102F40000895843F21F48091F401816017C0853F8A
:102F500021F48091F401826011C0863F21F48091B8
:102F6000F40184600BC0873F21F48091F4018860F4
:102F700005C0883F31F48091F40180618093F401B1
:102F800008958D3F21F48091F20181600BC08E3F46
:102F900021F48091F201826005C08F3F29F4809175
:102FA000F20184608093F2010895803F39F48091AA
:102FB000F60187FF6CC01092F60169C0813F29F4C9
:102FC0008091F6011816BCF362C09091F501823F22
:102FD00029F497FF5CC01092F50159C0833F19F4A2
:102FE0001916CCF354C0893F41F48091F7011816AB
:102FF0000CF04DC01092F7014AC08A3F29F480912D
:10300000F70187FF44C0F6CF8B3F39F48091F80178
:1030100087FF3DC01092F8013AC08C3F29F480919F
:10302000F8011816BCF333C0843F21F48091F401F9
:103030008E7F17C0853F21F48091F4018D7F11C0F0
:10304000863F21F48091F4018B7F0BC0873F21F4F0
:103050008091F401877F05C0883F31F48091F401AD
:103060008F7E8093F40113C08D3F21F48091F20193
:103070008E7F0BC08E3F21F48091F2018D7F05C0C1
:103080008F3F29F48091F2018B7F8093F201809130
:10309000F50181110EC08091F60181110AC0809165
:1030A000F701811106C08091F801811102C01092D0
:1030B000F301089584EF91E00E94D9090E949B15C5
:1030C0009093F1018093F00108951F93CF93DF93C4
:1030D0008091F0019091F1010E94A715FC012091CF
:1030E000F301222329F090911201892F90E007C06B
:1030F0008091130190E06AE070E00E94541CE81790
:10310000F90708F485C08091F501C091F601D091CE
:10311000F7011091F801811107C0C11175C0D111DB
:1031200073C0111171C074C02F3F19F02F5F20932D
:10313000F301181624F40E94E7168093F50180919C
:10314000F50187FF05C00E94E71681958093F50180
:103150001C1624F40E94E7168093F6018091F60174
:1031600087FF05C00E94E71681958093F601609164
:10317000F501662331F1C091F601CC2311F1062E41
:10318000000C770B880B990B0E94531B23E333E34E
:1031900043E35FE30E94B71B0E941B1B6093F50192
:1031A0006C2FCC0F770B880B990B0E94531B23E3DA
:1031B00033E343E35FE30E94B71B0E941B1B609352
:1031C000F6011D1624F40E9432178093F7018091B6
:1031D000F70187FF05C00E94321781958093F701A0
:1031E000111624F40E9432178093F8018091F8019F
:1031F00087FF05C00E94321781958093F801DF9107
:10320000CF911F910C945A182F3F09F08FCF97CF71
:10321000DF91CF911F910895E4EFF1E085E0DF01A8
:103220001D928A95E9F71092F3011092F201089528
:10323000833081F128F4813059F08230D1F0089543
:10324000853009F449C0B8F1863009F456C00895B4
:1032500080911301262F30E0280F311D2F3F3105BB
:1032600024F4680F6093130108958FEF8093130186
:10327000089580911201262F30E0280F311D2F3F35
:10328000310524F4680F6093120108958FEF809345
:103290001201089580911101262F30E0280F311D71
:1032A0002F3F310524F4680F6093110108958FEFCB
:1032B00080931101089580911001262F30E0280F8E
:1032C000311D2F3F310524F4680F609310010895DC
:1032D0008FEF80931001089580910F01262F30E029
:1032E000280F311D2F3F310524F4680F60930F0123
:1032F00008958FEF80930F01089580910E01262F7E
:1033000030E0280F311D2F3F310524F4680F609302
:103310000E0108958FEF80930E010895833011F10F
:1033200028F4813049F0823091F00895853081F1A0
:1033300020F18630C1F1089580911301681720F4BF
:10334000861B8093130108951092130108958091B4
:103350001201681720F4861B8093120108951092C1
:103360001201089580911101681720F4861B809343
:1033700011010895109211010895809110016817AC
:1033800020F4861B80931001089510921001089577
:1033900080910F01681720F4861B80930F01089518
:1033A00010920F01089580910E01681720F4861B7A
:1033B00080930E01089510920E0108950F931F93AC
:1033C0008732D8F58E3108F080C08E3009F465C0A0
:1033D00098F4873009F456C08B3009F48AC08630DF
:1033E00009F089C08091EA01817F8E7F8093EA0194
:1033F00081E08093FA0180C0863109F47AC068F4D4
:10340000803109F078C08091EA0183FB222720F9FE
:1034100091E0922790FB83F949C0893109F469C092
:103420008B3109F068C08091EA0181FB222720F9E5
:1034300091E0922790FB81F939C0883309F459C093
:1034400040F48932E9F18533D9F1873209F053C06C
:1034500037C08334A9F128F48A3308F44CC0895367
:1034600035C0883409F047C00E943A0F0FEF13EDC2
:1034700020E3015010402040E1F700C000000E940E
:10348000F61537C09091EA01892F817090FF12C024
:10349000917F9E7F9093EA012FC08091EA0182FB89
:1034A000222720F991E0922790FB82F98093EA018C
:1034B0009923F9F08091EA0181608093EA0119C0B3
:1034C00061E070E080E090E010C08D5141E050E09C
:1034D00060E070E08A019B0104C0000F111F221FF1
:1034E000331F8A95D2F7C901B8010E9441130E9487
:1034F0003A0F81E001C080E01F910F91089580E0B4
:10350000089580E00895CF93C82F8091FA0181300B
:1035100069F018F08230C9F184C0E0910C01F0919B
:103520000D018081823209F07EC007C0E0910C015C
:10353000F0910D018081823261F48C2F0E947F1AFC
:10354000811104C08C2F0E94DE191DC081E090E023
:103550001AC08C2F0E94811A811114C0C43179F0D5
:1035600048F4CB3079F0C03109F061C082E080933B
:10357000FA0108C0C93219F0C83321F058C01092BE
:10358000FA0155C081E0817054C0C93291F120F533
:10359000C43179F1B0F4C73009F047C08EE18093AF
:1035A000130182E3809312018AE08093110184E188
:1035B0008093100188E080930F0188E280930E01D0
:1035C00034C0CE51C63088F5EC2FF0E0ED5DFE4FF3
:1035D00080818093F90129C0CE34E9F020F4CB3406
:1035E00021F56AE013C0C13579F0C235F1F461E02C
:1035F0000DC08091F901882319F01092F90115C0CE
:1036000081E08093FA0115C061E006C08091F90164
:103610000E9418190AC06AE08091F9010E948E196F
:1036200004C01092FA0180E004C081E002C080E092
:10363000AACFCF9108950E94221B6894B1110C94D7
:10364000B11B08950E94961B88F09F5798F0B92FE0
:103650009927B751B0F0E1F0660F771F881F991FC7
:103660001AF0BA95C9F714C0B13091F00E94B01B9E
:10367000B1E008950C94B01B672F782F8827B85FAE
:1036800039F0B93FCCF3869577956795B395D9F71F
:103690003EF490958095709561957F4F8F4F9F4F29
:1036A0000895E89409C097FB3EF490958095709535
:1036B00061957F4F8F4F9F4F9923A9F0F92F96E97E
:1036C000BB279395F695879577956795B795F111F3
:1036D000F8CFFAF4BB0F11F460FF1BC06F5F7F4F90
:1036E0008F4F9F4F16C0882311F096E911C07723A2
:1036F00021F09EE8872F762F05C0662371F096E8AB
:10370000862F70E060E02AF09A95660F771F881F79
:10371000DAF7880F9695879597F9089557FD905891
:10372000440F551F59F05F3F71F04795880F97FB85
:10373000991F61F09F3F79F087950895121613063F
:103740001406551FF2CF4695F1DF08C0161617066E
:103750001806991FF1CF86957105610508940895A3
:10376000E894BB2766277727CB0197F908950E9435
:10377000C91B0C94431C0E94351C38F00E943C1C51
:1037800020F0952311F00C942C1C0C94321C0C94FA
:10379000B11B0E948E1B78F39923C9F35523B9F30B
:1037A000950F50E0551FAA27EE27FF27BB270024BF
:1037B0000894679520F4E20FF31FB41F0A1E220F2E
:1037C000331F441FAA1F6695A9F7779530F4F30FAE
:1037D000B41F0A1E121E08F46395330F441FAA1F5C
:1037E000221F769599F7879520F4B40F0A1E121EB2
:1037F000631F440FAA1F221F331F8695A9F7862F28
:10380000712D602D11249F5750409AF0F1F08823BC
:103810004AF0EE0FFF1FBB1F661F771F881F9150D6
:103820005040A9F79E3F510580F00C942C1C0C943D
:10383000B11B5F3FE4F3983ED4F386957795679587
:10384000B795F795E7959F5FC1F7FE2B880F911D00
:103850009695879597F9089597F99F6780E870E0A6
:1038600060E008959FEF80EC089500240A941616F6
:10387000170618060906089500240A94121613065E
:10388000140605060895092E0394000C11F48823EC
:1038900052F0BB0F40F4BF2B11F460FF04C06F5F08
:1038A0007F4F8F4F9F4F08950024552704C0080E67
:1038B000591F880F991F009729F076956795B8F3DF
:1038C0007105B9F7802D952F089597FB072E16F4F3
:1038D000009407D077FD09D00E947F1C07FC05D01B
:1038E0003EF4909581959F4F0895709561957F4F17
:1038F0000895EE0FFF1F0590F491E02D0994AA1B87
:10390000BB1B51E107C0AA1FBB1FA617B70710F0CA
:10391000A61BB70B881F991F5A95A9F780959095FC
:0A392000BC01CD010895F894FFCF1B
:10392A00057103FF03DC03A803740301E0012808FF
:10393A00140A321E404D360503B80282022E02478F
:0E394A000260020102030405060708090000DE
:00000001FF
