:100000000C9419010C945D010C945D010C945D013C
:100010000C945D010C945D010C945D010C945D01E8
:100020000C945D010C945D010C945D010C947506BB
:100030000C945D010C94EE140C945D010C945D0124
:100040000C945D010C945D010C945D010C945515AC
:100050000C945D010C945D010C945D010C945D01A8
:100060000C945D010C945D010C945D010C945D0198
:100070000C945D0147076907540869075408AB07EA
:10008000CE07540823083608B10AB10ADF0ADF0A8E
:10009000340B700B610D610D880B610D7F0C7F0CB3
:1000A0003B0D610D610D4F0DF1A104050607080917
:1000B0000A3A3B3C3D3E3F40220346006900720045
:1000C000650066006C0079002000320030003100CD
:1000D00034003100300032003400000028034200B8
:1000E00061007400680072006F006F006D002000F6
:1000F0004500700069007000680061006E006900D2
:1001000065007300000004030904090254000301A0
:1001100000A03209040000010301010009211101BE
:100120000001223F000705810308000A09040100BD
:100130000103010200092111010001224D00070500
:10014000820308000A0904020001030000000921DB
:10015000110100012236000705830308000A12017D
:10016000100100000008EDFE5060040101020001D2
:1001700005010980A101850216010026B7001A01B8
:10018000002AB700751095018100C0050C0901A176
:10019000018503160100269C021A01002A9C0275A3
:1001A0001095018100C005010902A1010901A1000A
:1001B000050919012905150025019505750181021B
:1001C0009501750381010501093009311581257FEC
:1001D00095027508810609381581257F95017508F6
:1001E0008106050C0A38021581257F950175088165
:1001F00006C0C005010906A101050719E029E71598
:100200000025019508750181029501750881010598
:10021000081901290595057501910295017503914C
:10022000010507190029FF150025FF9506750881AE
:1002300000C011241FBECFEFD4E0DEBFCDBF04B697
:1002400003FE24C08091BD019091BE01A091BF0129
:10025000B091C0018730904BA740B04BB9F41092D9
:10026000BD011092BE011092BF011092C00114BED8
:1002700084B7877F84BF88E10FB6F89480936000CD
:10028000109260000FBEE0E0F8E3099511E0A0E0F5
:10029000B1E0E6E6F6E302C005900D92AE32B1079A
:1002A000D9F721E0AEE2B1E001C01D92AD3BB2074B
:1002B000E1F70E94C8030C94311B0C940000282F16
:1002C000E72FF0E0862F90E0223010F4820F911D8E
:1002D00067E070E00E94F21AE80FF91FE655FF4F41
:1002E00084910895803C29F4E8EAF0E085919491A6
:1002F000089580E090E0089584B1817F84B987B14A
:100300008B7E87B98AB1837F8AB985B18E6085B9C2
:1003100088B1846188B98BB18E608BB9E5E3F1E077
:10032000AEE2B1E011921D9281E0EC33F807D1F713
:1003300008951F93CF93DF9380E18A95F1F786B1FB
:100340008295817091E089271B9B02C020E001C04B
:1003500022E0822B1A9B02C020E001C024E0282B5F
:10036000199B02C090E001C098E0922B4B9B02C009
:1003700030E001C030E1392B4A9B02C020E001C0CF
:1003800020E2232B329B02C090E001C090E4292B95
:10039000A0910001EEE2F1E080E090E041E050E069
:1003A000622F772767FD7095D1E0B0811B2F117008
:1003B0009A01082E02C0220F331F0A94E2F7262367
:1003C0003723C1E0232B09F4C0E01C1719F0BD2727
:1003D000B083A5E0019631968730910531F7A0935F
:1003E0000001AA23B1F0A150A0930001AA2339F083
:1003F0008FE99FE00197F1F700C000000AC0A5E374
:10040000B1E0EEE2F1E081918D9391E0E533F907FF
:10041000D1F781E0DF91CF911F910895E82FF0E0AF
:10042000EB5CFE4F80810895CF93DF93C5E3D1E06D
:10043000699170E080E090E00E948F1481E0CC33FD
:10044000D807B1F7DF91CF910895279A97B19066B9
:1004500097B981FF02C0469801C0469A80FF02C04A
:10046000459801C0459A82FF02C02F9808952F9A9F
:100470000895809144010895CF93DF9300D01F9297
:10048000CDB7DEB72091B401243019F523E02983DC
:100490009B838A832093E9008FEF9091E80081503D
:1004A00095FD06C095ED9A95F1F700008111F5CF05
:1004B0008091E80085FF0DC040E050E063E070E00F
:1004C000CE0101960E947A048091E8008E77809395
:1004D000E8000F900F900F90DF91CF910895CF9388
:1004E000DF9300D01F92CDB7DEB72091B401243046
:1004F00021F522E029839B838A8383E08093E900AE
:100500008FEF9091E800815095FD06C095ED9A958A
:10051000F1F700008111F5CF8091E80085FF0DC053
:1005200040E050E063E070E0CE0101960E947A0462
:100530008091E8008E778093E8000F900F900F90E5
:10054000DF91CF9108952091B4012430F1F422E09D
:100550002093E9002FEF3091E800215035FD06C0CF
:1005600035ED3A95F1F700002111F5CF2091E80023
:1005700025FF0BC040E050E065E070E00E947A0487
:100580008091E8008E778093E8000895CF93DF9301
:10059000EC018091B401843039F581E08093E90069
:1005A0008FEF9091E800815095FD06C095ED9A95EA
:1005B000F1F700008111F5CF8091E80085FF14C0AC
:1005C00040E050E068E070E0CE010E947A04809143
:1005D000E8008E778093E80088E0FE01ACE3B1E0AC
:1005E00001900D928A95E1F7DF91CF910895809166
:1005F000B301811109C00E9412060E946506809114
:10060000E20084608093E20008951092B30108959F
:10061000089542E061EC81E00E948C0542E061ECCB
:1006200082E00E948C0542E061EC83E00C948C0532
:100630008091B601833009F453C030F4813071F0F9
:10064000823009F48CC008958A3009F478C08B3068
:1006500009F45EC0893009F09AC020C08091B501CC
:10066000813A09F094C08091E800877F8093E80088
:100670008091B9019091BA01892B21F060E080E06E
:1006800090E003C068E08CE391E070E00E94C50454
:100690008091E8008B778093E80008958091B50100
:1006A000813209F074C08091B9019091BA01892B0F
:1006B00009F06DC08091E800877F8093E800809109
:1006C000E80082FD05C08091B4018111F8CF5FC0C0
:1006D0008091F100809344018091E8008B7753C0B2
:1006E0008091B501813A09F052C08091B901909191
:1006F000BA01892B09F04BC08091E800877F809375
:10070000E8008091E80080FFFCCF80910B0136C0AB
:100710008091B5018132D9F58091B9019091BA01EA
:10072000892BA9F58091E800877F8093E8000E94DB
:10073000C1058091B70180930B010C94820D8091CB
:10074000B501813221F58091E800877F8093E80030
:100750000E94C1058091B801809345010895809160
:10076000B501813AA1F48091E800877F8093E80089
:100770008091E80080FFFCCF809145018093F100DB
:100780008091E8008E778093E8000C94C10508956D
:1007900084B7877F84BF88E10FB6F89480936000A8
:1007A000109260000FBE90E080E80FB6F89480933E
:1007B0006100909361000FBE0E94DE080E94120645
:1007C0000E9465068091E20084608093E200789444
:1007D0008091B401843019F00E946D08F9CF0E9415
:1007E000E00881E091E00E948A088091B4018530A0
:1007F00069F40E94B1148091B2018823B1F30E9480
:10080000D914882391F30E946404EFCF0E94E40876
:100810000E946D08EACF292F332723303105A9F034
:100820006CF42130310509F442C02230310509F061
:1008300043C084E590E02AE031E042C02132310536
:10084000C9F02232310519F137C09927813091055D
:1008500041F08230910541F0892B71F5E6E0F1E03D
:1008600005C0ECEDF0E002C0E8EBF0E0849190E030
:100870009F0126C0633000F5E62FF0E0EE0FFF1F6A
:10088000E35EFE4F2081318189E090E019C0633042
:1008900098F4E62FF0E0DF01AA0FBB1FA95EBE4F60
:1008A0002D913C91EC5EFE4F808190E009C082E189
:1008B00090E02EE531E004C080E090E020E030E000
:1008C000FA0131832083089584E089BD86E089BDE3
:1008D00009B400FEFDCF8091D8008F7D8093D800B1
:1008E0008091E00082608093E0008091E00081FDD3
:1008F000FCCF0895CF92DF92EF92FF920F931F9358
:10090000CF93DF937C018B01EA010E94E205811104
:1009100033C0209731F088819981081B190BE80EAC
:10092000F91EC12CD12C0115110529F18091E80087
:1009300085FD16C08091E8008E778093E8000E94C4
:100940006D08209741F0888199818C0D9D1D9983B8
:10095000888385E011C00E94E205882321F30CC042
:10096000F70181917F018093F10001501109FFEFA0
:10097000CF1ADF0AD8CF80E0DF91CF911F910F917E
:10098000FF90EF90DF90CF9008952091BB013091C0
:10099000BC012617370748F06115710539F420911D
:1009A000E8002E772093E80001C0B90120E061152E
:1009B0007105D1F13091B401332309F443C03530CE
:1009C00009F442C03091E80033FD40C03091E800A6
:1009D00032FF06C08091E80082FF29C080E00895C0
:1009E0003091E80030FFE3CF2091F20030E0FC01CD
:1009F000281B390BCF01820F931F6115710549F038
:100A00008830910530F481918093F1006150710933
:100A1000F1CF21E0089709F020E08091E8008E777F
:100A20008093E800CF01C3CF2111C4CFD3CF8091F1
:100A3000B401882339F0853039F08091E80083FFD4
:100A4000C9CF04C082E0089583E0089581E008954D
:100A50002091BB013091BC012617370748F0611582
:100A6000710539F42091E8002E772093E80001C049
:100A7000B90120E061157105D9F13091B40133233A
:100A800009F444C0353009F443C03091E80033FD27
:100A900041C03091E80032FF06C08091E80082FF3B
:100AA0002AC080E008953091E80030FFE3CF209124
:100AB000F20030E0FC01281B390BC9018E0F9F1F8B
:100AC0006115710551F08830910538F48491809357
:100AD000F100319661507109F0CF21E0089709F0DB
:100AE00020E08091E8008E778093E800CF01C2CFAC
:100AF0002111C3CFD2CF8091B401882339F0853042
:100B000039F08091E80083FFC8CF04C082E00895E7
:100B100083E0089581E00895982F953058F59093DB
:100B2000E900981739F07091EC002091ED00509198
:100B3000F00003C0242F762F50E021FF19C0309120
:100B4000EB003E7F3093EB003091ED003D7F309322
:100B5000ED003091EB0031603093EB007093EC00CE
:100B60002093ED005093F0002091EE0027FF07C086
:100B70009F5FD3CF8F708093E90081E0089580E07C
:100B800008958091B50187FD05C08091E80080FF40
:100B90000EC012C08091E80082FD05C08091B401B2
:100BA0008111F8CF08958091E8008B7708C080917B
:100BB000B4018111EACF08958091E8008E77809387
:100BC000E80008958091E4009091E50045E62091C9
:100BD000EC0020FF21C02091E80020FD21C02091E1
:100BE000B401222389F0253089F02091EB0025FD06
:100BF0000FC02091E4003091E5002817390739F340
:100C0000415041F0C901E3CF82E0089583E00895A7
:100C100081E0089584E008952091E80022FFDFCF6D
:100C200080E008950E946F060E947206E0EEF0E0F8
:100C3000808181608083E8EDF0E080818F77808320
:100C400019BCE3E6F0E08081816080831092B301FB
:100C500008950E946F060E9472068091D8008F77D7
:100C60008093D8008091D80080688093D8008091CC
:100C7000D8008F7D8093D80084E089BD86E089BD4F
:100C800009B400FEFDCF1092B4011092B001109291
:100C9000B2011092B10142E060E080E00E948C0558
:100CA0008091E1008E7F8093E1008091E20081607D
:100CB0008093E2008091E20088608093E20080915E
:100CC000E0008E7F8093E0000895E3E6F0E080810D
:100CD0008E7F808381E08093B3010C94290610926B
:100CE000E20008951092E10008951F920F920FB64E
:100CF0000F9211242F933F934F935F936F937F93A2
:100D00008F939F93AF93BF93EF93FF938091E100F5
:100D100082FF0BC08091E20082FF07C08091E1005A
:100D20008B7F8093E1000E946C088091E10080FF3E
:100D300018C08091E20080FF14C08091E2008E7F95
:100D40008093E2008091E20080618093E2008091D4
:100D5000D80080628093D80019BC1092B4010E9420
:100D600005038091E10084FF30C08091E20084FFA0
:100D70002CC084E089BD86E089BD09B400FEFDCFAA
:100D80008091D8008F7D8093D8008091E1008F7E84
:100D90008093E1008091E2008F7E8093E200809159
:100DA000E20081608093E2008091B001882311F01D
:100DB00084E007C08091E30087FF02C083E001C0A8
:100DC00081E08093B4010E94F7028091E10083FFEB
:100DD00024C08091E20083FF20C08091E100877FE2
:100DE0008093E10082E08093B4011092B001809181
:100DF000E1008E7F8093E1008091E2008E7F8093FE
:100E0000E2008091E20080618093E20042E060E0D5
:100E100080E00E948C050E940803FF91EF91BF9132
:100E2000AF919F918F917F916F915F914F913F9182
:100E30002F910F900FBE0F901F9018951F93CF9377
:100E4000DF93CDB7DEB7AA970FB6F894DEBF0FBE1B
:100E5000CDBFE5EBF1E08091F100819321E0ED3B26
:100E6000F207C9F70E9418038091E80083FF1CC1B4
:100E70002091B5013091B601832F90E08A30910521
:100E800008F012C1FC01E65CFF4F0C94171B2038E0
:100E900081F0223809F008C18091B9018F708093E8
:100EA000E9008091EB0085FB882780F91092E9002A
:100EB00006C08091B1019091B20191118260909130
:100EC000E800977F9093E8008093F1001092F10082
:100ED000C5C0822F8D7F09F0E7C0222319F0223090
:100EE00061F0E2C08091B701813009F0DDC033309C
:100EF00009F080E08093B20128C08091B701811190
:100F000024C02091B9012F7009F4CEC02093E900CC
:100F10008091EB0080FF19C08091EB00333011F419
:100F2000806211C080618093EB0081E090E0022E2E
:100F300001C0880F0A94EAF78093EA001092EA0051
:100F40008091EB0088608093EB001092E900809123
:100F5000E800877F86C02111A7C01091B7011F77D5
:100F60008091E3008078812B8093E3008091E800FA
:100F7000877F8093E8000E94C1058091E80080FF90
:100F8000FCCF8091E30080688093E300112311F08F
:100F900083E001C082E08093B40186C020582230F3
:100FA00008F082C08091B7019091B8018C3D23E098
:100FB000920779F583E08A838AE289834FB7F894B0
:100FC000DE01139620E03EE051E2E32FF0E0509383
:100FD0005700E49120FF03C0E295EF703F5FEF7090
:100FE0008E2F90E0EA3010F0C79601C0C0968D9326
:100FF0009D932F5F243149F74FBF8091E800877F91
:101000008093E8006AE270E0CE0101960E94C50478
:1010100014C0AE014F5F5F4F6091B9010E940B0495
:10102000009709F441C02091E800277F2093E80051
:10103000BC0189819A810E9428058091E8008B7704
:101040008093E80031C0203879F58091E800877FEF
:101050008093E8008091B0018093F1008091E800D6
:101060008E778093E8000E94C1051EC021111CC02C
:101070009091B7019230C0F48091E800877F80930F
:10108000E8009093B0010E94C1058091B0018111E8
:1010900004C08091E30087FF02C084E001C081E0CA
:1010A0008093B4010E9409038091E80083FF0AC085
:1010B0008091E800877F8093E8008091EB00806258
:1010C0008093EB00AA960FB6F894DEBF0FBECDBF9B
:1010D000DF91CF911F9108950895CF938091B4012E
:1010E0008823B1F08091E9008F709091EC0090FF1F
:1010F00002C090E801C090E0C92FC82B1092E9000F
:101100008091E80083FD0E941E07CF70C093E90024
:10111000CF91089590934B0180934A010895E091F7
:101120004A01F0914B01309721F00190F081E02DC0
:10113000099480E00895E0914A01F0914B013097C5
:1011400021F00280F381E02D09940895E0914A0195
:10115000F0914B01309721F00480F581E02D099446
:10116000089520914801309149018217930771F049
:101170009093490180934801E0914A01F0914B011D
:10118000309721F00680F781E02D09940895209191
:101190004601309147018217930771F09093470100
:1011A00080934601E0914A01F0914B01309721F084
:1011B0000084F185E02D0994089508950C94DD08CC
:1011C0000E9417150C947C01CF92DF92EF92FF9250
:1011D0000F931F93CF93DF93CDB7DEB72B970FB647
:1011E000F894DEBF0FBECDBF0E9499018DE4E82EBA
:1011F00081E0F82E00E010E0C02E802F0E940E0249
:10120000F701D1907F01D82611F190919F0191FFB4
:1012100004C08B870E9414028B85D0FE18C01E82EA
:10122000CF82817088870E9420158160782F9A87ED
:1012300089874E815F8168858A850E946709F801E8
:10124000E35BFE4F808191E08927808315C00F5FAB
:101250001F4F0730110581F68FEF89838A831B8228
:101260000E9420158160782F9D838C8349815A814B
:101270006B818D810E9467090E941C1710914C019F
:101280000E948F081817A1F00E948F0880934C01CC
:101290002B960FB6F894DEBF0FBECDBFDF91CF9176
:1012A0001F910F91FF90EF90DF90CF900C9425024B
:1012B0002B960FB6F894DEBF0FBECDBFDF91CF9156
:1012C0001F910F91FF90EF90DF90CF900895CF93F3
:1012D000DF93CDB7DEB72B970FB6F894DEBF0FBE06
:1012E000CDBF4F83588769877A878B87DE01119638
:1012F00086E0FD0111928A95E9F785E0FE013796B7
:1013000001900D928A95E1F749815A816B817C8128
:101310008D819E810E944F102B960FB6F894DEBFF0
:101320000FBECDBFDF91CF910895CF93C82F8823F3
:1013300009F498C08CEF8C0F813A48F48C2F0E94EE
:10134000331981118FC08C2F0E94F1120CC080E2E2
:101350008C0F883058F4C77081E001C0880FCA959F
:10136000EAF70E943313CF910C946C138BE58C0F2A
:10137000833078F4C53A29F0C63A31F482E890E037
:1013800005C081E890E002C083E890E0CF910C9422
:10139000B10888E58C0F833108F064C0C83A39F190
:1013A000C93A41F1CA3A49F1CB3A51F1CC3A59F133
:1013B000CD3A61F1C03B69F1CE3A71F1CF3A79F1A2
:1013C000C13B81F1C23B89F1C33B91F1C43B99F12F
:1013D000C53BA1F1C63BA9F1C73BB1F1C83BB9F18F
:1013E000C93BC1F1CA3BC9F58AE292E038C082EE3E
:1013F00090E035C089EE90E032C08AEE90E02FC0D8
:1014000085EB90E02CC086EB90E029C087EB90E064
:1014100026C08CEC90E023C08DEC90E020C083E8E7
:1014200091E01DC08AE891E01AC082E991E017C0FE
:1014300084E991E014C081E292E011C083E292E07D
:101440000EC084E292E00BC085E292E008C086E222
:1014500092E005C087E292E002C080E090E0CF9188
:101460000C94C708CF910895882329F19CEF980F19
:10147000913A18F40E9412130DC090E2980F983020
:1014800058F4877091E001C0990F8A95EAF7892F87
:101490000E9439130C946C139BE5980F933020F441
:1014A00080E090E00C94B108885A833120F480E009
:1014B00090E00C94C7080895882321F00E9433130C
:1014C0000C946C130895882321F00E9439130C9416
:1014D0006C130895CF92DF92EF92FF920F931F93B8
:1014E000CF93DF93CDB7DEB728970FB6F894DEBF62
:1014F0000FBECDBF8C0185E0F801DE011196019091
:101500000D928A95E1F7F80140813181F2802581C1
:1015100022952F7083819481892B31F03F3F31F4E4
:1015200081E04F3F19F403C081E001C080E080FDFD
:10153000C8C249833A8389819A812F830E94AF125E
:101540009E8388870E94AE120E9481114E81E42FF3
:10155000E295EF70F0E0EC5BFF4F2F8168850C9413
:10156000171B842F807F142F1F70882311F0129572
:10157000107FFF2059F0112309F458C2812F68878A
:101580000E9443130E946C13688550C2862F0E94EC
:10159000340A112309F495C2812F0E944913289619
:1015A0000FB6F894DEBF0FBECDBFDF91CF911F9174
:1015B0000F91FF90EF90DF90CF900C946C13342F2D
:1015C000307F842F8F70303211F08295807F6623B8
:1015D00019F0613009F12AC0FF20A1F0222381F126
:1015E000213071F528960FB6F894DEBF0FBECDBF3F
:1015F000DF91CF911F910F91FF90EF90DF90CF90EF
:101600000C945313222319F0213009F45AC28E830B
:101610000E9456138E818EC1FF2021F0263008F0E3
:1016200050C20EC0253008F04CC284C1FF20C1F06A
:10163000222331F0F801958190FFF8C19F709583C6
:1016400028960FB6F894DEBF0FBECDBFDF91CF91C5
:101650001F910F91FF90EF90DF90CF900C945C0A58
:10166000222309F467C1F6C1242F269526952370FD
:1016700030E02115310521F021303105C9F021C2BA
:10168000FF2021F0862F942F937002C080E090E01D
:1016900028960FB6F894DEBF0FBECDBFDF91CF9175
:1016A0001F910F91FF90EF90DF90CF900C94B108B5
:1016B000FF2021F0862F942F937002C080E090E0ED
:1016C00028960FB6F894DEBF0FBECDBFDF91CF9145
:1016D0001F910F91FF90EF90DF90CF900C94C7086F
:1016E000862FFF2019F00E94241602C00E948C163B
:1016F00028960FB6F894DEBF0FBECDBFDF91CF9115
:101700001F910F91FF90EF90DF90CF900C941117E5
:10171000842F837009F076C0F110D3C1262F229553
:1017200026952770220F220F862F8F70C82ED12C5E
:10173000E12CF12C022E04C0CC0CDD1CEE1CFF1C95
:101740000A94D2F764FF10C06FE070E080E090E090
:1017500004C0660F771F881F991F2A95D2F76095DE
:1017600070958095909503C060E070E0CB01242FC8
:10177000269526952370422F50E042305105D1F036
:101780004330510559F16C297D298E299F2941301B
:10179000510541F128960FB6F894DEBF0FBECDBFBC
:1017A000DF91CF911F910F91FF90EF90DF90CF903D
:1017B0000C94A6116C297D298E299F2928960FB695
:1017C000F894DEBF0FBECDBFDF91CF911F910F9177
:1017D000FF90EF90DF90CF900C94C0110E94A61163
:1017E000C701B60128960FB6F894DEBF0FBECDBF75
:1017F000DF91CF911F910F91FF90EF90DF90CF90ED
:101800000C948C11FF2019F0842F817001C08695F3
:10181000882309F456C1262F229526952770220F7A
:10182000220F862F8F70C82ED12CE12CF12C022E86
:1018300004C0CC0CDD1CEE1CFF1C0A94D2F764FF24
:1018400010C06FE070E080E090E004C0660F771F8A
:10185000881F991F2A95D2F760957095809590956D
:1018600003C060E070E0CB01242F269526952370FD
:10187000422F50E042305105D1F04330510559F12B
:101880006C297D298E299F294130510541F12896E7
:101890000FB6F894DEBF0FBECDBFDF91CF911F9181
:1018A0000F91FF90EF90DF90CF900C947A126C29FB
:1018B0007D298E299F2928960FB6F894DEBF0FBE8A
:1018C000CDBFDF91CF911F910F91FF90EF90DF90EF
:1018D000CF900C9494120E947A12C701B6012896F8
:1018E0000FB6F894DEBF0FBECDBFDF91CF911F9131
:1018F0000F91FF90EF90DF90CF900C946012603FBB
:1019000049F118F4603E48F48CC0623F09F451C0BC
:10191000E0F1633F09F461C084C0162F1F70842F6B
:101920008F71FF2021F00E94F911812F89CE0E9432
:101930001A12812F28960FB6F894DEBF0FBECDBFC6
:10194000DF91CF911F910F91FF90EF90DF90CF909B
:101950000C94630AFF20A9F0253008F0B2C0842F50
:101960008F7128960FB6F894DEBF0FBECDBFDF9102
:10197000CF911F910F91FF90EF90DF90CF900C943B
:101980003F12263008F09DC0EACFFF20A1F0842F3F
:101990008F7128960FB6F894DEBF0FBECDBFDF91D2
:1019A000CF911F910F91FF90EF90DF90CF900C940B
:1019B000F911FF2061F3842F8F7128960FB6F894E8
:1019C000DEBF0FBECDBFDF91CF911F910F91FF9072
:1019D000EF90DF90CF900C941A12FF2091F0842F9B
:1019E0008F7128960FB6F894DEBF0FBECDBFDF9182
:1019F000CF911F910F91FF90EF90DF90CF900C94BB
:101A0000E41128960FB6F894DEBF0FBECDBFDF916C
:101A1000CF911F910F91FF90EF90DF90CF900C949A
:101A2000DA11FF20A1F0222309F4B1CF862F2896E6
:101A30000FB6F894DEBF0FBECDBFDF91CF911F91DF
:101A40000F91FF90EF90DF90CF900C949509222397
:101A500009F4B1CF862F28960FB6F894DEBF0FBEDB
:101A6000CDBFDF91CF911F910F91FF90EF90DF904D
:101A7000CF900C94340A4F70C8010E9460142896CD
:101A80000FB6F894DEBF0FBECDBFDF91CF911F918F
:101A90000F91FF90EF90DF90CF900C9401114F7059
:101AA000C80128960FB6F894DEBF0FBECDBFDF91F8
:101AB000CF911F910F91FF90EF90DF90CF900C94FA
:101AC000631428960FB6F894DEBF0FBECDBFDF912A
:101AD000CF911F910F91FF90EF90DF90CF900895DD
:101AE0000E9450130E9425130E946C130E94BF177E
:101AF0000E94111780E090E00E94B10880E090E021
:101B00000C94C7080E9440130C94700D0E94AF12F1
:101B1000292F22952F7030E02C3031054CF42A30DB
:101B200031056CF4225031092230310590F407C0A0
:101B30002C30310551F02F30310539F00AC0803E8C
:101B400010F0803F31F481E0089593FB882780F9FD
:101B5000089580E00895CF93DF9300D000D01F92C6
:101B6000CDB7DEB70F900F900F900F900F90DF91D1
:101B7000CF910895CF93DF9300D000D000D0CDB7A0
:101B8000DEB726960FB6F894DEBF0FBECDBFDF914D
:101B9000CF910895CF93DF93C09154018091550167
:101BA000C817A1F0D0E0CE0166E070E00E94F21A02
:101BB000FC01EA5AFE4F4081518162817381848128
:101BC00095810E94BA0D2196C770E8CFDF91CF9121
:101BD000089540918601509187016091880170912C
:101BE000890180918A0190918B010C94BA0D1F9309
:101BF000CF93DF9380918B0182958F7009F060C045
:101C000080918801882309F45BC0A0915401D09190
:101C1000550140918601C091870120918901309141
:101C20008A0181E04F3F09F080E0182FAD1709F4D9
:101C300047C02115310521F0CF3F21F4812F03C08A
:101C400081E001C080E0B0E080FD37C0CD0166E0FA
:101C500070E00E94F21AFC01EA5AFE4F8181C8131B
:101C60002CC08081481329C08281811126C08381C4
:101C700094818217930708F40197821B930B883C89
:101C80009105D8F480918B018F70806180938B01D6
:101C9000CD0166E070E00E94F21AFC01E55AFE4FA9
:101CA00080818F708061808386E891E00E946A0A5B
:101CB000DF91CF911F910C94CA0D1196A770B6CFEA
:101CC000DF91CF911F910895BF92CF92DF92EF9253
:101CD000FF920F931F93CF93DF93CDB7DEB761973A
:101CE0000FB6F894DEBF0FBECDBF8C0185E0F801C2
:101CF000DE011D9601900D928A95E1F7D8014C9175
:101D00001196AC91F801C280E380F4805091860175
:101D1000609187012091890130918A012115310557
:101D200031F06F3F31F481E05F3F19F403C081E08F
:101D300001C080E0F82FF170BF2E80FD6DC1D09002
:101D40008801DD2009F4F4C070918B01E216F306DE
:101D500038F0C701821B930B883C910548F099C06D
:101D6000209530952E0D3F1D283C310508F091C07F
:101D7000872F807F09F054C06A1315C0541313C015
:101D8000DC2CC11010C07F70706170938B010E94B9
:101D9000E90D86E891E00E946A0A80918B01D801E2
:101DA00015968C936BC1EF2831F0AF3F31F481E091
:101DB0004F3F19F403C081E001C080E080FD03C003
:101DC00081E08C2501C080E0B82FB170FB2E80FF30
:101DD0001DC020915401B09155012B1709F429C160
:101DE00030E0C90166E070E00E94F21AFC01EA5A94
:101DF000FE4F8181A81306C08081481303C08281F1
:101E0000C81204C02F5F3F4F2770E7CFDC2CCC20D7
:101E100009F434C180918B01816080938B0151C0A2
:101E20006A1308C0541306C0C11004C0D801159627
:101E30007C93ABC04D87AE878D859E850E94860DB5
:101E4000882319F1DC2CCC2001F120918B01822F09
:101E500082958F7090E002970CF45FC080918601AC
:101E60009091870198878F831986FB86EA862C8755
:101E7000CE01079650C06A1731F14D87AE878D8528
:101E80009E850E94860D81112FC0C8010E946A0A9A
:101E9000A5C0872F807F79F77E2DF98AE88A5A2F8F
:101EA0006C2D89890E94AB0D86E891E00E946A0A38
:101EB000E6E8F1E086E0DF011D928A95E9F70E94ED
:101EC000E90DD12CDBC05413D8CFC110D6CFF80107
:101ED0007583C8010E946A0AE6E8F1E086E0DF0146
:101EE0001D928A95E9F7CAC0DC2CCC2071F22091B2
:101EF0008B01822F82958F7090E0029774F0809111
:101F00008601909187019A8389831B82FD82EC82EE
:101F10002E83CE0101960E946A0A86E0F801A6E8A7
:101F2000B1E001900D928A95E1F70E94F70D71C022
:101F3000E216F30628F0F701E21BF30B9F0104C041
:101F4000209530952E0D3F1D283C310508F052C0DC
:101F5000DC2CCC2009F499CF6A132CC054132AC06E
:101F600080918B0180FD1DC0982F92959F70C9F0C4
:101F7000D80115968C9315979F3039F09F5F9295F5
:101F8000907F8F70892B15968C93C8010E946A0AE6
:101F900086E0F801A6E8B1E001900D928A95E1F79C
:101FA00038C086E0F801A6E8B1E001900D928A956C
:101FB000E1F764C04D87AE878D859E850E94860DB2
:101FC000882379F086E0F801A6E8B1E001900D924F
:101FD0008A95E1F70E94F70D0E94E90DDD24D39464
:101FE0004DC080918B01816080938B01C8010E945C
:101FF0006A0A44C07E2DF98AE88A5A2F6C2D898995
:102000000E94AB0DE6E8F1E086E0DF011D928A95C3
:10201000E9F70E94E90D32C0CC2009F436CF4D8794
:10202000AE878D859E850E94860D882309F42DCF6D
:10203000C9CF4D87AE878D859E850E94AF12292F0F
:1020400022952F7030E0223031052CF49F7041F042
:10205000811106C00CC0243031052CF49F7049F466
:10206000805E883020F0C8010E946A0ABF2CDB2CF9
:1020700005C0F8019581907F99F7F9CF8D2D619674
:102080000FB6F894DEBF0FBECDBFDF91CF911F9189
:102090000F91FF90EF90DF90CF90BF900895CF9376
:1020A000DF93CDB7DEB72C970FB6F894DEBF0FBE27
:1020B000CDBF4F83588769877A878B879C87CE01EE
:1020C00007960E94640E8823C1F02F8138858A8587
:1020D0009B85892B31F03F3F11F080E003C02F3FFB
:1020E000E1F781E081116FC04F81588569857A855C
:1020F0008B859C850E94BA0D66C086E0FE013796EE
:10210000DE01119601900D928A95E1F7FF81E88535
:102110004A855B854115510531F0EF3F31F481E08F
:10212000FF3F19F403C081E001C080E080FD4BC097
:102130008091550190E09C012F5F3F4F277033271E
:102140006091540170E02617370709F443C0F98302
:10215000EA835D834C8366E070E00E94F21ADC0142
:10216000AA5ABE4F86E0FE01319601900D928A95E3
:10217000E1F7209355010E94CA0D25C090E066E06A
:1021800070E00E94F21A8A5A9E4F0E94640E8823C1
:1021900079F18091540190E066E070E00E94F21ABB
:1021A000FC01EA5AFE4F4081518162817381848132
:1021B00095810E94BA0D8091540190E0019687703C
:1021C000992780935401809154019091550189136E
:1021D000D5CF0EC00E94820D10925501109254016D
:1021E000E6E8F1E086E0DF011D928A95E9F7EBCFA2
:1021F0002C960FB6F894DEBF0FBECDBFDF91CF9106
:102200000895EF92FF920F931F93CF93DF93FC01FA
:10221000009709F46FC0F12CEE24E394EF012196AE
:102220008491843740F4843008F055C0813081F0C7
:10223000823021F15FC0853709F447C0C0F19CE7C7
:10224000980F903708F056C08F770E94340A45C027
:102250008F010E5F1F4FFE01849190E2980F98301E
:1022600050F48770FE2D01C0FF0F8A95EAF78F2F7B
:102270000E94431315C00E94950914C08F010E5F80
:102280001F4FFE01849190E2980F983068F4877098
:10229000FE2D01C0FF0F8A95EAF78F2F0E94491388
:1022A0000E946C13E80119C00E94340AFBCFCF01D1
:1022B0000296FE01C491CC2361F0EFE9FFE0319773
:1022C000F1F700C00000C150F6CFCF010296FE0129
:1022D000F490EC0102C00E9495098F2D882341F0F3
:1022E000EFE9FFE03197F1F700C000008150F6CF31
:1022F000FE0194CFDF91CF911F910F91FF90EF904E
:1023000008950895609390017093910180939201D4
:10231000909393010C94700D0F931F930091900173
:10232000109191012091920130919301062B172B6E
:10233000282B392B00939001109391012093920147
:10234000309393011F910F910C94700D0F931F9375
:10235000009190011091910120919201309193018F
:10236000062317232823392300939001109391010A
:1023700020939201309393011F910F910C94700D53
:102380000F931F9300919001109191012091920160
:1023900030919301062717272827392700939001AA
:1023A0001093910120939201309393011F910F910B
:1023B0000C94700D10928C0110928D0110928E0170
:1023C00010928F010C94700D41E050E060E070E0DD
:1023D00004C0440F551F661F771F8A95D2F740939C
:1023E0008C0150938D0160938E0170938F010C943A
:1023F000700D41E050E060E070E004C0440F551FF4
:10240000661F771F8A95D2F780918C0190918D017C
:10241000A0918E01B0918F01842B952BA62BB72B09
:1024200080938C0190938D01A0938E01B0938F01C6
:102430000C94700D41E050E060E070E004C0440F87
:10244000551F661F771F8A95D2F740955095609566
:10245000709580918C0190918D01A0918E01B09129
:102460008F0184239523A623B72380938C01909317
:102470008D01A0938E01B0938F010C94700D41E0FB
:1024800050E060E070E004C0440F551F661F771FE6
:102490008A95D2F780918C0190918D01A0918E0147
:1024A000B0918F0184279527A627B72780938C01A9
:1024B00090938D01A0938E01B0938F010C94700DB9
:1024C0000F931F9300918C0110918D0120918E012B
:1024D00030918F01062B172B282B392B00938C0161
:1024E00010938D0120938E0130938F011F910F91D6
:1024F0000C94700D0F931F9300918C0110918D011E
:1025000020918E0130918F01062317232823392330
:1025100000938C0110938D0120938E0130938F01D5
:102520001F910F910C94700D0F931F9300918C01CC
:1025300010918D0120918E0130918F010627172770
:102540002827392700938C0110938D0120938E0149
:1025500030938F011F910F910C94700D0895CF92BD
:10256000DF92EF92FF920F931F93CF93DF93EC01D3
:10257000C0909001D0909101E0909201F090930171
:1025800080918C0190918D01A0918E01B0918F016D
:10259000C82AD92AEA2AFB2A0FE110E0B701A601CE
:1025A000002E04C076956795579547950A94D2F703
:1025B00040FF07C0BE01802F0E9492138130910519
:1025C00039F40150110950F7BE0180E00E949213C6
:1025D000DF91CF911F910F91FF90EF90DF90CF90FF
:1025E000089540910C0150910D0120E030E09FEFE3
:1025F000FA01E20FF31F6281681799F09F3F19F407
:10260000611101C0922F2F5F3F4F2630310581F7B6
:102610009F3F39F0FA01E90FF11D97FDFA9582838A
:102620000895089540910C0150910D0120E030E093
:10263000FA01E20FF31F9281981301C012822F5FFB
:102640003F4F26303105A1F7089581E090E0E091F9
:102650000C01F0910D01E80FF91F108201968830EE
:102660009105A9F7089590919E01982B90939E0152
:102670000895809590919E01982390939E010895CE
:1026800010929E01089590919D01982B90939D0129
:102690000895809590919D01982390939D010895B0
:1026A00010929D01089580939401089510929401D1
:1026B000089540910C0150910D0120E030E080E040
:1026C000FA01E20FF31F918191118F5F2F5F3F4F4E
:1026D00027303105A9F70895E0910C01F0910D0123
:1026E00080919E018083E0910C01F0910D01808129
:1026F00090919D01892B808390919401992361F0A1
:10270000E0910C01F0910D018081892B80830E9462
:10271000591381111092940180910C0190910D0137
:102720000C949B08CF93DF930E945F0190E4980F75
:10273000903218F40E947201C0C08D3B60F4883A58
:1027400090F5853A38F5843010F5813009F06DC088
:10275000C1E0D0E0B1C0883E98F4803EC0F48F3B29
:1027600009F063C00E94820D2FEF80E792E02150B4
:1027700080409040E1F700C000000E947A159CC0A4
:10278000803F08F452C0C82FD0E0D06595C0C82F54
:10279000D0E092C0853A09F44BC0863A09F04BC0AC
:1027A000C2E8D0E489C0883A09F448C0893A09F4FB
:1027B00048C08A3A09F448C08B3A09F448C08C3AB8
:1027C00009F448C08B3B09F448C08C3B09F448C06D
:1027D0008D3A09F448C0803B09F448C08E3A09F4A8
:1027E00048C08F3A09F448C0813B09F448C0823B95
:1027F00009F448C0833B09F448C0843B09F448C04D
:10280000853B09F448C0863B09F448C0873B09F47E
:1028100048C0883B09F448C0893B09F448C08A3B5A
:1028200009F048C0CAE2D6E447C0C0E0D0E044C0E6
:10283000C1E8D0E441C0C3E8D0E43EC0C2EED4E475
:102840003BC0C9EED4E438C0CAEED4E435C0C5EB11
:10285000D4E432C0C6EBD4E42FC0C3EBD4E42CC024
:10286000C4EBD4E429C0C7EBD4E426C0CCECD4E458
:1028700023C0CDECD4E420C0C3E8D5E41DC0CAE831
:10288000D5E41AC0C2E9D5E417C0C4E9D5E414C040
:10289000C1E2D6E411C0C3E2D6E40EC0C4E2D6E47D
:1028A0000BC0C5E2D6E408C0C6E2D6E405C0C7E264
:1028B000D6E402C0C0E0D4E4CE01DF91CF91089508
:1028C00080E090E0089508958295282F2C7C26952D
:1028D0002695982F9373990F990F922B892F8A7AA7
:1028E00086959575990F892B08951F93CF93DF9344
:1028F0001F92CDB7DEB799830E946414182F998177
:10290000892F0E946414212F30E0322F2227A90141
:10291000482BCA010F90DF91CF911F910895CF925C
:10292000DF92EF92FF92CF93DF936B017C01CB019B
:102930000E947514EC01C7010E9475146C01CE0150
:10294000A0E0B0E077276627E12CF12C6C297D29E7
:102950008E299F29DF91CF91FF90EF90DF90CF904C
:1029600008958091B401843009F11092A00120E40F
:1029700088E190E00FB6F894A895809360000FBEB0
:102980002093600083B7817F846083BF83B78160B9
:1029900083BF7894889583B78E7F83BF88E10FB615
:1029A000F89480936000109260000FBE089508951F
:1029B0000895CF930E94D7140E9499010E94D814C1
:1029C000C0E08C2F0E940E02811105C0CF5FC7307E
:1029D000C1F780E001C081E0CF9108951F920F926E
:1029E0000FB60F9211248F939F93AF93BF93809153
:1029F000A001811113C08091A1019091A201A09129
:102A0000A301B091A4014196A11DB11D8093A10124
:102A10009093A201A093A301B093A401BF91AF91A1
:102A20009F918F910F900FBE0F901F90189582E08D
:102A300084BD93E095BD9AEF97BD80936E00089595
:102A40002FB7F8948091A1019091A201A091A301C8
:102A5000B091A4012FBF0895CF92DF92EF92FF9221
:102A60000F931F932FB7F8944091A1015091A201A9
:102A70006091A3017091A4012FBF6A017B01EE2434
:102A8000FF248C0120E030E0C016D106E206F306F8
:102A900010F441505109481B590BCA011F910F9165
:102AA000FF90EF90DF90CF9008951F920F920FB696
:102AB0000F9211248F939F93AF93BF938091A101A5
:102AC0009091A201A091A301B091A4010196A11D32
:102AD000B11D8093A1019093A201A093A301B09393
:102AE000A401BF91AF919F918F910F900FBE0F9056
:102AF0001F9018950E941206F8942FEF87EA91E62E
:102B0000215080409040E1F700C0000087E090EB4A
:102B1000DC018093BD019093BE01A093BF01B093EF
:102B2000C0012CE088E190E00FB6F894A89580935E
:102B300060000FBE20936000FFCF8091A70180FF4F
:102B40000CC08091110190E065E070E00E94F21AE3
:102B500095958795959587952EC081FF0AC08091A0
:102B6000110190E065E070E00E94F21A959587955A
:102B700022C082FF08C08091110190E065E070E002
:102B80000E94F21A18C02091A8012223D1F030919E
:102B90001001231780F78091110190E065E070E04B
:102BA0000E94F21A622F70E00E94F21A632F70E006
:102BB0000E94031BCB018038910530F4009731F05F
:102BC000089585E090E008958FE7089581E00895E5
:102BD0008091A70180FF08C060910F0170E075959A
:102BE00067957595679524C081FF06C060910F01B8
:102BF00070E0759567951CC082FF04C060910F015D
:102C000070E013C09091A8019923D9F020910E0192
:102C10009217A0F780910F01692F70E090E00E9459
:102C2000F21A622F70E00E94031B6038710528F4CD
:102C30006115710521F0862F08958FE7089581E0D1
:102C4000089561E070E0F4CF803F21F40E949D156B
:102C5000819504C0813F29F40E949D158093AB01AA
:102C60000895823F21F40E949D15819504C0833F01
:102C700029F40E949D158093AA010895893F19F4B3
:102C80000E94E81505C08A3F31F40E94E81581953D
:102C90008093AC0108958B3F21F40E94E815819543
:102CA00004C08C3F29F40E94E8158093AD0108957B
:102CB000843F21F48091A901816017C0853F21F4F0
:102CC0008091A901826011C0863F21F48091A90101
:102CD00084600BC0873F21F48091A901886005C002
:102CE000883F31F48091A90180618093A901089502
:102CF0008D3F21F48091A70181600BC08E3F21F4AC
:102D00008091A701826005C08F3F29F48091A701BF
:102D100084608093A7010895803F39F48091AB01CE
:102D200087FF6CC01092AB0169C0813F29F480918C
:102D3000AB011816BCF362C09091AA01823F29F43E
:102D400097FF5CC01092AA0159C0833F19F419166D
:102D5000CCF354C0893F41F48091AC0118160CF0BB
:102D60004DC01092AC014AC08A3F29F48091AC0159
:102D700087FF44C0F6CF8B3F39F48091AD0187FFC8
:102D80003DC01092AD013AC08C3F29F48091AD0155
:102D90001816BCF333C0843F21F48091A9018E7FC3
:102DA00017C0853F21F48091A9018D7F11C0863F16
:102DB00021F48091A9018B7F0BC0873F21F4809182
:102DC000A901877F05C0883F31F48091A9018F7EDA
:102DD0008093A90113C08D3F21F48091A7018E7FBC
:102DE0000BC08E3F21F48091A7018D7F05C08F3FDE
:102DF00029F48091A7018B7F8093A7018091AA017C
:102E000081110EC08091AB0181110AC08091AC018B
:102E1000811106C08091AD01811102C01092A801FC
:102E2000089589EA91E00E94A6080E9420159093D7
:102E3000A6018093A50108951F93CF93DF938091FE
:102E4000A5019091A6010E942C159C014091A8011A
:102E5000442321F08091120190E007C0809113017A
:102E600090E06AE070E00E94F21A2817390708F42F
:102E700082C08091AA011091AB01D091AC01C091A8
:102E8000AD01811107C0111105C0D11103C0CC23C0
:102E900009F471C04F3F19F04F5F4093A801181615
:102EA00024F40E949D158093AA018091AA0187FFB6
:102EB00005C00E949D1581958093AA01111624F4E6
:102EC0000E949D158093AB018091AB0187FF05C0E7
:102ED0000E949D1581958093AB016091AA016623A4
:102EE00039F11091AB01112319F1772767FD709526
:102EF000872F972F0E94FB1923E333E343E35FE31C
:102F00000E945F1A0E94C8196093AA01612F772757
:102F100067FD7095872F972F0E94FB1923E333E3FA
:102F200043E35FE30E945F1A0E94C8196093AB01FC
:102F30001D1624F40E94E8158093AC018091AC0129
:102F400087FF05C00E94E81581958093AC011C168F
:102F500024F40E94E8158093AD018091AD0187FFB4
:102F600005C00E94E81581958093AD01DF91CF9156
:102F70001F910C941117DF91CF911F910895E9EAE9
:102F8000F1E085E0DF011D928A95E9F71092A80132
:102F90001092A7010895833081F128F4813059F00F
:102FA0008230D1F00895853009F449C0B8F18630F7
:102FB00009F456C0089520911301862F90E0820FE6
:102FC000911D8F3F910520F4620F609313010895C6
:102FD0008FEF80931301089520911201862F90E0C6
:102FE000820F911D8F3F910520F4620F60931201B3
:102FF00008958FEF80931201089520911101862F7B
:1030000090E0820F911D8F3F910520F4620F609335
:10301000110108958FEF80931101089520911001FF
:10302000862F90E0820F911D8F3F910520F4620F53
:103030006093100108958FEF8093100108952091FF
:103040000F01862F90E0820F911D8F3F910520F494
:10305000620F60930F0108958FEF80930F01089521
:1030600020910E01862F90E0820F911D8F3F9105D8
:1030700020F4620F60930E0108958FEF80930E018C
:103080000895833011F128F4813049F0823091F0B5
:103090000895853081F120F18630C1F10895809145
:1030A0001301681720F4861B809313010895109272
:1030B0001301089580911201681720F4861B8093F4
:1030C000120108951092120108958091110168175C
:1030D00020F4861B80931101089510921101089528
:1030E00080911001681720F4861B809310010895C9
:1030F00010921001089580910F01681720F4861B2B
:1031000080930F01089510920F01089580910E0190
:10311000681720F4861B80930E01089510920E010B
:1031200008958732F8F48E3108F084C08E3009F4A7
:1031300061C048F4873009F446C08B3009F48DC073
:10314000863049F126C0863109F487C020F48031E9
:1031500009F461C01EC0893109F47FC08B3109F4C4
:103160003FC017C0883309F478C048F4893209F4A5
:103170005CC0853309F459C0873259F456C0833492
:1031800009F453C020F48A3308F056C002C08834D2
:1031900061F080E0089580919F01817F8E7F809310
:1031A0009F0181E08093AF0108950E94820D2FEF6F
:1031B00083ED90E3215080409040E1F700C0000093
:1031C0000E947A154AC090919F01892F817090FFCB
:1031D00003C0917F9E7F1CC0916090939F013DC072
:1031E00090919F0191FB882780F921E0822780FB45
:1031F00091F909C090919F0192FB882780F921E005
:10320000822780FB92F990939F01882331F191608E
:1032100090939F01089590919F0193FB882780F9D7
:1032200021E0822780FB93F9EECF61E070E080E03F
:1032300090E00FC023EE01C027EC280F61E070E0A2
:1032400080E090E004C0660F771F881F991F2A95C1
:10325000D2F70E9482110E94820D81E0089580E0E1
:10326000089580E00895CF93C82F8091AF018130F9
:1032700069F018F08230B1F181C0A0910C01B091D9
:103280000D018C91823209F07BC007C0A0910C0126
:10329000B0910D018C91823249F48C2F0E942F192C
:1032A00081111DC08C2F0E9491181AC08C2F0E9472
:1032B0003119811114C0C43179F048F4CB3079F060
:1032C000C03109F061C082E08093AF0108C0C9320B
:1032D00019F0C83321F058C01092AF0155C081E0F9
:1032E000817054C0C93291F120F5C43179F1B0F444
:1032F000C73009F047C08EE18093130182E38093C9
:1033000012018AE08093110184E18093100188E02A
:1033100080930F0188E280930E0134C0CE51C630F5
:1033200088F5EC2FF0E0ED5DFE4F80818093AE01DB
:1033300029C0CE34E9F020F4CB3421F56AE013C083
:10334000C13579F0C235F1F461E00DC08091AE0174
:10335000882319F01092AE0115C081E08093AF016F
:1033600015C061E006C08091AE010E94CB170AC073
:103370006AE08091AE010E94411804C01092AF0132
:1033800080E004C081E002C080E0AACFCF91089520
:1033900004D06894B1118DC0089570D088F09F5703
:1033A00090F0B92F9927B751A0F0D1F0660F771F91
:1033B000881F991F1AF0BA95C9F712C0B13081F071
:1033C00077D0B1E0089574C0672F782F8827B85F51
:1033D00039F0B93FCCF3869577956795B395D9F7D2
:1033E0003EF490958095709561957F4F8F4F9F4FDC
:1033F0000895E89409C097FB3EF4909580957095E8
:1034000061957F4F8F4F9F4F9923A9F0F92F96E930
:10341000BB279395F695879577956795B795F111A5
:10342000F8CFFAF4BB0F11F460FF1BC06F5F7F4F42
:103430008F4F9F4F16C0882311F096E911C0772354
:1034400021F09EE8872F762F05C0662371F096E85D
:10345000862F70E060E02AF09A95660F771F881F2C
:10346000DAF7880F9695879597F9089557FD905844
:10347000440F551F59F05F3F71F04795880F97FB38
:10348000991F61F09F3F79F08795089512161306F2
:103490001406551FF2CF4695F1DF08C01616170621
:1034A0001806991FF1CF8695710561050894089556
:1034B000E894BB2766277727CB0197F908950AD0B0
:1034C00080C071D028F076D018F0952309F062C042
:1034D00067C0EFCFCBDFA8F39923D9F35523C9F306
:1034E000950F50E0551FAA27EE27FF27BB27002482
:1034F0000894679520F4E20FF31FB41F0A1E220FF1
:10350000331F441FAA1F6695A9F7779530F4F30F70
:10351000B41F0A1E121E08F46395330F441FAA1F1E
:10352000221F769599F7879520F4B40F0A1E121E74
:10353000631F440FAA1F221F331F8695A9F7862FEA
:10354000712D602D11249F5750408AF0E1F088239F
:103550004AF0EE0FFF1FBB1F661F771F881F915099
:103560005040A9F79E3F510570F014C0A2CF5F3FB5
:10357000ECF3983EDCF3869577956795B795F795CC
:10358000E7959F5FC1F7FE2B880F911D9695879554
:1035900097F9089597F99F6780E870E060E00895D3
:1035A0009FEF80EC089500240A941616170618065B
:1035B0000906089500240A94121613061406050637
:1035C0000895092E0394000C11F4882352F0BB0FC8
:1035D00040F4BF2B11F460FF04C06F5F7F4F8F4F2B
:1035E0009F4F08950024552704C0080E591F880FC7
:1035F000991F009729F076956795B8F37105B9F78B
:10360000802D952F089597FB072E16F4009407D070
:1036100077FD09D00E941D1B07FC05D03EF4909554
:1036200081959F4F0895709561957F4F0895EE0F96
:10363000FF1F0590F491E02D0994AA1BBB1B51E1DB
:1036400007C0AA1FBB1FA617B70710F0A61BB70B12
:10365000881F991F5A95A9F780959095BC01CD01B7
:063660000895F894FFCF6D
:10366600053902C602A3026F023C02019501280831
:10367600140A321E3F4D36F301A60170011C0135B6
:0E368600014E010102030405060708090000B9
:00000001FF
