:100000000C94A3010C94EA010C94EA010C94EA010B
:100010000C94EA010C94EA010C94EA010C94EA01B4
:100020000C94EA010C94EA010C94EA010C94B007D8
:100030000C94EA010C9480160C94EA010C94EA01E9
:100040000C94EA010C94EA010C94EA010C94E81671
:100050000C94EA010C94EA010C94EA010C94EA0174
:100060000C94EA010C94EA010C94EA010C94EA0164
:100070000C94EA0167026A026D0270027302760252
:1000800078027B027E028102840287028A028C024D
:1000900096028E02910293028208A4089209A40893
:1000A0009209E9080C099209610974093F0C3F0C97
:1000B0006E0C6E0CC80C060D0F0F0F0F1F0D0F0FDF
:1000C000200E200EE30E0F0F0F0FFA0EF1A100000D
:1000D00000E7000000000000E1E500000000500023
:1000E00000584A4D52570000E300000000005655EA
:1000F0005E5B4B4E636138002F332D273413001D98
:100100002B04351E2914001B39163A1F641A0006E9
:100110003C073B203D080519170922210A1511103B
:100120001C0D23240B180036300E2E253F0CC03733
:10013000400F41260012E60000000046E247452835
:100140002A314243440000E40000E03E004851539D
:100150005C594C002C5F4F545D5A490062600000AE
:10016000000100000000000001010000000001008B
:100170000001010101010000010000000000010177
:100180000101010101010100010101010101000161
:1001900001010101B20100010101B30101010001EE
:1001A000B501B401B1010101010101010101010128
:1001B000010101010101000101010101A901010188
:1001C000AF01AD0100010100000000A701A5010180
:1001D0000101AEACAB000001000001AA00A60101C4
:1001E00001010100010101010101010001011A03E6
:1001F00043004D002000530074006F0072006D003A
:10020000200051004600520000000E0343006F0022
:100210007300740061007200000004030904090205
:100220005400030100A03209040000010301010091
:10023000092111010001223F000705810308000A7E
:10024000090401000103010200092111010001223A
:100250004D000705820308000A090402000103009B
:10026000000009211101000122360007058303085F
:10027000000A1201100100000008EDFE50600401A8
:100280000102000105010980A10185021601002675
:10029000B7001A01002AB700751095018100C0054A
:1002A0000C0901A1018503160100269C021A010018
:1002B0002A9C02751095018100C005010902A10167
:1002C0000901A10005091901290515002501950558
:1002D000750181029501750381010501093009311C
:1002E0001581257F95027508810609381581257FBE
:1002F000950175088106050C0A38021581257F9540
:100300000175088106C0C005010906A1010507198C
:10031000E029E71500250195087501810295017511
:1003200008810105081901290595057501910295B6
:1003300001750391010507190029FF150025FF9597
:100340000675088100C011241FBECFEFD4E0DEBFC8
:10035000CDBF04B603FE27C0809108029091090228
:10036000A0910A02B0910B028730904BA740B04B8E
:10037000D1F4109208021092090210920A0210920F
:100380000B0214BE84B7877F84BF0FB6F894A8957C
:1003900080916000886180936000109260000FBEC1
:1003A000E0E0F8E3099511E0A0E0B1E0EAEBF9E361
:1003B00002C005900D92AE32B107D9F722E0AEE24D
:1003C000B1E001C01D92A830B207E1F70E94080514
:1003D0000C94DB1C0C940000E72FF0E0262F30E09B
:1003E000823078F490E062E170E00E949C1C820F01
:1003F000931F23E0880F991F2A95E1F7E80FF91F53
:1004000007C083E0220F331F8A95E1F7E20FF31F45
:10041000E253FF4F84910895803C29F4ECECF0E026
:1004200085919491089580E090E0089584B18F6261
:1004300084B985B1807D85B908950E94160284B182
:100440008F7A84B987B18B7687B98AB18C7E8AB965
:1004500085B1806585B988B1846988B98BB18361BC
:100460008BB9EEE4F1E0AEE2B1E01192119211929B
:1004700011921D921D921D921D9281E0EE36F80799
:10048000A1F708952F923F924F925F926F927F92C1
:100490008F929F92AF92BF92CF92DF92EF92FF9294
:1004A0000F931F93CF93DF93C0E0D0E0C12CD12CEA
:1004B0007601C39422242394312C8C2F90E0823136
:1004C0009105A0F5FC01E65CFF4F0C94C11C85B1C1
:1004D00089602BC085B1886228C085B1836025C042
:1004E00085B1846222C085B18F601FC02A9A1EC068
:1004F00085B18C621AC085B18E6217C085B18A62DF
:1005000014C085B1866211C085B182620EC085B10A
:100510008C600BC02B9A0AC02D9A08C085B18D60E3
:1005200004C0289A03C085B18E6085B980E18A95A0
:10053000F1F786B18095881F8827881F349902C0FB
:1005400092E001C090E0892B1C9902C094E001C0A8
:1005500090E0982B1E9902C028E001C020E0922B69
:10056000489902C040E101C040E0942B499902C083
:1005700030E201C030E0932B329902C020E401C088
:1005800020E0892F822B4C9902C090E801C090E0B6
:10059000982B260137010C2E04C0440C551C661CF8
:1005A000771C0A94D2F7B09100010EE211E0F80135
:1005B00020E030E0892F90E080809180A280B3809D
:1005C000B501A4014421552166217721A1E0452BE5
:1005D000462B472B09F4A0E0A101022E02C0440FD4
:1005E000551F0A94E2F74823592361E0452B09F48B
:1005F00060E0A61749F084249524A624B7248082BD
:100600009182A282B382B5E02F5F3F4F34962830AB
:10061000310591F6B09300010E9416022196C23175
:10062000D10509F04ACF809100018823E1F0815083
:1006300080930001882339F08FE99FE00197F1F75B
:1006400000C0000010C0EEE4F1E0E801899199914A
:10065000A991B9918E0181939193A193B193D1E026
:100660000E341D0791F781E0DF91CF911F910F911B
:10067000FF90EF90DF90CF90BF90AF909F908F90C2
:100680007F906F905F904F903F902F900895E82F4C
:10069000F0E0EE0FFF1FEE0FFF1FE25BFE4F6081E9
:1006A0007181828193810895CF93DF93CEE4D1E06D
:1006B00069917991899199910E94131681E0CE36C2
:1006C000D807B1F7DF91CF910895279A97B1906637
:1006D00097B981FF02C02F9801C02F9A80FF02C0F6
:1006E000459801C0459A82FF02C046980895469AEF
:1006F0000895809176010895CF93DF9300D01F92E3
:10070000CDB7DEB79C018091FF01843019F593E0ED
:1007100099833B832A839093E9008FEF9091E800BF
:10072000815095FD06C095ED9A95F1F70000811175
:10073000F5CF8091E80085FF0DC040E050E063E018
:1007400070E0CE0101960E94BC058091E8008E7792
:100750008093E8000F900F900F90DF91CF91089554
:10076000CF93DF9300D01F92CDB7DEB72091FF016A
:10077000243021F522E029839B838A8383E08093C0
:10078000E9008FEF9091E800815095FD06C095ED4E
:100790009A95F1F700008111F5CF8091E80085FF6F
:1007A0000DC040E050E063E070E0CE0101960E9491
:1007B000BC058091E8008E778093E8000F900F9041
:1007C0000F90DF91CF9108952091FF012430F1F433
:1007D00022E02093E9002FEF3091E800215035FD11
:1007E00006C035ED3A95F1F700002111F5CF2091C3
:1007F000E80025FF0BC040E050E065E070E00E949B
:10080000BC058091E8008E778093E8000895CF932F
:10081000DF932091FF01243039F521E02093E90096
:100820002FEF3091E800215035FD06C035ED3A95A7
:10083000F1F700002111F5CF2091E80025FF14C049
:10084000EC0140E050E068E070E00E94BC0580915F
:10085000E8008E778093E80088E0FE01AEE6B1E024
:1008600001900D928A95E1F7DF91CF9108958091E3
:10087000FE01811109C00E944D070E94A0078091CE
:10088000E20084608093E20008951092FE010895D2
:10089000089542E061EC81E00E94C70642E061EC0D
:1008A00082E00E94C70642E061EC83E00C94C70638
:1008B00080910102833009F453C030F4813071F02B
:1008C000823009F48CC008958A3009F478C08B30E6
:1008D00009F45EC0893009F09AC020C080910002FE
:1008E000813A09F094C08091E800877F8093E80006
:1008F0008091040290910502892B21F468E08EE634
:1009000091E003C060E080E090E070E00E940906A2
:100910008091E8008B778093E80008958091000231
:10092000813209F074C08091040290910502892BF4
:1009300009F06DC08091E800877F8093E800809186
:10094000E80082FD05C08091FF018111F8CF5FC0F2
:100950008091F100809376018091E8008B7753C0FD
:1009600080910002813A09F052C080910402909176
:100970000502892B09F04BC08091E800877F8093A6
:10098000E8008091E80080FFFCCF80910B0136C029
:10099000809100028132D9F5809104029091050284
:1009A000892BA9F58091E800877F8093E8000E9459
:1009B000FC068091020280930B010C94310F809110
:1009C0000002813221F58091E800877F8093E80062
:1009D0000E94FC0680910302809377010895809124
:1009E0000002813AA1F48091E800877F8093E800BB
:1009F0008091E80080FFFCCF809177018093F10027
:100A00008091E8008E778093E8000C94FC060895AE
:100A100084B7877F84BF0FB6F894A8958091600053
:100A2000886180936000109260000FBE90E080E8C3
:100A30000FB6F89480936100909361000FBE0E94FE
:100A40001A0A0E944D070E94A0078091E20084606C
:100A50008093E20078948091FF01843019F00E9425
:100A6000AB09F9CF0E941C0A81E091E00E94C609FF
:100A70008091FF01853069F40E943E168091FD014E
:100A80008823B1F30E946916882391F30E94A6057A
:100A9000EFCF0E94200A0E94AB09EACF292F33270B
:100AA00023303105C9F064F42130310581F0223062
:100AB000310509F043C084E590E02EE132E042C008
:100AC00021323105F1F02232310541F137C082E1A6
:100AD00090E022E732E036C099278130910541F05D
:100AE0008230910541F0892B49F5EAE1F2E005C039
:100AF000EAE0F2E002C0EEEEF1E0849190E09F01C6
:100B000021C06330D8F4E62FF0E0EE0FFF1FE35E64
:100B1000FE4F2081318189E090E014C0633070F491
:100B200070E0FB01EE0FFF1FE95EFE4F2081318177
:100B3000FB01EC5EFE4F808190E004C080E090E01D
:100B400020E030E0FA0131832083089584E089BDFC
:100B500086E089BD09B400FEFDCF8091D8008F7D6D
:100B60008093D8008091E00082608093E0008091C3
:100B7000E00081FDFCCF0895CF92DF92EF92FF92CB
:100B80000F931F93CF93DF93EC018B017A010E94A7
:100B90001B07811135C0E114F10439F0F7018081A0
:100BA0009181081B190BC80FD91FC12CD12C01151D
:100BB000110529F18091E80085FD18C08091E800B9
:100BC0008E778093E8000E94AB09E114F10449F0AC
:100BD000F70180819181C80ED91ED182C08285E043
:100BE0000FC00E941B07882311F30AC089918093CC
:100BF000F10001501109FFEFCF1ADF0AD8CF80E0D2
:100C0000DF91CF911F910F91FF90EF90DF90CF90E8
:100C1000089520910602309107022617370748F001
:100C20006115710539F42091E8002E772093E800D2
:100C300001C0B90140E06115710591F12091FF01FA
:100C4000222309F440C0253009F43FC02091E80078
:100C500023FD3DC02091E80022FD2FC02091E80037
:100C600020FFE9CF2091F20030E0FC01CF016115B7
:100C7000710559F02830310540F481918093F100DD
:100C8000615071092F5F3F4FF1CF41E028303105AE
:100C900009F040E02091E8002E772093E800CBCFC8
:100CA0004111CCCF0AC08091FF01882361F08530CB
:100CB00061F08091E80083FD0AC08091E80082FF26
:100CC000F2CF80E0089582E0089583E0089581E006
:100CD000089520910602309107022617370748F041
:100CE0006115710539F42091E8002E772093E80012
:100CF00001C0B901FC0120E06115710579F1809115
:100D0000FF01882309F43DC0853009F43CC080917F
:100D1000E80083FD3AC08091E80082FD2CC08091FC
:100D2000E80080FFE9CF8091F20090E06115710545
:100D300059F08830910540F424912093F1003196C8
:100D4000615071090196F2CF21E0089709F020E087
:100D50008091E8008E778093E800CECF2111CFCF2D
:100D60000AC08091FF01882361F0853061F0809195
:100D7000E80083FD0AC08091E80082FFF2CF80E0A6
:100D8000089582E0089583E0089581E00895982F02
:100D9000953058F59093E900981739F07091EC0070
:100DA0002091ED005091F00003C0242F762F50E0E9
:100DB00021FF19C03091EB003E7F3093EB00309162
:100DC000ED003D7F3093ED003091EB0031603093CA
:100DD000EB007093EC002093ED005093F000209115
:100DE000EE0027FF07C09F5FD3CF8F708093E9008D
:100DF00081E0089580E008958091000287FF11C08E
:100E00008091E80082FD05C08091FF018111F8CF3B
:100E100011C08091E8008B770BC08091FF0188237F
:100E200049F08091E80080FFF8CF8091E8008E774C
:100E30008093E80008952091E4003091E50095E664
:100E40004091EC00842F817040FF22C08091E80027
:100E500080FD1CC08091FF01882391F0853091F0C6
:100E60008091EB0085FD10C04091E4005091E500B9
:100E70004217530729F39A01915011F784E008951E
:100E800082E0089583E0089581E0089580E0089568
:100E90004091E80042FFDECF08950E94AA070E9419
:100EA000AD07E0EEF0E0808181608083E8EDF0E066
:100EB00080818F77808319BCE3E6F0E080818160D8
:100EC00080831092FE0108950E94AA070E94AD0738
:100ED0008091D8008F778093D8008091D800806867
:100EE0008093D8008091D8008F7D8093D80084E0D3
:100EF00089BD86E089BD09B400FEFDCF1092FF01D7
:100F00001092FB011092FD011092FC0142E060E0A2
:100F100080E00E94C7068091E1008E7F8093E1000F
:100F20008091E20081608093E2008091E20088601D
:100F30008093E2008091E0008E7F8093E00008952E
:100F4000E3E6F0E080818E7F808381E08093FE0184
:100F50000C9464071092E20008951092E100089545
:100F60001F920F920FB60F9211242F933F934F931E
:100F70005F936F937F938F939F93AF93BF93EF9301
:100F8000FF938091E10082FF0BC08091E20082FF1D
:100F900007C08091E1008B7F8093E1000E94AA0945
:100FA0008091E10080FF18C08091E20080FF14C0B2
:100FB0008091E2008E7F8093E2008091E200806168
:100FC0008093E2008091D80080628093D80019BCA1
:100FD0001092FF010E9445048091E10084FF30C01F
:100FE0008091E20084FF2CC084E089BD86E089BD49
:100FF00009B400FEFDCF8091D8008F7D8093D8008A
:101000008091E1008F7E8093E1008091E2008F7EED
:101010008093E2008091E20081608093E200809101
:10102000FB01882311F084E007C08091E30087FD75
:1010300002C081E001C083E08093FF010E94370479
:101040008091E10083FF24C08091E20083FF20C0F3
:101050008091E100877F8093E10082E08093FF012F
:101060001092FB018091E1008E7F8093E1008091DE
:10107000E2008E7F8093E2008091E20080618093A5
:10108000E20042E060E080E00E94C7060E9448045F
:10109000FF91EF91BF91AF919F918F917F916F9150
:1010A0005F914F913F912F910F900FBE0F901F9026
:1010B00018951F93CF93DF93CDB7DEB7AA970FB6DE
:1010C000F894DEBF0FBECDBFE0E0F2E088E08E0F07
:1010D0009091F10091938E13FBCF0E945804809160
:1010E000E80083FF1FC18091000290910102492F07
:1010F00050E04A30510508F015C1FA01E45BFF4F9A
:101100000C94C11C803881F0823809F00BC18091A9
:1011100004028F708093E9008091EB0085FB8827A3
:1011200080F91092E90006C08091FC019091FD01C8
:10113000911182609091E800977F9093E8008093EE
:10114000F1001092F100C8C0282F2D7F09F0EAC0ED
:10115000882319F0823061F0E5C08091020281306D
:1011600009F0E0C0933009F080E08093FD012BC0CE
:1011700080910202811127C0809104028F7009F4CE
:10118000D1C08093E9002091EB0020FF1CC0933078
:1011900021F48091EB00806214C09091EB0090618B
:1011A0009093EB0021E030E0A90102C0440F551FED
:1011B0008A95E2F74093EA001092EA008091EB00F2
:1011C00088608093EB001092E9008091E800877FAF
:1011D00086C08111A7C0109102021F778091E300A1
:1011E0008078812B8093E3008091E800877F809353
:1011F000E8000E94FC068091E80080FFFCCF80910F
:10120000E30080688093E300111102C082E001C016
:1012100083E08093FF0186C08058823008F082C04E
:1012200080910202909103028C3D53E0950779F57D
:1012300083E08A838AE289834FB7F894DE011396AC
:1012400020E03EE051E2E32FF0E050935700E491BC
:1012500020FF03C0E295EF703F5FEF708E2F90E0AC
:10126000EA3010F0C79601C0C0968D939D932F5F12
:10127000243149F74FBF8091E800877F8093E800D1
:101280006AE270E0CE0101960E94090614C0AE0128
:101290004F5F5F4F609104020E944E05BC01892B95
:1012A00009F440C09091E800977F9093E80089810D
:1012B0009A810E9469068091E8008B778093E8000C
:1012C00031C0803879F58091E800877F8093E8000D
:1012D0008091FB018093F1008091E8008E778093EC
:1012E000E8000E94FC061EC081111CC09091020201
:1012F0009230C0F48091E800877F8093E80090935B
:10130000FB010E94FC068091FB01811106C08091C7
:10131000E30087FD02C081E001C084E08093FF010B
:101320000E9449048091E80083FF0AC08091E80090
:10133000877F8093E8008091EB0080628093EB00D0
:10134000AA960FB6F894DEBF0FBECDBFDF91CF9146
:101350001F9108950895CF938091FF018823A1F0F4
:10136000C091E900CF709091EC00892F817090FDC1
:1013700080E8C82B1092E9008091E80083FD0E946C
:101380005908CF70C093E900CF91089590937D01E3
:1013900080937C010895E0917C01F0917D0130976C
:1013A00021F00190F081E02D099480E00895E09112
:1013B0007C01F0917D01309721F00280F381E02DD6
:1013C00009940895E0917C01F0917D01309721F01E
:1013D0000480F581E02D0994089520917A013091DF
:1013E0007B018217930771F090937B0180937A01C0
:1013F000E0917C01F0917D01309721F00680F7812A
:10140000E02D099408952091780130917901821797
:10141000930771F09093790180937801E0917C01BA
:10142000F0917D01309721F00084F185E02D099441
:10143000089508950C94190A0E94A9160C941D028F
:101440004F925F926F927F929F92AF92BF92CF9294
:10145000DF92EF92FF920F931F93CF93DF93CDB75D
:10146000DEB72E970FB6F894DEBF0FBECDBF0E9439
:1014700042024FE7A42E41E0B42E00E010E0902E8F
:10148000802F0E944703F501C190D190E190F19027
:101490005F01C626D726E826F926C114D104E10447
:1014A000F104B1F40F5F1F4F0830110541F78FEFC2
:1014B00089838A831B820E94B2168160782F9D8364
:1014C0008C8349815A816B818D810E94FE0A5DC0A7
:1014D0002091EA0121FF0AC06B877C878D879E8758
:1014E0000E9454039E858D857C856B8540E050E08D
:1014F00026013701042E04C07694679457944794CC
:101500000A94D2F740FE3AC04E839F82C12CD12C60
:101510007601C39404C0CC0CDD1CEE1CFF1C4A9564
:10152000D2F726013701462257226822792281E02C
:1015300045284628472809F480E088870E94B2168B
:101540008160782F9A8789874E815F8168858A8537
:101550000E94FE0A000F111F000F111FF801E15831
:10156000FE4F80819181A281B381C826D926EA26C7
:10157000FB26C082D182E282F38207C04F5F5F4FB9
:101580004231510509F0B4CF8DCF0E94AD181091B2
:101590007E010E94CB091817D9F00E94CB098093D5
:1015A0007E012E960FB6F894DEBF0FBECDBFDF9141
:1015B000CF911F910F91FF90EF90DF90CF90BF9050
:1015C000AF909F907F906F905F904F900C946503C9
:1015D0002E960FB6F894DEBF0FBECDBFDF91CF9130
:1015E0001F910F91FF90EF90DF90CF90BF90AF9041
:1015F0009F907F906F905F904F900895CF93DF936F
:10160000CDB7DEB72B970FB6F894DEBF0FBECDBFB8
:101610004F83588769877A878B87DE01119686E02A
:10162000FD0111928A95E9F785E0FE013796019058
:101630000D928A95E1F749815A816B817C818D8178
:101640009E810E94DA112B960FB6F894DEBF0FBE72
:10165000CDBFDF91CF910895CF93882309F499C02E
:10166000C82F8CEF8C0F813A48F48C2F0E94CB1A34
:1016700081118FC08C2F0E947A140CC080E28C0FD5
:10168000883058F4C77081E001C0880FCA95EAF726
:101690000E94B614CF910C94ED148BE58C0F83301F
:1016A00078F4C53A29F0C63A31F083E890E005C0F5
:1016B00081E890E002C082E890E0CF910C94ED09BF
:1016C00088E58C0F833108F064C0C83A39F1C93A13
:1016D00041F1CA3A49F1CB3A51F1CC3A59F1CD3AFC
:1016E00061F1C03B69F1CE3A71F1CF3A79F1C13B7A
:1016F00081F1C23B89F1C33B91F1C43B99F1C53BF8
:10170000A1F1C63BA9F1C73BB1F1C83BB9F1C93B57
:10171000C1F1CA3BC9F180E090E038C082EE90E0B0
:1017200035C089EE90E032C08AEE90E02FC085EBA4
:1017300090E02CC086EB90E029C087EB90E026C0BB
:101740008CEC90E023C08DEC90E020C083E891E029
:101750001DC08AE891E01AC082E991E017C084E9CF
:1017600091E014C081E292E011C083E292E00EC0E9
:1017700084E292E00BC085E292E008C086E292E04B
:1017800005C087E292E002C08AE292E0CF910C9419
:10179000030ACF910895882329F19CEF980F913A7D
:1017A00018F40E9497140DC090E2980F983058F4E6
:1017B000877091E001C0990F8A95EAF7892F0E94FE
:1017C000BC140C94ED149BE5980F933020F480E04A
:1017D00090E00C94ED09885A833120F480E090E089
:1017E0000C94030A0895882321F00E94B6140C94E7
:1017F000ED140895882321F00E94BC140C94ED147C
:101800000895BF92CF92DF92EF92FF920F931F93B2
:10181000CF93DF9300D000D000D0CDB7DEB725E066
:10182000FC01DE01119601900D922A95E1F7FC0171
:10183000408131810281258122952F7063817481DD
:10184000672B09F4ECC23F3F19F44F3F09F4E7C29C
:101850007C0149833A8389819A812E830E943914BD
:10186000182FB92E0E9438140E94FF12EB2DE2951A
:10187000EF70F0E0EA5AFF4F2E810C94C11C8B2DC3
:10188000807F9B2D9F70F92E882319F0F29480EFB2
:10189000F822002349F0FF2009F46EC28F2D0E9428
:1018A000C6140E94ED1468C2812F0E94CB0BFF204A
:1018B00009F4B5C28F2D0E94CC1426960FB6F89469
:1018C000DEBF0FBECDBFDF91CF911F910F91FF9073
:1018D000EF90DF90CF90BF900C94ED148B2D807F14
:1018E0009B2D9F70803211F4892F03C0892F829520
:1018F000807F112319F0113011F12BC00023A9F0C2
:10190000222389F1213079F526960FB6F894DEBFAF
:101910000FBECDBFDF91CF911F910F91FF90EF9040
:10192000DF90CF90BF900C94D614222319F0213071
:1019300009F475C28E830E94D9148E819BC1002345
:1019400021F0263008F06BC20EC0253008F067C2C7
:1019500091C10023C9F0222331F0F701958190FF56
:101960000BC29F70958326960FB6F894DEBF0FBE0C
:10197000CDBFDF91CF911F910F91FF90EF90DF903E
:10198000CF90BF900C94F30B222309F473C109C2CA
:101990002B2D26952695237030E02115310521F059
:1019A00021303105D1F03BC2002321F0812F9B2D46
:1019B000937002C080E090E026960FB6F894DEBFE8
:1019C0000FBECDBFDF91CF911F910F91FF90EF9090
:1019D000DF90CF90BF900C94ED09002321F0812F70
:1019E0009B2D937002C080E090E026960FB6F8948D
:1019F000DEBF0FBECDBFDF91CF911F910F91FF9042
:101A0000EF90DF90CF90BF900C94030A812F0023BA
:101A100019F00E94B51702C00E941D1826960FB635
:101A2000F894DEBF0FBECDBFDF91CF911F910F9114
:101A3000FF90EF90DF90CF90BF900C94A2188B2D69
:101A4000837009F07BC00111EAC1812F82958695D0
:101A50008770880F880F912F9F70C92ED12CE12C91
:101A6000F12C082E04C0CC0CDD1CEE1CFF1C0A94CB
:101A7000D2F714FF12C04FE050E060E070E004C005
:101A8000440F551F661F771F8A95D2F7CB01BA0105
:101A9000609570958095909503C060E070E0CB01F3
:101AA0002B2D269526952370422F50E0423051056C
:101AB000D9F04330510569F16C297D298E299F2980
:101AC0004130510551F126960FB6F894DEBF0FBE96
:101AD000CDBFDF91CF911F910F91FF90EF90DF90DD
:101AE000CF90BF900C9426136C297D298E299F29B5
:101AF00026960FB6F894DEBF0FBECDBFDF91CF9113
:101B00001F910F91FF90EF90DF90CF90BF900C94BA
:101B100042130E942613C701B60126960FB6F89409
:101B2000DEBF0FBECDBFDF91CF911F910F91FF9010
:101B3000EF90DF90CF90BF900C940A13002319F020
:101B40008B2D817001C08695882309F468C1812F8F
:101B5000829586958770880F880F912F9F70C92E68
:101B6000D12CE12CF12C082E04C0CC0CDD1CEE1C79
:101B7000FF1C0A94D2F714FF12C04FE050E060E05F
:101B800070E004C0440F551F661F771F8A95D2F777
:101B9000CB01BA01609570958095909503C060E087
:101BA00070E0CB012B2D269526952370422F50E017
:101BB00042305105D9F04330510569F16C297D2936
:101BC0008E299F294130510551F126960FB6F89480
:101BD000DEBF0FBECDBFDF91CF911F910F91FF9060
:101BE000EF90DF90CF90BF900C9400146C297D296A
:101BF0008E299F2926960FB6F894DEBF0FBECDBF63
:101C0000DF91CF911F910F91FF90EF90DF90CF90D8
:101C1000BF900C941C140E940014C701B6012696B4
:101C20000FB6F894DEBF0FBECDBFDF91CF911F91ED
:101C30000F91FF90EF90DF90CF90BF900C94E41342
:101C4000103F49F118F4103E48F491C0123F09F4D6
:101C500053C0E8F1133F09F464C089C01F708B2D95
:101C60008F71002321F00E947D13812F7CCE0E9472
:101C70009E13812F26960FB6F894DEBF0FBECDBF00
:101C8000DF91CF911F910F91FF90EF90DF90CF9058
:101C9000BF900C94FA0B0023B1F0253008F0BFC0C0
:101CA0008B2D8F7126960FB6F894DEBF0FBECDBF79
:101CB000DF91CF911F910F91FF90EF90DF90CF9028
:101CC000BF900C94C313263008F0A9C0E9CF0023BD
:101CD000A9F08B2D8F7126960FB6F894DEBF0FBE3C
:101CE000CDBFDF91CF911F910F91FF90EF90DF90CB
:101CF000CF90BF900C947D13002359F38B2D8F71DF
:101D000026960FB6F894DEBF0FBECDBFDF91CF9100
:101D10001F910F91FF90EF90DF90CF90BF900C94A8
:101D20009E13002399F08B2D8F7126960FB6F89491
:101D3000DEBF0FBECDBFDF91CF911F910F91FF90FE
:101D4000EF90DF90CF90BF900C94681326960FB65B
:101D5000F894DEBF0FBECDBFDF91CF911F910F91E1
:101D6000FF90EF90DF90CF90BF900C945E13002314
:101D7000A9F0222309F4ADCF812F26960FB6F8944F
:101D8000DEBF0FBECDBFDF91CF911F910F91FF90AE
:101D9000EF90DF90CF90BF900C942C0B222309F48E
:101DA000ADCF812F26960FB6F894DEBF0FBECDBF04
:101DB000DF91CF911F910F91FF90EF90DF90CF9027
:101DC000BF900C94CB0B4B2D4F70612FC7010E941D
:101DD000E31526960FB6F894DEBF0FBECDBFDF9198
:101DE000CF911F910F91FF90EF90DF90CF90BF9018
:101DF0000C9482124B2D4F70612FC70126960FB69F
:101E0000F894DEBF0FBECDBFDF91CF911F910F9130
:101E1000FF90EF90DF90CF90BF900C94E615269640
:101E20000FB6F894DEBF0FBECDBFDF91CF911F91EB
:101E30000F91FF90EF90DF90CF90BF9008950E9498
:101E4000D3140E94A8140E94ED140E9454190E94F9
:101E5000A21880E090E00E94ED0980E090E00C94F0
:101E6000030A0E94C3140C941F0F0E943914292FD7
:101E700022952F7030E02C3031054CF42A3031059A
:101E80006CF4225031092230310588F407C02C301F
:101E9000310549F02F30310531F009C0803E48F05E
:101EA000803F29F406C093FB882780F9089580E0DD
:101EB000089581E00895CF93DF9300D000D01F9262
:101EC000CDB7DEB70F900F900F900F900F90DF916E
:101ED000CF910895CF93DF9300D000D000D0CDB73D
:101EE000DEB726960FB6F894DEBF0FBECDBFDF91EA
:101EF000CF910895CF93DF93C0919F018091A0016E
:101F0000C817A1F0D0E0CE0166E070E00E949C1CF2
:101F1000FC01EF55FE4F40815181628173818481C4
:101F200095810E946A0F2196C770E8CFDF91CF910B
:101F300008954091D1015091D2016091D3017091E7
:101F4000D4018091D5019091D6010C946A0FCF9362
:101F5000DF938091D60182958F7009F05CC08091EB
:101F6000D301882309F457C020919F01D091A0018B
:101F70004091D101C091D201E091D401F091D501FD
:101F80002D1709F448C030E0309709F440C0CF3F26
:101F900011F44F3FE1F1C90166E070E00E949C1C22
:101FA000DC01AF55BE4F11968C911197C8132FC00D
:101FB0008C9148132CC012968C911297811127C0D6
:101FC00013968D919C9114978E179F0708F4019793
:101FD0008E1B9F0B883C9105D0F48091D6018F70A9
:101FE00080618093D601C90166E070E00E949C1C6C
:101FF000FC01EA55FE4F90819F709061908381EDC6
:1020000091E00E94010CDF91CF910C947A0F2F5F29
:102010003F4F2770B5CFDF91CF910895BF92CF92F8
:10202000DF92EF92FF920F931F93CF93DF93CDB781
:10203000DEB761970FB6F894DEBF0FBECDBF8C013F
:1020400085E0F801DE011D9601900D928A95E1F779
:10205000D8014C9111962C9111971296EC901297F1
:102060001396CD90DC9014975091D1016091D201DC
:102070008091D4019091D501009709F46EC16F3F12
:1020800019F45F3F09F469C1B090D301BB2009F492
:10209000C3C03091D601C816D90628F0F601E81B56
:1020A000F90BCF0104C0809590958C0D9D1DFF24E8
:1020B000F394883C910588F0F12C307F09F0CBC077
:1020C0007C2DD98AC88A522F6E2D89890E945B0F78
:1020D00081ED91E00E94010CB4C0832F807F09F054
:1020E00049C0621314C0541312C0E11010C03F70F5
:1020F00030613093D6010E94990F81ED91E00E94EA
:10210000010C8091D601D80115968C9331C0CD2851
:1021100031F12F3F11F44F3F11F1FE2CE1101FC0A0
:10212000E0919F013091A001E31709F45CC0F0E059
:10213000CF0166E070E00E949C1CDC01AF55BE4FF1
:1021400011968C911197281307C08C91481304C0E5
:1021500012968C91811103C03196E770E5CFFE2C69
:10216000EE2009F416C18091D60181608093D601DA
:10217000F12C0FC1621308C0541306C0E11004C053
:102180008091D601D801C1C04D872E878D859E854F
:102190000E94350F8823E1F1EE20D1F12091D60184
:1021A000822F82958F7090E0029774F08091D10118
:1021B0009091D20198878F831986DB86CA862C87F7
:1021C000CE0107960E94010C86E0F801A1EDB1E076
:1021D00001900D928A95E1F70E94A70F0E94990F36
:1021E000FF24F394D6C04D872E878D859E850E944F
:1021F0003914292F22952F7030E0223031050CF050
:10220000BCC09F7009F0B6C0805E883008F4C1C0C1
:10221000C8010E94010CE4CFC816D90608F453C0C7
:10222000F601E81BF90BCF01883C910508F450C07A
:10223000F12C7C2DD98AC88A522F6E2D89890E9453
:102240005B0FE1EDF1E086E0DF011D928A95E9F791
:102250000E94990F9EC0621314C0541312C0E11063
:1022600010C08091D601F8018583C8010E94010C3D
:1022700086E0E1EDF1E0DF011D928A95E9F7FB2CA4
:1022800088C04D872E878D859E850E94350F8823B7
:1022900009F4BECFEE2009F4BBCF2091D601822FE6
:1022A00082958F7090E002970CF48ECF8091D101CF
:1022B0009091D2019A8389831B82DD82CC822E8306
:1022C000CE0101967FCF809590958C0D9D1DACCF52
:1022D000FE2CEE2009F49CCF62132EC054132CC0A8
:1022E0002091D60120FD1FC0822F82958F70D9F0DA
:1022F000D80115962C9315978F3049F08F5F982F42
:102300009295907F822F8F70892B15968C93C801A0
:102310000E94010C86E0F801A1EDB1E001900D9260
:102320008A95E1F795CF86E0F801A1EDB1E0019043
:102330000D928A95E1F72DC04D872E878D859E855C
:102340000E94350F811140CF8091D601816080932A
:10235000D601C8010E94010C1CC0EE2009F458CF20
:102360004D872E878D859E850E94350F882309F421
:102370004FCF2ACF811148CF0CC0243031050CF04B
:1023800047CF9F7009F440CFF8019581907F09F005
:102390003BCF8F2D61960FB6F894DEBF0FBECDBF39
:1023A000DF91CF911F910F91FF90EF90DF90CF9031
:1023B000BF900895CF93DF93CDB7DEB72C970FB6BC
:1023C000F894DEBF0FBECDBF4F83588769877A87E9
:1023D0008B879C87CE0107960E940E10882371F090
:1023E0008F8198852A853B85232B09F43FC09F3F29
:1023F00009F068C08F3F09F065C038C086E0FE0173
:102400003796DE01119601900D928A95E1F76F8162
:102410007885EA85FB85309749F17F3F11F46F3F5E
:1024200029F18091A00190E09C012F5F3F4F277020
:10243000332740919F0150E02417350709F44BC022
:1024400069837A83FD83EC8366E070E00E949C1CC4
:10245000DC01AF55BE4F96E0FE01319601900D9222
:102460009A95E1F72093A0010E947A0F80919F0135
:102470009091A0018917E9F190E066E070E00E9478
:102480009C1C8F559E4F0E940E10882391F18091C5
:102490009F0190E066E070E00E949C1CFC01EF55FB
:1024A000FE4F4081518162817381848195810E94B8
:1024B0006A0F80919F0190E0019687709927809321
:1024C0009F01D4CF4F81588569857A858B859C85FE
:1024D0000E946A0FCBCF0E94310F1092A001109280
:1024E0009F01E1EDF1E086E0DF011D928A95E9F7B9
:1024F000BDCF2C960FB6F894DEBF0FBECDBFDF91D7
:10250000CF910895EF92FF920F931F93CF93DF9394
:102510008C01892B09F46CC0F12CEE24E394E801C2
:102520002196F8018491843740F4843008F051C03A
:10253000813081F0823019F15BC0853709F444C0E5
:10254000A8F19CE7980F903708F052C08F770E944F
:10255000CB0B41C00E5F1F4FFE01C49180E28C0F78
:10256000883048F4C7708E2D01C0880FCA95EAF7ED
:102570000E94C61414C08C2F0E942C0B2DC00E5F1D
:102580001F4FFE01C49180E28C0F883058F4C77051
:102590008E2D01C0880FCA95EAF70E94CC140E94C4
:1025A000ED141AC08C2F0E94CB0B16C00E5F1F4F6C
:1025B000FE01C491CC2381F08FE99FE00197F1F7F0
:1025C00000C00000C150F6CF0E5F1F4FFE01F49017
:1025D00003C00E942C0B8E018F2D882309F49FCFFE
:1025E000EFE9FFE03197F1F700C000008150F5CF2F
:1025F000DF91CF911F910F91FF90EF900895089573
:102600006093DB017093DC018093DD019093DE0128
:102610000C941F0F0F931F930091DB011091DC01AD
:102620002091DD013091DE01DC01CB01802B912B6B
:10263000A22BB32B8093DB019093DC01A093DD01EF
:10264000B093DE011F910F910C941F0F0F931F93F6
:102650000091DB011091DC012091DD013091DE0160
:10266000DC01CB0180239123A223B3238093DB01E0
:102670009093DC01A093DD01B093DE011F910F91D7
:102680000C941F0F0F931F930091DB011091DC013D
:102690002091DD013091DE01DC01CB018027912703
:1026A000A227B3278093DB019093DC01A093DD0187
:1026B000B093DE011F910F910C941F0F1092D70160
:1026C0001092D8011092D9011092DA010C941F0FC8
:1026D00041E050E060E070E004C0440F551F661F09
:1026E000771F8A95D2F74093D7015093D801609312
:1026F000D9017093DA010C941F0F41E050E060E0C3
:1027000070E004C0440F551F661F771F8A95D2F7EB
:102710008091D7019091D801A091D901B091DA01AF
:10272000482B592B6A2B7B2B4093D7015093D80110
:102730006093D9017093DA010C941F0F41E050E0CF
:1027400060E070E004C0440F551F661F771F8A9534
:10275000D2F740955095609570958091D7019091F2
:10276000D801A091D901B091DA01482359236A23F5
:102770007B234093D7015093D8016093D901709384
:10278000DA010C941F0F41E050E060E070E004C0FB
:10279000440F551F661F771F8A95D2F78091D70186
:1027A0009091D801A091D901B091DA014827592719
:1027B0006A277B274093D7015093D8016093D901B2
:1027C0007093DA010C941F0F0F931F930091D701A0
:1027D0001091D8012091D9013091DA01DC01CB01AF
:1027E000802B912BA22BB32B8093D7019093D801F0
:1027F000A093D901B093DA011F910F910C941F0F90
:102800000F931F930091D7011091D8012091D90106
:102810003091DA01DC01CB0180239123A223B32381
:102820008093D7019093D801A093D901B093DA0196
:102830001F910F910C941F0F0F931F930091D701BD
:102840001091D8012091D9013091DA01DC01CB013E
:1028500080279127A227B3278093D7019093D8018F
:10286000A093D901B093DA011F910F910C941F0F1F
:102870000895CF92DF92EF92FF920F931F93CF9321
:10288000DF938C01C090DB01D090DC01E090DD0192
:10289000F090DE014091D7015091D8016091D901AB
:1028A0007091DA01C42AD52AE62AF72ACFE1D0E0CE
:1028B000D701C6010C2E04C0B695A79597958795AC
:1028C0000A94D2F780FF07C0B8018C2F0E9413151D
:1028D0008130910531F4219758F7B80180E00E94CA
:1028E0001315DF91CF911F910F91FF90EF90DF9023
:1028F000CF90089520910C0130910D01F90132968D
:102900009FEF40E05191581789F09F3F19F4511102
:1029100001C0942F4F5F4630A9F79F3F39F0F9016E
:10292000E90FF11D97FDFA9582830895089520918E
:102930000C0130910D01F9013296285F3F4F9081D3
:10294000981301C010823196E217F307C1F708957A
:1029500081E090E0E0910C01F0910D01E80FF91F8A
:102960001082019688309105A9F708959091E901A8
:10297000892B8093E901089580959091E90189233D
:102980008093E90108951092E90108959091E8017A
:10299000892B8093E801089580959091E80189231F
:1029A0008093E80108951092E80108958093DF0173
:1029B00008951092DF01089580910C0190910D010E
:1029C000FC0131969C01285F3F4F80E0919191116D
:1029D0008F5FE217F307D1F70895E0910C01F091B2
:1029E0000D018091E9018083E0910C01F0910D01CE
:1029F00090818091E801892B80838091DF01882379
:102A000061F0E0910C01F0910D019081892B8083A0
:102A10000E94DC1481111092DF0180910C019091D1
:102A20000D010C94D709CF93DF930E94EC0190E441
:102A3000980F903218F40E940C02C2C08D3B50F4E3
:102A4000883A10F5853AB8F4843090F4813009F46E
:102A50006FC00BC0883E30F4803E50F48F3B09F4C9
:102A600059C003C0803F08F051C0C0E0D0E0A7C00B
:102A7000C82FD0E0A4C0853A09F45DC0863A09F4B5
:102A80005DC0C3E8D0E49BC0883A09F45AC0893AD3
:102A900009F45AC08A3A09F45AC08B3A09F45AC068
:102AA0008C3A09F45AC08B3B09F45AC08C3B09F4A8
:102AB0005AC08D3A09F45AC0803B09F45AC08E3A84
:102AC00009F45AC08F3A09F45AC0813B09F45AC03C
:102AD000823B09F45AC0833B09F45AC0843B09F491
:102AE0005AC0853B09F45AC0863B09F45AC0873B5B
:102AF00009F45AC0883B09F45AC0893B09F45AC00A
:102B00008A3B09F45AC0C0E0D4E459C0C82FD0E0D1
:102B1000D06555C00E94310F2FEF80E792E0215021
:102B200080409040E1F700C000000E940D1747C0B0
:102B3000C1E0D0E044C0C1E8D0E441C0C2E8D0E484
:102B40003EC0C2EED4E43BC0C9EED4E438C0CAEE05
:102B5000D4E435C0C5EBD4E432C0C6EBD4E42FC016
:102B6000C3EBD4E42CC0C4EBD4E429C0C7EBD4E459
:102B700026C0CCECD4E423C0CDECD4E420C0C3E820
:102B8000D5E41DC0CAE8D5E41AC0C2E9D5E417C02F
:102B9000C4E9D5E414C0C1E2D6E411C0C3E2D6E46E
:102BA0000EC0C4E2D6E40BC0C5E2D6E408C0C6E25B
:102BB000D6E405C0C7E2D6E402C0CAE2D6E4CE013C
:102BC000DF91CF91089580E090E008950895829577
:102BD000982F9C7C292F26952695982F9373990FD3
:102BE000990F922B892F8A7A86959575990F892B43
:102BF00008951F93CF93DF931F92CDB7DEB79983CC
:102C00000E94E715182F9981892F0E94E715212F1F
:102C100030E0322F2227A901482BCA010F90DF9103
:102C2000CF911F910895CF92DF92EF92FF920F9371
:102C30001F93CF93DF936B017C01CB010E94F915A9
:102C4000EC01C7010E94F915AC01CE01A0E0B0E093
:102C5000DC019927882760E070E08C019D01042B3E
:102C6000152B262B372BC901B801DF91CF911F916E
:102C70000F91FF90EF90DF90CF9008958091FF012A
:102C8000843021F11092EB0120E488E190E00FB64E
:102C9000F894A895809360000FBE2093600083B7DE
:102CA000817F846083BF83B7816083BF7894889578
:102CB00083B78E7F83BF0FB6F894A895809160008C
:102CC000886180936000109260000FBE089508959F
:102CD0000895CF930E9467160E9442020E946816D0
:102CE000C0E08C2F0E944703672B682B692B29F4C7
:102CF000CF5FC830B1F780E001C081E0CF91089587
:102D00001F920F920FB60F9211248F939F93AF9340
:102D1000BF938091EB01811113C08091EC019091E0
:102D2000ED01A091EE01B091EF014196A11DB11D01
:102D30008093EC019093ED01A093EE01B093EF012D
:102D4000BF91AF919F918F910F900FBE0F901F90E9
:102D5000189582E084BD93E095BD9AEF97BD80936E
:102D60006E0008952FB7F8948091EC019091ED01D9
:102D7000A091EE01B091EF012FBF0895CF92DF92A5
:102D8000EF92FF920F931F932FB7F8944091EC01AD
:102D90005091ED016091EE017091EF012FBF6A013A
:102DA0007B01EE24FF248C0120E030E0C016D10628
:102DB000E206F30610F4415051099A01281B390B21
:102DC000C9011F910F91FF90EF90DF90CF90089570
:102DD0001F920F920FB60F9211248F939F93AF9370
:102DE000BF938091EC019091ED01A091EE01B09123
:102DF000EF010196A11DB11D8093EC019093ED01AF
:102E0000A093EE01B093EF01BF91AF919F918F918D
:102E10000F900FBE0F901F9018950E944D07F894C9
:102E20002FEF87EA91E6215080409040E1F700C003
:102E3000000087E090EBDC01809308029093090288
:102E4000A0930A02B0930B029CE088E10FB6F894BD
:102E5000A895809360000FBE90936000FFCF809193
:102E6000F20180FF0CC08091110190E065E070E0FC
:102E70000E949C1C95958795959587952EC081FFFE
:102E80000AC08091110190E065E070E00E949C1CF6
:102E90009595879522C082FF08C08091110190E02E
:102EA00065E070E00E949C1C18C02091F301222371
:102EB000D1F030911001231780F78091110190E03B
:102EC00065E070E00E949C1C622F70E00E949C1CD8
:102ED000632F70E00E94AD1CCB018038910530F467
:102EE000009731F0089585E090E008958FE7089508
:102EF00081E008958091F20180FF08C060910F0188
:102F000070E0759567957595679523C081FF06C03C
:102F100060910F0170E0759567951BC082FF04C03A
:102F200060910F0170E012C06091F3016623D1F04F
:102F300020910E016217A0F780910F0170E090E0E0
:102F40000E949C1C622F70E00E94AD1C60387105CD
:102F500028F46115710521F0862F08958FE70895F3
:102F600081E0089561E070E0F4CF803F21F40E9499
:102F70002F17819504C0813F29F40E942F17809359
:102F8000F6010895823F21F40E942F17819504C015
:102F9000833F29F40E942F178093F5010895893FFC
:102FA00019F40E947A1705C08A3F31F40E947A17FB
:102FB00081958093F70108958B3F21F40E947A1741
:102FC000819504C08C3F29F40E947A178093F80100
:102FD0000895843F21F48091F401816017C0853FFA
:102FE00021F48091F401826011C0863F21F4809128
:102FF000F40184600BC0873F21F48091F401886064
:1030000005C0883F31F48091F40180618093F40120
:1030100008958D3F21F48091F20181600BC08E3FB5
:1030200021F48091F201826005C08F3F29F48091E4
:10303000F20184608093F2010895803F39F4809119
:10304000F60187FF6CC01092F60169C0813F29F438
:103050008091F6011816BCF362C09091F501823F91
:1030600029F497FF5CC01092F50159C0833F19F411
:103070001916CCF354C0893F41F48091F70118161A
:103080000CF04DC01092F7014AC08A3F29F480919C
:10309000F70187FF44C0F6CF8B3F39F48091F801E8
:1030A00087FF3DC01092F8013AC08C3F29F480910F
:1030B000F8011816BCF333C0843F21F48091F40169
:1030C0008E7F17C0853F21F48091F4018D7F11C060
:1030D000863F21F48091F4018B7F0BC0873F21F460
:1030E0008091F401877F05C0883F31F48091F4011D
:1030F0008F7E8093F40113C08D3F21F48091F20103
:103100008E7F0BC08E3F21F48091F2018D7F05C030
:103110008F3F29F48091F2018B7F8093F20180919F
:10312000F50181110EC08091F60181110AC08091D4
:10313000F701811106C08091F801811102C010923F
:10314000F301089584EF91E00E94E2090E94B21613
:103150009093F1018093F00108951F93CF93DF9333
:103160008091F0019091F1010E94BE16FC01209126
:10317000F301222329F090911201892F90E007C0DA
:103180008091130190E06AE070E00E949C1CE817B7
:10319000F90708F485C08091F501C091F601D0913E
:1031A000F7011091F801811107C0C11175C0D1114B
:1031B00073C0111171C074C02F3F19F02F5F20939D
:1031C000F301181624F40E942F178093F5018091C3
:1031D000F50187FF05C00E942F1781958093F501A7
:1031E0001C1624F40E942F178093F6018091F6019B
:1031F00087FF05C00E942F1781958093F60160918B
:10320000F501662331F1C091F601CC2311F1062EB0
:10321000000C770B880B990B0E949B1B23E333E375
:1032200043E35FE30E94FF1B0E94631B6093F50171
:103230006C2FCC0F770B880B990B0E949B1B23E301
:1032400033E343E35FE30E94FF1B0E94631B609331
:10325000F6011D1624F40E947A178093F7018091DD
:10326000F70187FF05C00E947A1781958093F701C7
:10327000111624F40E947A178093F8018091F801C6
:1032800087FF05C00E947A1781958093F801DF912E
:10329000CF911F910C94A2182F3F09F08FCF97CF99
:1032A000DF91CF911F910895E4EFF1E085E0DF0118
:1032B0001D928A95E9F71092F3011092F201089598
:1032C000833081F128F4813059F08230D1F00895B3
:1032D000853009F449C0B8F1863009F456C0089524
:1032E00080911301262F30E0280F311D2F3F31052B
:1032F00024F4680F6093130108958FEF80931301F6
:10330000089580911201262F30E0280F311D2F3FA4
:10331000310524F4680F6093120108958FEF8093B4
:103320001201089580911101262F30E0280F311DE0
:103330002F3F310524F4680F6093110108958FEF3A
:1033400080931101089580911001262F30E0280FFD
:10335000311D2F3F310524F4680F6093100108954B
:103360008FEF80931001089580910F01262F30E098
:10337000280F311D2F3F310524F4680F60930F0192
:1033800008958FEF80930F01089580910E01262FED
:1033900030E0280F311D2F3F310524F4680F609372
:1033A0000E0108958FEF80930E010895833011F17F
:1033B00028F4813049F0823091F00895853081F110
:1033C00020F18630C1F1089580911301681720F42F
:1033D000861B809313010895109213010895809124
:1033E0001201681720F4861B809312010895109231
:1033F0001201089580911101681720F4861B8093B3
:10340000110108951092110108958091100168171B
:1034100020F4861B809310010895109210010895E6
:1034200080910F01681720F4861B80930F01089587
:1034300010920F01089580910E01681720F4861BE9
:1034400080930E01089510920E0108950F931F931B
:103450008732D8F58E3108F080C08E3009F465C00F
:1034600098F4873009F456C08B3009F48AC086304E
:1034700009F089C08091EA01817F8E7F8093EA0103
:1034800081E08093FA0180C0863109F47AC068F443
:10349000803109F078C08091EA0183FB222720F96E
:1034A00091E0922790FB83F949C0893109F469C002
:1034B0008B3109F068C08091EA0181FB222720F955
:1034C00091E0922790FB81F939C0883309F459C003
:1034D00040F48932E9F18533D9F1873209F053C0DC
:1034E00037C08334A9F128F48A3308F44CC08953D7
:1034F00035C0883409F047C00E94310F0FEF13ED3B
:1035000020E3015010402040E1F700C000000E947D
:103510000D1737C09091EA01892F817090FF12C07A
:10352000917F9E7F9093EA012FC08091EA0182FBF8
:10353000222720F991E0922790FB82F98093EA01FB
:103540009923F9F08091EA0181608093EA0119C022
:1035500061E070E080E090E010C08D5141E050E00B
:1035600060E070E08A019B0104C0000F111F221F60
:10357000331F8A95D2F7C901B8010E9400130E9437
:10358000310F81E001C080E01F910F91089580E02C
:10359000089580E00895CF93C82F8091FA0181307B
:1035A00069F018F08230C9F184C0E0910C01F0910B
:1035B0000D018081823209F07EC007C0E0910C01CC
:1035C000F0910D018081823261F48C2F0E94C71A24
:1035D000811104C08C2F0E94261A1DC081E090E04A
:1035E0001AC08C2F0E94C91A811114C0C43179F0FD
:1035F00048F4CB3079F0C03109F061C082E08093AB
:10360000FA0108C0C93219F0C83321F058C010922D
:10361000FA0155C081E0817054C0C93291F120F5A2
:10362000C43179F1B0F4C73009F047C08EE180931E
:10363000130182E3809312018AE08093110184E1F7
:103640008093100188E080930F0188E280930E013F
:1036500034C0CE51C63088F5EC2FF0E0ED5DFE4F62
:1036600080818093F90129C0CE34E9F020F4CB3475
:1036700021F56AE013C0C13579F0C235F1F461E09B
:103680000DC08091F901882319F01092F90115C03D
:1036900081E08093FA0115C061E006C08091F901D4
:1036A0000E9460190AC06AE08091F9010E94D6194F
:1036B00004C01092FA0180E004C081E002C080E002
:1036C000AACFCF9108950E946A1B6894B1110C94FF
:1036D000F91B08950E94DE1B88F09F5798F0B92FC0
:1036E0009927B751B0F0E1F0660F771F881F991F37
:1036F0001AF0BA95C9F714C0B13091F00E94F81BC6
:10370000B1E008950C94F81B672F782F8827B85FD5
:1037100039F0B93FCCF3869577956795B395D9F78E
:103720003EF490958095709561957F4F8F4F9F4F98
:103730000895E89409C097FB3EF4909580957095A4
:1037400061957F4F8F4F9F4F9923A9F0F92F96E9ED
:10375000BB279395F695879577956795B795F11162
:10376000F8CFFAF4BB0F11F460FF1BC06F5F7F4FFF
:103770008F4F9F4F16C0882311F096E911C0772311
:1037800021F09EE8872F762F05C0662371F096E81A
:10379000862F70E060E02AF09A95660F771F881FE9
:1037A000DAF7880F9695879597F9089557FD905801
:1037B000440F551F59F05F3F71F04795880F97FBF5
:1037C000991F61F09F3F79F08795089512161306AF
:1037D0001406551FF2CF4695F1DF08C016161706DE
:1037E0001806991FF1CF8695710561050894089513
:1037F000E894BB2766277727CB0197F908950E94A5
:10380000111C0C948B1C0E947D1C38F00E94841C9F
:1038100020F0952311F00C94741C0C947A1C0C94D9
:10382000F91B0E94D61B78F39923C9F35523B9F3EA
:10383000950F50E0551FAA27EE27FF27BB2700242E
:103840000894679520F4E20FF31FB41F0A1E220F9D
:10385000331F441FAA1F6695A9F7779530F4F30F1D
:10386000B41F0A1E121E08F46395330F441FAA1FCB
:10387000221F769599F7879520F4B40F0A1E121E21
:10388000631F440FAA1F221F331F8695A9F7862F97
:10389000712D602D11249F5750409AF0F1F088232C
:1038A0004AF0EE0FFF1FBB1F661F771F881F915046
:1038B0005040A9F79E3F510580F00C94741C0C9465
:1038C000F91B5F3FE4F3983ED4F3869577956795AF
:1038D000B795F795E7959F5FC1F7FE2B880F911D70
:1038E0009695879597F9089597F99F6780E870E016
:1038F00060E008959FEF80EC089500240A94161666
:10390000170618060906089500240A9412161306CD
:10391000140605060895092E0394000C11F488235B
:1039200052F0BB0F40F4BF2B11F460FF04C06F5F77
:103930007F4F8F4F9F4F08950024552704C0080ED6
:10394000591F880F991F009729F076956795B8F34E
:103950007105B9F7802D952F089597FB072E16F462
:10396000009407D077FD09D00E94C71C07FC05D042
:103970003EF4909581959F4F0895709561957F4F86
:103980000895EE0FFF1F0590F491E02D0994AA1BF6
:10399000BB1B51E107C0AA1FBB1FA617B70710F03A
:1039A000A61BB70B881F991F5A95A9F7809590956C
:0A39B000BC01CD010895F894FFCF8B
:1039BA000579030704E403B0037C0301E001280846
:1039CA00140A321E3F4D360703BA028402300249F6
:0E39DA0002620201020304050607080900004C
:00000001FF
