:100000000C94A4010C94E8010C94E8010C94E80110
:100010000C94E8010C94E8010C94E8010C94E801BC
:100020000C94E8010C94E8010C94E8010C949B07F3
:100030000C94E8010C9472160C94E8010C94E801FD
:100040000C94E8010C94E8010C94E8010C94D91686
:100050000C94E8010C94E8010C94E8010C94E8017C
:100060000C94E8010C94E8010C94E8010C94E8016C
:100070000C94E80162026402660268026A026C0281
:100080006E02700272027402760278027A027C02B8
:100090007E02800282026D088F087A098F087A0931
:1000A000D108F4087A0949095C09330C330C610C56
:1000B000610CB60CF20CE30EE30E0A0DE30E010E1A
:1000C000010EBD0EE30EE30ED10EF1A1000000E71C
:1000D000000000000000E1E50000000050000058B2
:1000E0004A4D52570000E3000000000056555E5B89
:1000F0004B4E636138002F332D273413001D2B0422
:10010000351E2914001B39163A1F641A00063C07D5
:100110003B203D080519170922210A1511101C0D55
:1001200023240B180036300E2E253F0CC037400F0D
:1001300041260012E60000000046E24745282A3129
:100140004243440000E40000E03E004851535C5943
:100150004C002C5F4F545D5A490062600000000162
:10016000000000000000010100000000010000018B
:100170000101010100000100000000000101010176
:100180000101010101000101010101010001010161
:100190000101B20100010101B30101010001B5013A
:1001A000B401B101010101010101010101010101DC
:1001B00001010101000101010101A9010101AF01DA
:1001C000AD0100010100000000A701A5010101012E
:1001D000AEACAB000001000001AA00A601010101C4
:1001E0000100010101010101010001011E034D0097
:1001F00061006A006500730074006F0075006300A1
:100200006800200054004B004C0000000E03430027
:100210006F007300740061007200000004030904A1
:1002200009025400030100A0320904000001030187
:100230000100092111010001223F00070581030887
:10024000000A090401000103010200092111010053
:1002500001224D000705820308000A09040200017B
:100260000300000009211101000122360007058367
:100270000308000A1201100100000008EDFE5060A2
:1002800004010102000105010980A1018502160196
:100290000026B7001A01002AB700751095018100E9
:1002A000C0050C0901A1018503160100269C021A54
:1002B00001002A9C02751095018100C00501090208
:1002C000A1010901A1000509190129051500250150
:1002D00095057501810295017503810105010930BC
:1002E00009311581257F9502750881060938158128
:1002F000257F950175088106050C0A3802158125B0
:100300007F950175088106C0C005010906A1010598
:100310000719E029E7150025019508750181029567
:1003200001750881010508190129059505750191D7
:10033000029501750391010507190029FF15002594
:10034000FF950675088100C011241FBECFEFD4E0D1
:10035000DEBFCDBF04B603FE24C080910802909199
:100360000902A0910A02B0910B028730904BA7407E
:10037000B04BB9F4109208021092090210920A02CE
:1003800010920B0214BE84B7877F84BF88E10FB63A
:10039000F89480936000109260000FBEE0E0F8E3F4
:1003A000099511E0A0E0B1E0EEE6F9E302C00590A6
:1003B0000D92AE32B107D9F722E0AEE2B1E001C052
:1003C0001D92A830B207E1F70E94EE040C94B51C10
:1003D0000C940000272F30E0E62FF0E0823090F4FC
:1003E00090E062E170E00E94761C8E0F9F1F43E058
:1003F000880F991F4A95E1F7820F931F84539F4FEF
:10040000FC0109C083E0EE0FFF1F8A95E1F7E20FC0
:10041000F31FE453FF4F84910895803C29F4EAECE4
:10042000F0E085919491089580E090E008958AB17C
:100430008B678AB98BB184788BB908950E941702B3
:1004400087B187B984B114B888B188B985B18FEF05
:1004500085B9EEE4F1E0AEE2B1E0119211921192B1
:1004600011921D921D921D921D9281E0EE36F807A9
:10047000A1F708953F924F925F926F927F928F9271
:100480009F92AF92BF92CF92DF92EF92FF920F9323
:100490001F93CF93DF93C0E0D0E033243394C12C7B
:1004A000D12C7601C3948C2F90E0FC013197E1317F
:1004B000F10528F4E65CFF4F8BB10C949B1C8BB1CB
:1004C0008B6221C080671FC08B601DC088661BC007
:1004D000836019C08B6317C0886715C0816613C01D
:1004E000896611C081670FC08A660DC082660BC025
:1004F000896709C0806607C0836405C0836103C043
:100500008B6101C083628BB980E18A95F1F793B169
:1005100095FB992790F9932583B18095881F8827AB
:10052000881F880F892B1C9B02C020E001C024E09B
:10053000822B1E9B02C020E001C028E0282B199BC3
:1005400002C090E001C090E1922B189B02C030E005
:1005500001C030E2392B1B9B02C020E001C020E427
:10056000232B1A9B02C090E001C090E8292B460182
:1005700057010C2E04C0880C991CAA1CBB1C0A94A1
:10058000D2F760910001EEE2F1E080E090E0422FCE
:1005900050E0408051806280738093018201082185
:1005A00019212A213B2171E0012B022B032B09F495
:1005B00070E021E030E0082E02C0220F331F0A94C1
:1005C000E2F724233523A1E0232B09F4A0E07A17D6
:1005D00049F0482459246A247B2440825182628253
:1005E000738265E0019634968830910591F66093A8
:1005F00000010E9417022196C231D10509F053CFA4
:10060000809100018823E1F08150809300018823CC
:1006100039F08FE99FE00197F1F700C0000010C0AA
:10062000CEE4D1E0EEE2F1E081919191A191B1911E
:1006300089939993A993B99391E0EE34F907A1F7BF
:1006400081E0DF91CF911F910F91FF90EF90DF90AC
:10065000CF90BF90AF909F908F907F906F905F9062
:100660004F903F900895E82FF0E0EE0FFF1FEE0F40
:10067000FF1FE25BFE4F608171818281938108954B
:10068000CF93DF93CEE4D1E06991799189919991EB
:100690000E94111681E0CE36D807B1F7DF91CF91D5
:1006A000089597B1906697B981FF02C0469801C03E
:1006B000469A82FF02C045980895459A0895809110
:1006C00076010895CF93DF9300D01F92CDB7DEB7A8
:1006D0002091FF01243019F523E029839B838A832D
:1006E0002093E9008FEF9091E800815095FD06C0BE
:1006F00095ED9A95F1F700008111F5CF8091E80012
:1007000085FF0DC040E050E063E070E0CE0101964F
:100710000E94A0058091E8008E778093E8000F90FA
:100720000F900F90DF91CF910895CF93DF9300D07A
:100730001F92CDB7DEB72091FF01243021F522E0D2
:1007400029839B838A8383E08093E9008FEF9091D4
:10075000E800815095FD06C095ED9A95F1F70000EF
:100760008111F5CF8091E80085FF0DC040E050E099
:1007700063E070E0CE0101960E94A0058091E80040
:100780008E778093E8000F900F900F90DF91CF91BC
:1007900008952091FF012430F1F422E02093E90034
:1007A0002FEF3091E800215035FD06C035ED3A9528
:1007B000F1F700002111F5CF2091E80025FF0BC0D3
:1007C00040E050E065E070E00E94A0058091E80004
:1007D0008E778093E8000895CF93DF93EC018091AA
:1007E000FF01843039F581E08093E9008FEF90912B
:1007F000E800815095FD06C095ED9A95F1F700004F
:100800008111F5CF8091E80085FF14C040E050E0F1
:1008100068E070E0CE010E94A0058091E8008E772C
:100820008093E80088E0FE01AEE6B1E001900D9211
:100830008A95E1F7DF91CF9108958091FE018111B2
:1008400009C00E9438070E948B078091E2008460F3
:100850008093E20008951092FE010895089542E009
:1008600061EC81E00E94B20642E061EC82E00E940D
:10087000B20642E061EC83E00C94B2068091010282
:10088000833009F453C030F4813071F0823009F4C0
:100890008CC008958A3009F478C08B3009F45EC0AA
:1008A000893009F09AC020C080910002813A09F095
:1008B00094C08091E800877F8093E80080910402D3
:1008C00090910502892B21F060E080E090E003C068
:1008D00068E08EE691E070E00E94EB058091E80010
:1008E0008B778093E800089580910002813209F0AF
:1008F00074C08091040290910502892B09F06DC0AB
:100900008091E800877F8093E8008091E80082FD75
:1009100005C08091FF018111F8CF5FC08091F10087
:10092000809376018091E8008B7753C0809100021C
:10093000813A09F052C08091040290910502892BFE
:1009400009F04BC08091E800877F8093E800809198
:10095000E80080FFFCCF80910B0136C0809100023F
:100960008132D9F58091040290910502892BA9F575
:100970008091E800877F8093E8000E94E7068091DD
:10098000020280930B010C94040F809100028132CB
:1009900021F58091E800877F8093E8000E94E706B8
:1009A0008091030280937701089580910002813A3B
:1009B000A1F48091E800877F8093E8008091E800AF
:1009C00080FFFCCF809177018093F1008091E80057
:1009D0008E778093E8000C94E706089584B7877FAC
:1009E00084BF88E10FB6F894809360001092600095
:1009F0000FBE90E080E80FB6F8948093610090936A
:100A000061000FBE0E94040A0E9438070E948B07F3
:100A10008091E20084608093E20078948091FF01ED
:100A2000843019F00E949309F9CF0E94060A81E0F0
:100A300091E00E94B0098091FF01853069F40E9425
:100A400033168091FD018823B1F30E945B16882341
:100A500091F30E948A05EFCF0E940A0A0E9493092F
:100A6000EACF292F332723303105A9F06CF4213048
:100A7000310509F442C02230310509F043C084E554
:100A800090E020E232E042C021323105C9F022324A
:100A9000310519F137C099278130910541F0823035
:100AA000910541F0892B71F5ECE1F2E005C0ECE035
:100AB000F2E002C0ECEEF1E0849190E09F0126C0EC
:100AC000633000F5E62FF0E0EE0FFF1FE35EFE4F10
:100AD0002081318189E090E019C0633098F4E62FDD
:100AE000F0E0DF01AA0FBB1FA95EBE4F2D913C9124
:100AF000EC5EFE4F808190E009C082E190E024E747
:100B000032E004C080E090E020E030E0FA01318380
:100B10002083089584E089BD86E089BD09B400FE84
:100B2000FDCF8091D8008F7D8093D8008091E00028
:100B300082608093E0008091E00081FDFCCF089509
:100B4000CF92DF92EF92FF920F931F93CF93DF9399
:100B50007C018B01EA010E940807811133C02097B4
:100B600031F088819981081B190BE80EF91EC12C00
:100B7000D12C0115110529F18091E80085FD16C0E1
:100B80008091E8008E778093E8000E949309209777
:100B900041F0888199818C0D9D1D9983888385E022
:100BA00011C00E940807882321F30CC0F70181912E
:100BB0007F018093F10001501109FFEFCF1ADF0A86
:100BC000D8CF80E0DF91CF911F910F91FF90EF90F0
:100BD000DF90CF90089520910602309107022617EA
:100BE000370748F06115710539F42091E8002E7738
:100BF0002093E80001C0B90120E061157105D1F131
:100C00003091FF01332309F443C0353009F442C069
:100C10003091E80033FD40C03091E80032FF06C05B
:100C20008091E80082FF29C080E008953091E800BB
:100C300030FFE3CF2091F20030E0FC01281B390B9C
:100C4000CF01820F931F6115710549F0883091051E
:100C500030F481918093F10061507109F1CF21E06E
:100C6000089709F020E08091E8008E778093E800F3
:100C7000CF01C3CF2111C4CFD3CF8091FF018823EF
:100C800039F0853039F08091E80083FFC9CF04C086
:100C900082E0089583E0089581E00895209106029E
:100CA000309107022617370748F06115710539F4AE
:100CB0002091E8002E772093E80001C0B90120E0E0
:100CC00061157105D9F13091FF01332309F444C056
:100CD000353009F443C03091E80033FD41C0309114
:100CE000E80032FF06C08091E80082FF2AC080E061
:100CF00008953091E80030FFE3CF2091F20030E01A
:100D0000FC01281B390BC9018E0F9F1F611571054E
:100D100051F08830910538F484918093F100319638
:100D200061507109F0CF21E0089709F020E080912F
:100D3000E8008E778093E800CF01C2CF2111C3CFA6
:100D4000D2CF8091FF01882339F0853039F080912E
:100D5000E80083FFC8CF04C082E0089583E00895CF
:100D600081E00895982F953058F59093E9009817F1
:100D700039F07091EC002091ED005091F00003C02B
:100D8000242F762F50E021FF19C03091EB003E7FD9
:100D90003093EB003091ED003D7F3093ED003091CA
:100DA000EB0031603093EB007093EC002093ED008A
:100DB0005093F0002091EE0027FF07C09F5FD3CF34
:100DC0008F708093E90081E0089580E0089580911C
:100DD000000287FD05C08091E80080FF0EC012C0B0
:100DE0008091E80082FD05C08091FF018111F8CF5C
:100DF00008958091E8008B7708C08091FF018111F0
:100E0000EACF08958091E8008E778093E8000895F6
:100E10008091E4009091E50045E62091EC0020FFF0
:100E200021C02091E80020FD21C02091FF01222354
:100E300089F0253089F02091EB0025FD0FC020912D
:100E4000E4003091E5002817390739F3415041F0AB
:100E5000C901E3CF82E0089583E0089581E0089519
:100E600084E008952091E80022FFDFCF80E008951C
:100E70000E9495070E949807E0EEF0E08081816073
:100E80008083E8EDF0E080818F77808319BCE3E612
:100E9000F0E08081816080831092FE0108950E94BD
:100EA00095070E9498078091D8008F778093D8008B
:100EB0008091D80080688093D8008091D8008F7D81
:100EC0008093D80084E089BD86E089BD09B400FE26
:100ED000FDCF1092FF011092FB011092FD011092C4
:100EE000FC0142E060E080E00E94B2068091E100F7
:100EF0008E7F8093E1008091E20081608093E20028
:100F00008091E20088608093E2008091E0008E7F13
:100F10008093E0000895E3E6F0E080818E7F808397
:100F200081E08093FE010C944F071092E200089537
:100F30001092E10008951F920F920FB60F921124A4
:100F40002F933F934F935F936F937F938F939F93D1
:100F5000AF93BF93EF93FF938091E10082FF0BC0AB
:100F60008091E20082FF07C08091E1008B7F809337
:100F7000E1000E9492098091E10080FF18C08091F9
:100F8000E20080FF14C08091E2008E7F8093E20037
:100F90008091E20080618093E2008091D8008062BD
:100FA0008093D80019BC1092FF010E942B048091FD
:100FB000E10084FF30C08091E20084FF2CC084E017
:100FC00089BD86E089BD09B400FEFDCF8091D800BF
:100FD0008F7D8093D8008091E1008F7E8093E10027
:100FE0008091E2008F7E8093E2008091E200816038
:100FF0008093E2008091FB01882311F084E007C018
:101000008091E30087FF02C083E001C081E080930C
:10101000FF010E941D048091E10083FF24C08091A4
:10102000E20083FF20C08091E100877F8093E10090
:1010300082E08093FF011092FB018091E1008E7F9E
:101040008093E1008091E2008E7F8093E2008091A6
:10105000E20080618093E20042E060E080E00E9474
:10106000B2060E942E04FF91EF91BF91AF919F9124
:101070008F917F916F915F914F913F912F910F9041
:101080000FBE0F901F9018951F93CF93DF93CDB78E
:10109000DEB7AA970FB6F894DEBF0FBECDBFE0E073
:1010A000F2E08091F100819322E0E830F207C9F785
:1010B0000E943E048091E80083FF1CC12091000241
:1010C00030910102832F90E08A30910508F012C11F
:1010D000FC01E55BFF4F0C949B1C203881F022380B
:1010E00009F008C1809104028F708093E90080911B
:1010F000EB0085FB882780F91092E90006C08091FB
:10110000FC019091FD01911182609091E800977F20
:101110009093E8008093F1001092F100C5C0822FF7
:101120008D7F09F0E7C0222319F0223061F0E2C080
:1011300080910202813009F0DDC0333009F080E097
:101140008093FD0128C080910202811124C020916A
:1011500004022F7009F4CEC02093E9008091EB00C7
:1011600080FF19C08091EB00333011F4806211C010
:1011700080618093EB0081E090E0022E01C0880F37
:101180000A94EAF78093EA001092EA008091EB005B
:1011900088608093EB001092E9008091E800877FDF
:1011A00086C02111A7C0109102021F778091E30031
:1011B0008078812B8093E3008091E800877F809383
:1011C000E8000E94E7068091E80080FFFCCF809154
:1011D000E30080688093E300112311F083E001C0F5
:1011E00082E08093FF0186C02058223008F082C040
:1011F00080910202909103028C3D23E0920779F5E1
:1012000083E08A838AE289834FB7F894DE011396DC
:1012100020E03EE051E2E32FF0E050935700E491EC
:1012200020FF03C0E295EF703F5FEF708E2F90E0DC
:10123000EA3010F0C79601C0C0968D939D932F5F42
:10124000243149F74FBF8091E800877F8093E80001
:101250006AE270E0CE0101960E94EB0514C0AE0177
:101260004F5F5F4F609104020E943105009709F4BF
:1012700041C02091E800277F2093E800BC018981CC
:101280009A810E944E068091E8008B778093E80057
:1012900031C0203879F58091E800877F8093E8009D
:1012A0008091FB018093F1008091E8008E7780931C
:1012B000E8000E94E7061EC021111CC090910202A6
:1012C0009230C0F48091E800877F8093E80090938B
:1012D000FB010E94E7068091FB01811104C080910F
:1012E000E30087FF02C084E001C081E08093FF013A
:1012F0000E942F048091E80083FF0AC08091E800DB
:10130000877F8093E8008091EB0080628093EB0000
:10131000AA960FB6F894DEBF0FBECDBFDF91CF9176
:101320001F9108950895CF938091FF018823B1F014
:101330008091E9008F709091EC0090FF02C090E8DE
:1013400001C090E0C92FC82B1092E9008091E800FD
:1013500083FD0E944408CF70C093E900CF910895A7
:1013600090937D0180937C010895E0917C01F09140
:101370007D01309721F00190F081E02D099480E00B
:101380000895E0917C01F0917D01309721F0028079
:10139000F381E02D09940895E0917C01F0917D01A5
:1013A000309721F00480F581E02D09940895209173
:1013B0007A0130917B018217930771F090937B0142
:1013C00080937A01E0917C01F0917D01309721F0CA
:1013D0000680F781E02D09940895209178013091DD
:1013E00079018217930771F09093790180937801C6
:1013F000E0917C01F0917D01309721F00084F1852E
:10140000E02D0994089508950C94030A0E949B16F8
:101410000C941E024F925F926F927F929F92AF92B6
:10142000BF92CF92DF92EF92FF920F931F93CF93D1
:10143000DF93CDB7DEB72E970FB6F894DEBF0FBEA1
:10144000CDBF0E943A023FE7A32E31E0B32E00E069
:1014500010E0902E802F0E943303F501C190D190AF
:10146000E190F1905F01C626D726E826F926C1143F
:10147000D104E104F104B1F40F5F1F4F08301105EE
:1014800041F78FEF89838A831B820E94A4168160B3
:10149000782F9D838C8349815A816B818D810E9435
:1014A000E90A5EC02091EA0121FF0AC06B877C87B0
:1014B0008D879E870E9440039E858D857C856B85E8
:1014C00020E030E0422F26013701022E04C076943E
:1014D0006794579447940A94D2F740FE3AC02E83FB
:1014E0009F82C12CD12C7601C39404C0CC0CDD1C8E
:1014F000EE1CFF1C4A95D2F7DC01CB018C219D210B
:10150000AE21BF2121E0892B8A2B8B2B09F420E00F
:1015100028870E94A4168160782F9A8789874E8138
:101520005F8168858A850E94E90AF801EE0FFF1F36
:10153000EE0FFF1FE158FE4F80819181A281B381A0
:101540008C259D25AE25BF2580839183A283B383FF
:1015500007C02F5F3F4F2231310509F0B3CF8CCF49
:101560000E94A01810917E010E94B5091817D9F0A9
:101570000E94B50980937E012E960FB6F894DEBFC7
:101580000FBECDBFDF91CF911F910F91FF90EF90D4
:10159000DF90CF90BF90AF909F907F906F905F90C3
:1015A0004F900C9451032E960FB6F894DEBF0FBEE9
:1015B000CDBFDF91CF911F910F91FF90EF90DF9002
:1015C000CF90BF90AF909F907F906F905F904F9023
:1015D0000895CF93DF93CDB7DEB72B970FB6F8946E
:1015E000DEBF0FBECDBF4F83588769877A878B8751
:1015F000DE01119686E0FD0111928A95E9F785E0FA
:10160000FE01379601900D928A95E1F749815A8142
:101610006B817C818D819E810E94D1112B960FB6AA
:10162000F894DEBF0FBECDBFDF91CF910895CF9369
:10163000C82F882309F498C08CEF8C0F813A48F4A6
:101640008C2F0E94B71A81118FC08C2F0E947314A7
:101650000CC080E28C0F883058F4C77081E001C064
:10166000880FCA95EAF70E94B514CF910C94EE1436
:101670008BE58C0F833078F4C53A29F0C63A31F403
:1016800082E890E005C081E890E002C083E890E045
:10169000CF910C94D70988E58C0F833108F064C092
:1016A000C83A39F1C93A41F1CA3A49F1CB3A51F154
:1016B000CC3A59F1CD3A61F1C03B69F1CE3A71F1C2
:1016C000CF3A79F1C13B81F1C23B89F1C33B91F142
:1016D000C43B99F1C53BA1F1C63BA9F1C73BB1F1B0
:1016E000C83BB9F1C93BC1F1CA3BC9F58AE292E0F6
:1016F00038C082EE90E035C089EE90E032C08AEECC
:1017000090E02FC085EB90E02CC086EB90E029C0E4
:1017100087EB90E026C08CEC90E023C08DEC90E04D
:1017200020C083E891E01DC08AE891E01AC082E9F8
:1017300091E017C084E991E014C081E292E011C009
:1017400083E292E00EC084E292E00BC085E292E078
:1017500008C086E292E005C087E292E002C080E025
:1017600090E0CF910C94ED09CF910895882329F151
:101770009CEF980F913A18F40E9494140DC090E2D7
:10178000980F983058F4877091E001C0990F8A95AE
:10179000EAF7892F0E94BB140C94EE149BE5980F76
:1017A000933020F480E090E00C94D709885A83317C
:1017B00020F480E090E00C94ED090895882321F056
:1017C0000E94B5140C94EE140895882321F00E9411
:1017D000BB140C94EE140895CF92DF92EF92FF9217
:1017E0000F931F93CF93DF93CDB7DEB728970FB634
:1017F000F894DEBF0FBECDBF8C0185E0F801DE019D
:10180000119601900D928A95E1F7F801408131819E
:10181000F280258122952F7083819481892B31F06C
:101820003F3F31F481E04F3F19F403C081E001C034
:1018300080E080FDC8C249833A8389819A812F83E1
:101840000E9431149E8388870E9430140E940313E3
:101850004E81E42FE295EF70F0E0EB5AFF4F2F81BD
:1018600068850C949B1C842F807F142F1F70882305
:1018700011F01295107FFF2059F0112309F458C27E
:10188000812F68870E94C5140E94EE14688550C29B
:10189000862F0E94B60B112309F495C2812F0E9456
:1018A000CB1428960FB6F894DEBF0FBECDBFDF91E4
:1018B000CF911F910F91FF90EF90DF90CF900C94FC
:1018C000EE14342F307F842F8F70303211F08295D8
:1018D000807F662319F0613009F12AC0FF20A1F052
:1018E000222381F1213071F528960FB6F894DEBFDE
:1018F0000FBECDBFDF91CF911F910F91FF90EF9061
:10190000DF90CF900C94D514222319F0213009F4E4
:101910005AC28E830E94D8148E818EC1FF2021F07E
:10192000263008F050C20EC0253008F04CC284C1E9
:10193000FF20C1F0222331F0F801958190FFF8C11A
:101940009F70958328960FB6F894DEBF0FBECDBF6B
:10195000DF91CF911F910F91FF90EF90DF90CF908B
:101960000C94DE0B222309F467C1F6C1242F2695BF
:101970002695237030E02115310521F02130310505
:10198000C9F021C2FF2021F0862F942F937002C04E
:1019900080E090E028960FB6F894DEBF0FBECDBF72
:1019A000DF91CF911F910F91FF90EF90DF90CF903B
:1019B0000C94D709FF2021F0862F942F937002C03A
:1019C00080E090E028960FB6F894DEBF0FBECDBF42
:1019D000DF91CF911F910F91FF90EF90DF90CF900B
:1019E0000C94ED09862FFF2019F00E94A81702C061
:1019F0000E94101828960FB6F894DEBF0FBECDBF18
:101A0000DF91CF911F910F91FF90EF90DF90CF90DA
:101A10000C949518842F837009F076C0F110D3C10F
:101A2000262F229526952770220F220F862F8F7042
:101A3000C82ED12CE12CF12C022E04C0CC0CDD1CC4
:101A4000EE1CFF1C0A94D2F764FF10C06FE070E038
:101A500080E090E004C0660F771F881F991F2A95C9
:101A6000D2F7609570958095909503C060E070E026
:101A7000CB01242F269526952370422F50E042302B
:101A80005105D1F04330510559F16C297D298E293A
:101A90009F294130510541F128960FB6F894DEBFD9
:101AA0000FBECDBFDF91CF911F910F91FF90EF90AF
:101AB000DF90CF900C9428136C297D298E299F29C3
:101AC00028960FB6F894DEBF0FBECDBFDF91CF9141
:101AD0001F910F91FF90EF90DF90CF900C944213E5
:101AE0000E942813C701B60128960FB6F894DEBFEE
:101AF0000FBECDBFDF91CF911F910F91FF90EF905F
:101B0000DF90CF900C940E13FF2019F0842F81707A
:101B100001C08695882309F456C1262F2295269563
:101B20002770220F220F862F8F70C82ED12CE12C08
:101B3000F12C022E04C0CC0CDD1CEE1CFF1C0A9400
:101B4000D2F764FF10C06FE070E080E090E004C066
:101B5000660F771F881F991F2A95D2F76095709599
:101B60008095909503C060E070E0CB01242F26950E
:101B700026952370422F50E042305105D1F043307A
:101B8000510559F16C297D298E299F294130510534
:101B900041F128960FB6F894DEBF0FBECDBFDF919E
:101BA000CF911F910F91FF90EF90DF90CF900C9409
:101BB000FC136C297D298E299F2928960FB6F8944D
:101BC000DEBF0FBECDBFDF91CF911F910F91FF9070
:101BD000EF90DF90CF900C9416140E94FC13C70175
:101BE000B60128960FB6F894DEBF0FBECDBFDF91C9
:101BF000CF911F910F91FF90EF90DF90CF900C94B9
:101C0000E213603F49F118F4603E48F48CC0623F33
:101C100009F451C0E0F1633F09F461C084C0162F9C
:101C20001F70842F8F71FF2021F00E947B13812F62
:101C300089CE0E949C13812F28960FB6F894DEBFA0
:101C40000FBECDBFDF91CF911F910F91FF90EF900D
:101C5000DF90CF900C94E50BFF20A9F0253008F021
:101C6000B2C0842F8F7128960FB6F894DEBF0FBED6
:101C7000CDBFDF91CF911F910F91FF90EF90DF903B
:101C8000CF900C94C113263008F09DC0EACFFF20FE
:101C9000A1F0842F8F7128960FB6F894DEBF0FBE87
:101CA000CDBFDF91CF911F910F91FF90EF90DF900B
:101CB000CF900C947B13FF2061F3842F8F712896B3
:101CC0000FB6F894DEBF0FBECDBFDF91CF911F914D
:101CD0000F91FF90EF90DF90CF900C949C13FF201A
:101CE00091F0842F8F7128960FB6F894DEBF0FBE47
:101CF000CDBFDF91CF911F910F91FF90EF90DF90BB
:101D0000CF900C94661328960FB6F894DEBF0FBEE2
:101D1000CDBFDF91CF911F910F91FF90EF90DF909A
:101D2000CF900C945C13FF20A1F0222309F4B1CFD3
:101D3000862F28960FB6F894DEBF0FBECDBFDF9179
:101D4000CF911F910F91FF90EF90DF90CF900C9467
:101D5000170B222309F4B1CF862F28960FB6F894DB
:101D6000DEBF0FBECDBFDF91CF911F910F91FF90CE
:101D7000EF90DF90CF900C94B60B4F70C8010E948B
:101D8000E21528960FB6F894DEBF0FBECDBFDF91E7
:101D9000CF911F910F91FF90EF90DF90CF900C9417
:101DA00083124F70C80128960FB6F894DEBF0FBE9D
:101DB000CDBFDF91CF911F910F91FF90EF90DF90FA
:101DC000CF900C94E51528960FB6F894DEBF0FBEA1
:101DD000CDBFDF91CF911F910F91FF90EF90DF90DA
:101DE000CF9008950E94D2140E94A7140E94EE146E
:101DF0000E9443190E94951880E090E00E94D70944
:101E000080E090E00C94ED090E94C2140C94F20E54
:101E10000E943114292F22952F7030E02C3031058B
:101E20004CF42A3031056CF422503109223031054E
:101E300090F407C02C30310551F02F30310539F0C6
:101E40000AC0803E10F0803F31F481E0089593FB9A
:101E5000882780F9089580E00895CF93DF9300D01C
:101E600000D01F92CDB7DEB70F900F900F900F905C
:101E70000F90DF91CF910895CF93DF9300D000D0E2
:101E800000D0CDB7DEB726960FB6F894DEBF0FBEF2
:101E9000CDBFDF91CF910895CF93DF93C0919F0184
:101EA0008091A001C817A1F0D0E0CE0166E070E0FB
:101EB0000E94761CFC01EF55FE4F408151816281EA
:101EC0007381848195810E943C0F2196C770E8CF71
:101ED000DF91CF9108954091D1015091D20160914D
:101EE000D3017091D4018091D5019091D6010C94C9
:101EF0003C0F1F93CF93DF938091D60182958F7013
:101F000009F060C08091D301882309F45BC0A091DF
:101F10009F01D091A0014091D101C091D2012091A7
:101F2000D4013091D50181E04F3F09F080E0182FB6
:101F3000AD1709F447C02115310521F0CF3F21F439
:101F4000812F03C081E001C080E0B0E080FD37C098
:101F5000CD0166E070E00E94761CFC01EF55FE4F5B
:101F60008181C8132CC08081481329C082818111CE
:101F700026C0838194818217930708F40197821BFE
:101F8000930B883C9105D8F48091D6018F708061C5
:101F90008093D601CD0166E070E00E94761CFC01C2
:101FA000EA55FE4F80818F708061808381ED91E0E2
:101FB0000E94EC0BDF91CF911F910C944C0F119666
:101FC000A770B6CFDF91CF911F910895BF92CF92A6
:101FD000DF92EF92FF920F931F93CF93DF93CDB7D2
:101FE000DEB761970FB6F894DEBF0FBECDBF8C0190
:101FF00085E0F801DE011D9601900D928A95E1F7CA
:10200000D8014C911196AC91F801C280E380F48024
:102010005091D1016091D2012091D4013091D5012C
:102020002115310531F06F3F31F481E05F3F19F444
:1020300003C081E001C080E0F82FF170BF2E80FD69
:102040006DC1D090D301DD2009F4F4C07091D601A8
:10205000E216F30638F0C701821B930B883C91050A
:1020600048F099C0209530952E0D3F1D283C310534
:1020700008F091C0872F807F09F054C06A1315C003
:10208000541313C0DC2CC11010C07F7070617093AA
:10209000D6010E946B0F81ED91E00E94EC0B8091C4
:1020A000D601D80115968C936BC1EF2831F0AF3F64
:1020B00031F481E04F3F19F403C081E001C080E0BA
:1020C00080FD03C081E08C2501C080E0B82FB17095
:1020D000FB2E80FF1DC020919F01B091A0012B1706
:1020E00009F429C130E0C90166E070E00E94761C65
:1020F000FC01EF55FE4F8181A81306C08081481373
:1021000003C08281C81204C02F5F3F4F2770E7CF02
:10211000DC2CCC2009F434C18091D60181608093FD
:10212000D60151C06A1308C0541306C0C11004C0C0
:10213000D80115967C93ABC04D87AE878D859E8563
:102140000E94080F882319F1DC2CCC2001F120918A
:10215000D601822F82958F7090E002970CF45FC0B9
:102160008091D1019091D20198878F831986FB8647
:10217000EA862C87CE01079650C06A1731F14D8749
:10218000AE878D859E850E94080F81112FC0C801E2
:102190000E94EC0BA5C0872F807F79F77E2DF98AEE
:1021A000E88A5A2F6C2D89890E942D0F81ED91E0CC
:1021B0000E94EC0BE1EDF1E086E0DF011D928A95D3
:1021C000E9F70E946B0FD12CDBC05413D8CFC1109C
:1021D000D6CFF8017583C8010E94EC0BE1EDF1E068
:1021E00086E0DF011D928A95E9F7CAC0DC2CCC207D
:1021F00071F22091D601822F82958F7090E0029724
:1022000074F08091D1019091D2019A8389831B82CD
:10221000FD82EC822E83CE0101960E94EC0B86E0BB
:10222000F801A1EDB1E001900D928A95E1F70E94CD
:10223000790F71C0E216F30628F0F701E21BF30BE9
:102240009F0104C0209530952E0D3F1D283C31057F
:1022500008F052C0DC2CCC2009F499CF6A132CC0B2
:1022600054132AC08091D60180FD1DC0982F9295ED
:102270009F70C9F0D80115968C9315979F3039F04F
:102280009F5F9295907F8F70892B15968C93C801D4
:102290000E94EC0B86E0F801A1EDB1E001900D92F7
:1022A0008A95E1F738C086E0F801A1EDB1E0019030
:1022B0000D928A95E1F764C04D87AE878D859E8526
:1022C0000E94080F882379F086E0F801A1EDB1E0C3
:1022D00001900D928A95E1F70E94790F0E946B0F91
:1022E000DD24D3944DC08091D60181608093D601C6
:1022F000C8010E94EC0B44C07E2DF98AE88A5A2F4F
:102300006C2D89890E942D0FE1EDF1E086E0DF015F
:102310001D928A95E9F70E946B0F32C0CC2009F418
:1023200036CF4D87AE878D859E850E94080F882306
:1023300009F42DCFC9CF4D87AE878D859E850E942C
:102340003114292F22952F7030E0223031052CF4E2
:102350009F7041F0811106C00CC0243031052CF46F
:102360009F7049F4805E883020F0C8010E94EC0B19
:10237000BF2CDB2C05C0F8019581907F99F7F9CF30
:102380008D2D61960FB6F894DEBF0FBECDBFDF91E5
:10239000CF911F910F91FF90EF90DF90CF90BF9062
:1023A0000895CF93DF93CDB7DEB72C970FB6F8948F
:1023B000DEBF0FBECDBF4F83588769877A878B8773
:1023C0009C87CE0107960E94E60F8823C1F02F81DB
:1023D00038858A859B85892B31F03F3F11F080E05D
:1023E00003C02F3FE1F781E081116FC04F81588515
:1023F00069857A858B859C850E943C0F66C086E046
:10240000FE013796DE01119601900D928A95E1F753
:10241000FF81E8854A855B854115510531F0EF3F25
:1024200031F481E0FF3F19F403C081E001C080E096
:1024300080FD4BC08091A00190E09C012F5F3F4F39
:102440002770332760919F0170E02617370709F442
:1024500043C0F983EA835D834C8366E070E00E94A9
:10246000761CDC01AF55BE4F86E0FE01319601902F
:102470000D928A95E1F72093A0010E944C0F25C090
:1024800090E066E070E00E94761C8F559E4F0E949F
:10249000E60F882379F180919F0190E066E070E07B
:1024A0000E94761CFC01EF55FE4F408151816281F4
:1024B0007381848195810E943C0F80919F0190E0FF
:1024C00001968770992780939F0180919F01909139
:1024D000A0018913D5CF0EC00E94040F1092A00155
:1024E00010929F01E1EDF1E086E0DF011D928A95F7
:1024F000E9F7EBCF2C960FB6F894DEBF0FBECDBF39
:10250000DF91CF910895EF92FF920F931F93CF9396
:10251000DF93FC01009709F46FC0F12CEE24E394E3
:10252000EF0121968491843740F4843008F055C03F
:10253000813081F0823021F15FC0853709F447C0D6
:10254000C0F19CE7980F903708F056C08F770E9433
:10255000B60B45C08F010E5F1F4FFE01849190E2C4
:10256000980F983050F48770FE2D01C0FF0F8A95A8
:10257000EAF78F2F0E94C51415C00E94170B14C0D4
:102580008F010E5F1F4FFE01849190E2980F9830EB
:1025900068F48770FE2D01C0FF0F8A95EAF78F2F30
:1025A0000E94CB140E94EE14E80119C00E94B60BE1
:1025B000FBCFCF010296FE01C491CC2361F0EFE97D
:1025C000FFE03197F1F700C00000C150F6CFCF0116
:1025D0000296FE01F490EC0102C00E94170B8F2DB1
:1025E000882341F0EFE9FFE03197F1F700C00000E8
:1025F0008150F6CFFE0194CFDF91CF911F910F91C3
:10260000FF90EF90089508956093DB017093DC01D3
:102610008093DD019093DE010C94F20E0F931F93D3
:102620000091DB011091DC012091DD013091DE0190
:10263000062B172B282B392B0093DB011093DC0181
:102640002093DD013093DE011F910F910C94F20E67
:102650000F931F930091DB011091DC012091DD01AC
:102660003091DE0106231723282339230093DB0151
:102670001093DC012093DD013093DE011F910F9157
:102680000C94F20E0F931F930091DB011091DC016B
:102690002091DD013091DE010627172728273927F1
:1026A0000093DB011093DC012093DD013093DE0108
:1026B0001F910F910C94F20E1092D7011092D80135
:1026C0001092D9011092DA010C94F20E41E050E020
:1026D00060E070E004C0440F551F661F771F8A95A5
:1026E000D2F74093D7015093D8016093D9017093EA
:1026F000DA010C94F20E41E050E060E070E004C0BA
:10270000440F551F661F771F8A95D2F78091D70116
:102710009091D801A091D901B091DA01842B952B29
:10272000A62BB72B8093D7019093D801A093D90102
:10273000B093DA010C94F20E41E050E060E070E0FA
:1027400004C0440F551F661F771F8A95D2F7409526
:102750005095609570958091D7019091D801A09186
:10276000D901B091DA0184239523A623B72380935E
:10277000D7019093D801A093D901B093DA010C94BA
:10278000F20E41E050E060E070E004C0440F551FDD
:10279000661F771F8A95D2F78091D7019091D80153
:1027A000A091D901B091DA0184279527A627B727F0
:1027B0008093D7019093D801A093D901B093DA0107
:1027C0000C94F20E0F931F930091D7011091D80132
:1027D0002091D9013091DA01062B172B282B392BA8
:1027E0000093D7011093D8012093D9013093DA01D7
:1027F0001F910F910C94F20E0F931F930091D7012C
:102800001091D8012091D9013091DA0106231723C4
:10281000282339230093D7011093D8012093D9019D
:102820003093DA011F910F910C94F20E0F931F93C6
:102830000091D7011091D8012091D9013091DA018E
:1028400006271727282739270093D7011093D80187
:102850002093D9013093DA011F910F910C94F20E5D
:102860000895CF92DF92EF92FF920F931F93CF9331
:10287000DF93EC01C090DB01D090DC01E090DD0142
:10288000F090DE018091D7019091D801A091D901FB
:10289000B091DA01C82AD92AEA2AFB2A0FE110E00E
:1028A000B701A601002E04C0769567955795479508
:1028B0000A94D2F740FF07C0BE01802F0E94141572
:1028C0008130910539F40150110950F7BE0180E0C3
:1028D0000E941415DF91CF911F910F91FF90EF90FF
:1028E000DF90CF90089540910C0150910D0120E0B0
:1028F00030E09FEFFA01E20FF31F6281681799F051
:102900009F3F19F4611101C0922F2F5F3F4F263076
:10291000310581F79F3F39F0FA01E90FF11D97FD6D
:10292000FA9582830895089540910C0150910D010C
:1029300020E030E0FA01E20FF31F9281981301C00A
:1029400012822F5F3F4F26303105A1F7089581E0B5
:1029500090E0E0910C01F0910D01E80FF91F108259
:10296000019688309105A9F708959091E901982B77
:102970009093E901089580959091E90198239093AF
:10298000E90108951092E90108959091E801982BCA
:102990009093E801089580959091E8019823909391
:1029A000E80108951092E80108958093DF010895E9
:1029B0001092DF01089540910C0150910D0120E02B
:1029C00030E080E0FA01E20FF31F918191118F5FF7
:1029D0002F5F3F4F27303105A9F70895E0910C0193
:1029E000F0910D018091E9018083E0910C01F0915B
:1029F0000D0180819091E801892B80839091DF0106
:102A0000992361F0E0910C01F0910D018081892BF7
:102A100080830E94DB1481111092DF0180910C01F0
:102A200090910D010C94C109CF93DF930E94EA01AC
:102A300090E4980F903218F40E940D02C0C08D3BB4
:102A400060F4883A90F5853A38F5843010F5813095
:102A500009F06DC0C1E0D0E0B1C0883E98F4803E7E
:102A6000C0F48F3B09F063C00E94040F2FEF80E792
:102A700092E0215080409040E1F700C000000E94A9
:102A8000FE169CC0803F08F452C0C82FD0E0D0652D
:102A900095C0C82FD0E092C0853A09F44BC0863A61
:102AA00009F04BC0C2E8D0E489C0883A09F448C0B4
:102AB000893A09F448C08A3A09F448C08B3A09F4C3
:102AC00048C08C3A09F448C08B3B09F448C08C3BA1
:102AD00009F448C08D3A09F448C0803B09F448C065
:102AE0008E3A09F448C08F3A09F448C0813B09F492
:102AF00048C0823B09F448C0833B09F448C0843B8A
:102B000009F448C0853B09F448C0863B09F448C035
:102B1000873B09F448C0883B09F448C0893B09F465
:102B200048C08A3B09F048C0CAE2D6E447C0C0E0CA
:102B3000D0E044C0C1E8D0E441C0C3E8D0E43EC026
:102B4000C2EED4E43BC0C9EED4E438C0CAEED4E44B
:102B500035C0C5EBD4E432C0C6EBD4E42FC0C3EB20
:102B6000D4E42CC0C4EBD4E429C0C7EBD4E426C021
:102B7000CCECD4E423C0CDECD4E420C0C3E8D5E44D
:102B80001DC0CAE8D5E41AC0C2E9D5E417C0C4E93B
:102B9000D5E414C0C1E2D6E411C0C3E2D6E40EC04D
:102BA000C4E2D6E40BC0C5E2D6E408C0C6E2D6E46F
:102BB00005C0C7E2D6E402C0C0E0D4E4CE01DF9194
:102BC000CF91089580E090E0089508958295282F90
:102BD0002C7C26952695982F9373990F990F922BFD
:102BE000892F8A7A86959575990F892B08951F9359
:102BF000CF93DF931F92CDB7DEB799830E94E6157E
:102C0000182F9981892F0E94E615212F30E0322F4D
:102C10002227A901482BCA010F90DF91CF911F9164
:102C20000895CF92DF92EF92FF92CF93DF936B01E3
:102C30007C01CB010E94F715EC01C7010E94F7153A
:102C40006C01CE01A0E0B0E077276627E12CF12CE3
:102C50006C297D298E299F29DF91CF91FF90EF90DC
:102C6000DF90CF9008958091FF01843009F1109298
:102C7000EB0120E488E190E00FB6F894A8958093EA
:102C800060000FBE2093600083B7817F846083BFA4
:102C900083B7816083BF7894889583B78E7F83BF25
:102CA00088E10FB6F89480936000109260000FBE28
:102CB000089508950895CF930E9459160E943A02EC
:102CC0000E945A16C0E08C2F0E943303672B682B9A
:102CD000692B29F4CF5FC830B1F780E001C081E0F3
:102CE000CF9108951F920F920FB60F9211248F93D8
:102CF0009F93AF93BF938091EB01811113C080919B
:102D0000EC019091ED01A091EE01B091EF0141969F
:102D1000A11DB11D8093EC019093ED01A093EE01F4
:102D2000B093EF01BF91AF919F918F910F900FBE24
:102D30000F901F90189582E084BD93E095BD9AEFA7
:102D400097BD80936E0008952FB7F8948091EC01A1
:102D50009091ED01A091EE01B091EF012FBF089588
:102D6000CF92DF92EF92FF920F931F932FB7F894B9
:102D70004091EC015091ED016091EE017091EF01F5
:102D80002FBF6A017B01EE24FF248C0120E030E09C
:102D9000C016D106E206F30610F441505109481B53
:102DA000590BCA011F910F91FF90EF90DF90CF90C8
:102DB00008951F920F920FB60F9211248F939F9335
:102DC000AF93BF938091EC019091ED01A091EE0142
:102DD000B091EF010196A11DB11D8093EC0190937C
:102DE000ED01A093EE01B093EF01BF91AF919F91E0
:102DF0008F910F900FBE0F901F9018950E9438076B
:102E0000F8942FEF87EA91E6215080409040E1F757
:102E100000C0000087E090EBDC01809308029093F3
:102E20000902A0930A02B0930B022CE088E190E023
:102E30000FB6F894A895809360000FBE20936000B1
:102E4000FFCF8091F20180FF0CC08091110190E0D2
:102E500065E070E00E94761C95958795959587951D
:102E60002EC081FF0AC08091110190E065E070E002
:102E70000E94761C9595879522C082FF08C080919C
:102E8000110190E065E070E00E94761C18C020916E
:102E9000F3012223D1F030911001231780F78091A4
:102EA000110190E065E070E00E94761C622F70E0F6
:102EB0000E94761C632F70E00E94871CCB01803833
:102EC000910530F4009731F0089585E090E0089581
:102ED0008FE7089581E008958091F20180FF08C096
:102EE00060910F0170E0759567957595679524C0A1
:102EF00081FF06C060910F0170E0759567951CC059
:102F000082FF04C060910F0170E013C09091F30143
:102F10009923D9F020910E019217A0F780910F010B
:102F2000692F70E090E00E94761C622F70E00E9492
:102F3000871C6038710528F46115710521F0862F12
:102F400008958FE7089581E0089561E070E0F4CF7F
:102F5000803F21F40E942117819504C0813F29F40C
:102F60000E9421178093F6010895823F21F40E9468
:102F70002117819504C0833F29F40E942117809373
:102F8000F5010895893F19F40E946C1705C08A3F26
:102F900031F40E946C1781958093F70108958B3F5F
:102FA00021F40E946C17819504C08C3F29F40E9483
:102FB0006C178093F8010895843F21F48091F40107
:102FC000816017C0853F21F48091F401826011C0B7
:102FD000863F21F48091F40184600BC0873F21F487
:102FE0008091F401886005C0883F31F48091F4013C
:102FF00080618093F40108958D3F21F48091F20166
:1030000081600BC08E3F21F48091F201826005C087
:103010008F3F29F48091F20184608093F20108953A
:10302000803F39F48091F60187FF6CC01092F60161
:1030300069C0813F29F48091F6011816BCF362C083
:103040009091F501823F29F497FF5CC01092F50141
:1030500059C0833F19F41916CCF354C0893F41F489
:103060008091F70118160CF04DC01092F7014AC07C
:103070008A3F29F48091F70187FF44C0F6CF8B3F48
:1030800039F48091F80187FF3DC01092F8013AC0F1
:103090008C3F29F48091F8011816BCF333C0843FAB
:1030A00021F48091F4018E7F17C0853F21F4809137
:1030B000F4018D7F11C0863F21F48091F4018B7F54
:1030C0000BC0873F21F48091F401877F05C0883FC2
:1030D00031F48091F4018F7E8093F40113C08D3F11
:1030E00021F48091F2018E7F0BC08E3F21F48091FC
:1030F000F2018D7F05C08F3F29F48091F2018B7F13
:103100008093F2018091F50181110EC08091F6014A
:1031100081110AC08091F701811106C08091F801E8
:10312000811102C01092F301089584EF91E00E9492
:10313000CC090E94A4169093F1018093F0010895A8
:103140001F93CF93DF938091F0019091F1010E9442
:10315000B0169C014091F301442321F080911201AB
:1031600090E007C08091130190E06AE070E00E9457
:10317000761C2817390708F482C08091F501109158
:10318000F601D091F701C091F801811107C011112A
:1031900005C0D11103C0CC2309F471C04F3F19F011
:1031A0004F5F4093F301181624F40E942117809377
:1031B000F5018091F50187FF05C00E9421178195D7
:1031C0008093F501111624F40E9421178093F601D3
:1031D0008091F60187FF05C00E9421178195809399
:1031E000F6016091F501662339F11091F601112382
:1031F00019F1772767FD7095872F972F0E947F1B06
:1032000023E333E343E35FE30E94E31B0E944C1B91
:103210006093F501612F772767FD7095872F972FB2
:103220000E947F1B23E333E343E35FE30E94E31B3E
:103230000E944C1B6093F6011D1624F40E946C172B
:103240008093F7018091F70187FF05C00E946C17FA
:1032500081958093F7011C1624F40E946C178093CB
:10326000F8018091F80187FF05C00E946C178195D5
:103270008093F801DF91CF911F910C949518DF9105
:10328000CF911F910895E4EFF1E085E0DF011D92F9
:103290008A95E9F71092F3011092F20108958330B4
:1032A00081F128F4813059F08230D1F008958530D1
:1032B00009F449C0B8F1863009F456C00895209148
:1032C0001301862F90E0820F911D8F3F910520F40E
:1032D000620F6093130108958FEF80931301089597
:1032E00020911201862F90E0820F911D8F3F910552
:1032F00020F4620F6093120108958FEF8093120102
:10330000089520911101862F90E0820F911D8F3F2B
:10331000910520F4620F6093110108958FEF80935F
:103320001101089520911001862F90E0820F911DC8
:103330008F3F910520F4620F6093100108958FEF85
:1033400080931001089520910F01862F90E0820F45
:10335000911D8F3F910520F4620F60930F01089536
:103360008FEF80930F01089520910E01862F90E03A
:10337000820F911D8F3F910520F4620F60930E0123
:1033800008958FEF80930E010895833011F128F492
:10339000813049F0823091F00895853081F120F13B
:1033A0008630C1F1089580911301681720F4861BBF
:1033B00080931301089510921301089580911201D2
:1033C000681720F4861B8093120108951092120151
:1033D000089580911101681720F4861B80931101D4
:1033E000089510921101089580911001681720F43A
:1033F000861B80931001089510921001089580910A
:103400000F01681720F4861B80930F010895109216
:103410000F01089580910E01681720F4861B809398
:103420000E01089510920E0108958732F8F48E313E
:1034300008F084C08E3009F461C048F4873009F484
:1034400046C08B3009F48DC0863049F126C08631E4
:1034500009F487C020F4803109F461C01EC08931AD
:1034600009F47FC08B3109F43FC017C0883309F4D9
:1034700078C048F4893209F45CC0853309F459C036
:10348000873259F456C0833409F453C020F48A3388
:1034900008F056C002C0883461F080E00895809141
:1034A000EA01817F8E7F8093EA0181E08093FA01B7
:1034B00008950E94040F2FEF83ED90E32150804088
:1034C0009040E1F700C000000E94FE164AC09091B3
:1034D000EA01892F817090FF03C0917F9E7F1CC0FD
:1034E00091609093EA013DC09091EA0191FB882799
:1034F00080F921E0822780FB91F909C09091EA01CF
:1035000092FB882780F921E0822780FB92F9909333
:10351000EA01882331F191609093EA010895909136
:10352000EA0193FB882780F921E0822780FB93F949
:10353000EECF61E070E080E090E00FC023EE01C0CC
:1035400027EC280F61E070E080E090E004C0660F97
:10355000771F881F991F2A95D2F70E9404130E9493
:10356000040F81E0089580E0089580E00895CF93EE
:10357000C82F8091FA01813069F018F08230B1F1E2
:1035800081C0A0910C01B0910D018C91823209F0A3
:103590007BC007C0A0910C01B0910D018C918232CB
:1035A00049F48C2F0E94B31A81111DC08C2F0E94E8
:1035B000151A1AC08C2F0E94B51A811114C0C4317B
:1035C00079F048F4CB3079F0C03109F061C082E085
:1035D0008093FA0108C0C93219F0C83321F058C0ED
:1035E0001092FA0155C081E0817054C0C93291F146
:1035F00020F5C43179F1B0F4C73009F047C08EE14D
:103600008093130182E3809312018AE08093110179
:1036100084E18093100188E080930F0188E2809319
:103620000E0134C0CE51C63088F5EC2FF0E0ED5DD0
:10363000FE4F80818093F90129C0CE34E9F020F457
:10364000CB3421F56AE013C0C13579F0C235F1F40D
:1036500061E00DC08091F901882319F01092F90101
:1036600015C081E08093FA0115C061E006C0809129
:10367000F9010E944F190AC06AE08091F9010E9485
:10368000C51904C01092FA0180E004C081E002C0B4
:1036900080E0AACFCF91089504D06894B1118DC075
:1036A000089570D088F09F5790F0B92F9927B7519F
:1036B000A0F0D1F0660F771F881F991F1AF0BA95F6
:1036C000C9F712C0B13081F077D0B1E0089574C06D
:1036D000672F782F8827B85F39F0B93FCCF38695EC
:1036E00077956795B395D9F73EF490958095709549
:1036F00061957F4F8F4F9F4F0895E89409C097FBC6
:103700003EF490958095709561957F4F8F4F9F4FB8
:103710009923A9F0F92F96E9BB279395F6958795FC
:1037200077956795B795F111F8CFFAF4BB0F11F4BF
:1037300060FF1BC06F5F7F4F8F4F9F4F16C0882366
:1037400011F096E911C0772321F09EE8872F762F9C
:1037500005C0662371F096E8862F70E060E02AF0DD
:103760009A95660F771F881FDAF7880F96958795C9
:1037700097F9089557FD9058440F551F59F05F3F32
:1037800071F04795880F97FB991F61F09F3F79F083
:1037900087950895121613061406551FF2CF469505
:1037A000F1DF08C0161617061806991FF1CF869587
:1037B0007105610508940895E894BB27662777276B
:1037C000CB0197F908950AD080C071D028F076D047
:1037D00018F0952309F062C067C0EFCFCBDFA8F3E4
:1037E0009923D9F35523C9F3950F50E0551FAA2704
:1037F000EE27FF27BB2700240894679520F4E20FEB
:10380000F31FB41F0A1E220F331F441FAA1F669501
:10381000A9F7779530F4F30FB41F0A1E121E08F4AF
:103820006395330F441FAA1F221F769599F787953A
:1038300020F4B40F0A1E121E631F440FAA1F221F7A
:10384000331F8695A9F7862F712D602D11249F5760
:1038500050408AF0E1F088234AF0EE0FFF1FBB1FB3
:10386000661F771F881F91505040A9F79E3F510552
:1038700070F014C0A2CF5F3FECF3983EDCF3869566
:1038800077956795B795F795E7959F5FC1F7FE2BFD
:10389000880F911D9695879597F9089597F99F67D9
:1038A00080E870E060E008959FEF80EC08950024C8
:1038B0000A941616170618060906089500240A9495
:1038C00012161306140605060895092E0394000C1B
:1038D00011F4882352F0BB0F40F4BF2B11F460FFAA
:1038E00004C06F5F7F4F8F4F9F4F0895002455276F
:1038F00004C0080E591F880F991F009729F076956C
:103900006795B8F37105B9F7802D952F089597FB4A
:10391000072E16F4009407D077FD09D00E94A11C51
:1039200007FC05D03EF4909581959F4F08957095C2
:1039300061957F4F0895EE0FFF1F0590F491E02DE4
:103940000994AA1BBB1B51E107C0AA1FBB1FA617E6
:10395000B70710F0A61BB70B881F991F5A95A9F738
:0E39600080959095BC01CD010895F894FFCF9D
:10396E00055F03EC03C9039503620301E001280818
:10397E00140A321E3F4D360903BC02860232024B38
:0E398E00026402010203040506070809000096
:00000001FF
