:100000000C94B8010C94FF010C94FF010C94FF01B7
:100010000C94FF010C94FF010C94FF010C94FF0160
:100020000C94FF010C94FF010C94FF010C945407F5
:100030000C94FF010C94D6140C94FF010C94FF0156
:100040000C94FF010C94FF010C94FF010C943E15DD
:100050000C94FF010C94FF010C94FF010C94FF0120
:100060000C94FF010C94FF010C94FF010C94FF0110
:100070000C94FF01600262026402660268026A0276
:100080006C026E02700272027402760278027A02C8
:100090007C027E028002270849083709490837098F
:1000A0008E08B108370906091909CD0BCD0BFA0BDB
:1000B000FA0B550C910C890E890EA90C890EA40D12
:1000C000A40D5F0E890E890E750EF1A10045E6C0E4
:1000D000001105000000514F000050005638E42880
:1000E0000037361019061B1D535400000000550040
:1000F000002A0040301C173C392B5C5D00E100E316
:100100005E2F0031000F0E0D09071604595AE7E55E
:1001100058005B33E04200412E23223B3A354C49E4
:1001200000004A004B2D480047120C1815081A14FD
:100130005F600000570061130044E2003F0B0A3D7E
:1001400064292C620000520063343E434626252475
:1001500021201F1E000000004D004E27000101015C
:100160000001010000000101000001000101010186
:100170000001010101010101010100000000010075
:10018000000100B2010101B70101010100010001FC
:100190000101000100010101010101010101010151
:1001A0000100010101B000AF010101B6B50101017B
:1001B000000001000101A600A501010101010101EA
:1001C000010100000100010100AB0100A90101B320
:1001D00001B40101000001000101AAACA701010165
:1001E000010101010000000001000101360343008C
:1001F0006F006F006C006500720020004D00610010
:1002000073007400650072002000510075006900E1
:1002100063006B0046006900720065002000580012
:10022000540000001C0343006F006F006C00650069
:10023000720020004D0061007300740065007200C0
:1002400000000403090409025400030100A032095C
:1002500004000001030101000921110100012240F5
:10026000000705810308000A0904010001030102D7
:1002700000092111010001224D0007058203080039
:100280000A09040200010300000009211101000114
:100290002236000705830308000A1201100100003E
:1002A0000008EDFE1A0000000102000105010980AE
:1002B000A101850216010026B7001A01002AB70025
:1002C000751095018100C0050C0901A10185031677
:1002D0000100269C021A01002A9C027510950181DA
:1002E00000C005010902A1010901A10005091901C8
:1002F00029051500250195057501810295017503F4
:1003000081010501093009311581257F95027508A4
:10031000810609381581257F950175088106050C30
:100320000A38021581257F950175088106C0C00530
:10033000010906A101050719E029E7150025019526
:1003400008750181029501750881010508190129C7
:100350000595057501910295017503910105071930
:100360000029FF150026FF00950675088100C000D2
:1003700011241FBECFEFD4E0DEBFCDBF04B603FE15
:1003800027C08091DE019091DF01A091E001B09142
:10039000E1018730904BA740B04BD1F41092DE01C1
:1003A0001092DF011092E0011092E10114BE84B7B7
:1003B000877F84BF0FB6F894A8958091600088610C
:1003C00080936000109260000FBEE0E0F8E30995B2
:1003D00011E0A0E0B1E0E4E0F8E302C005900D9286
:1003E000AE32B107D9F721E0AEE2B1E001C01D9213
:1003F000AE3DB207E1F70E94AE040C94001C0C94D1
:100400000000E72FF0E0A62FB0E0823080F490E00B
:1004100060E970E00E94C11B9C01CD0162E170E0C7
:100420000E94C11B820F931FE80FF91F08C0CD0166
:1004300062E170E00E94C11B8E0F9F1FFC01E4531C
:10044000FF4F84910895803C29F4EAECF0E0859117
:100450009491089580E090E008958AB18E678AB9FA
:100460003A9884B1807884B9429A85B18F6785B90A
:10047000AEE2B1E0E0E4F1E082E18E0F11921D9274
:100480008E13FCCF0895EF92FF920F931F93CF939B
:10049000DF93CEE2D1E010E001E041E050E0812FB7
:1004A00090E0FC013197E131F10530F4E65CFF4F5B
:1004B0008BB181780C94E61B8BB18178826621C068
:1004C00088661FC08C661DC080671BC0886719C006
:1004D000806617C0846715C0846613C08C6711C01E
:1004E0008A660FC086630DC086610BC08E6409C02A
:1004F0008E6307C08E6105C0866403C0866201C03A
:100500008E628BB980E18A95F1F783B1869581700F
:100510008027329902C092E001C090E0892B1E9999
:1005200002C094E001C090E0982B1C9902C028E022
:1005300001C020E0922B1B9902C070E101C070E065
:10054000972B1A9902C060E201C060E0962B1899BF
:1005500002C030E401C030E0292F232B1D9902C0D6
:1005600090E801C090E0922B80910001E0E0F0E083
:10057000292F30E09881BA010E2E02C0660F771F36
:100580000A94E2F7A92FB0E0A623B723EE24E39460
:10059000AB2B09F4E12CFF24F394DB01A223B3235A
:1005A000AB2B09F4F12CEF1419F06927688385E06F
:1005B0003196E830F105F1F6809300011F5F219636
:1005C000123109F06CCF8823B1F081508093000183
:1005D000882339F08FE99FE00197F1F700C0000010
:1005E0000AC0A0E4B1E0EEE2F1E0CF018E5E9191AD
:1005F0009D938E13FCCF81E0DF91CF911F910F91DE
:10060000FF90EF900895E82FF0E0E05CFE4F8081CE
:1006100008950895279A97B1906697B9509A81FFE7
:1006200002C0469801C0469A80FF02C0459801C0AA
:10063000459A82FF02C02F9808952F9A08958091BD
:100640005A010895CF93DF9300D01F92CDB7DEB744
:100650009C018091D501843019F593E099833B8307
:100660002A839093E9008FEF9091E800815095FDE7
:1006700006C095ED9A95F1F700008111F5CF8091B4
:10068000E80085FF0DC040E050E063E070E0CE017F
:1006900001960E9460058091E8008E778093E800C3
:1006A0000F900F900F90DF91CF910895CF93DF932C
:1006B00000D01F92CDB7DEB72091D501243021F5AF
:1006C00022E029839B838A8383E08093E9008FEF74
:1006D0009091E800815095FD06C095ED9A95F1F74F
:1006E00000008111F5CF8091E80085FF0DC040E04A
:1006F00050E063E070E0CE0101960E9460058091B9
:10070000E8008E778093E8000F900F900F90DF91B4
:10071000CF9108952091D5012430F1F422E0209367
:10072000E9002FEF3091E800215035FD06C035ED8E
:100730003A95F1F700002111F5CF2091E80025FF4F
:100740000BC040E050E065E070E00E9460058091E1
:10075000E8008E778093E8000895CF93DF9320918F
:10076000D501243039F521E02093E9002FEF3091B5
:10077000E800215035FD06C035ED3A95F1F700004F
:100780002111F5CF2091E80025FF14C0EC0140E0D5
:1007900050E068E070E00E9460058091E8008E778C
:1007A0008093E80088E0FE01A2E5B1E001900D929F
:1007B0008A95E1F7DF91CF910895089542E061ECC9
:1007C00081E00E946B0642E061EC82E00E946B06D1
:1007D00042E061EC83E00C946B068091D70183309A
:1007E00009F453C030F4813071F0823009F48CC0C8
:1007F00008958A3009F478C08B3009F45EC08930DE
:1008000009F09AC020C08091D601813A09F094C0C5
:100810008091E800877F8093E8008091DA019091D1
:10082000DB01892B21F468E082E591E003C060E000
:1008300080E090E070E00E94AD058091E8008B7749
:100840008093E80008958091D601813209F074C048
:100850008091DA019091DB01892B09F06DC08091C4
:10086000E800877F8093E8008091E80082FD05C062
:100870008091D5018111F8CF5FC08091F100809304
:100880005A018091E8008B7753C08091D601813A5C
:1008900009F052C08091DA019091DB01892B09F0B7
:1008A0004BC08091E800877F8093E8008091E8004A
:1008B00080FFFCCF80910B0136C08091D601813240
:1008C000D9F58091DA019091DB01892BA9F580910E
:1008D000E800877F8093E8000E94A0068091D801FD
:1008E00080930B010C94AA0E8091D601813221F5E0
:1008F0008091E800877F8093E8000E94A0068091A5
:10090000D90180935B0108958091D601813AA1F4C9
:100910008091E800877F8093E8008091E80080FF65
:10092000FCCF80915B018093F1008091E8008E778D
:100930008093E8000C94A006089508950895089502
:100940000C949F040E9495148091D301882329F070
:100950000E94C01481110C944A05089584B7877FC2
:1009600084BF0FB6F894A895809160008861809349
:100970006000109260000FBE90E080E80FB6F8941F
:1009800080936100909361000FBE0E949D040E94BD
:10099000BF090E94F1060E9444078091E200846032
:1009A0008093E20078948091D501843019F00E9400
:1009B0005009F9CF0E94C10981E091E00E946B09C2
:1009C0000E949E048091D501853019F40E94A204F2
:1009D000F9CF0E94C5090E945009F4CF0C94D41499
:1009E0000C94EE04292F332723303105C9F064F429
:1009F0002130310581F02230310509F043C084E512
:100A000090E026E432E042C021323105F1F022329A
:100A1000310541F137C082E190E02AE932E036C089
:100A200099278130910541F08230910541F0892B61
:100A300049F5E2E4F2E005C0E4E2F2E002C0ECEEE7
:100A4000F1E0849190E09F0121C06330D8F4E62F5B
:100A5000F0E0EE0FFF1FE35EFE4F2081318189E061
:100A600090E014C0633070F470E0FB01EE0FFF1FE4
:100A7000E95EFE4F20813181FB01EC5EFE4F8081FB
:100A800090E004C080E090E020E030E0FA013183A3
:100A90002083089584E089BD86E089BD09B400FE05
:100AA000FDCF8091D8008F7D8093D8008091E000A9
:100AB00082608093E0008091E00081FDFCCF08958A
:100AC000CF92DF92EF92FF920F931F93CF93DF931A
:100AD000EC018B017A010E94BF06811135C0E1143F
:100AE000F10439F0F70180819181081B190BC80FBF
:100AF000D91FC12CD12C0115110529F18091E800D5
:100B000085FD18C08091E8008E778093E8000E94F0
:100B10005009E114F10449F0F70180819181C80E78
:100B2000D91ED182C08285E00FC00E94BF068823F3
:100B300011F30AC089918093F10001501109FFEF70
:100B4000CF1ADF0AD8CF80E0DF91CF911F910F91AC
:100B5000FF90EF90DF90CF9008952091DC013091CD
:100B6000DD012617370748F06115710539F420912A
:100B7000E8002E772093E80001C0B90140E061153C
:100B8000710591F12091D501222309F440C025304F
:100B900009F43FC02091E80023FD3DC02091E8000A
:100BA00022FD2FC02091E80020FFE9CF2091F20024
:100BB00030E0FC01CF016115710559F02830310595
:100BC00040F481918093F100615071092F5F3F4F94
:100BD000F1CF41E02830310509F040E02091E800F4
:100BE0002E772093E800CBCF4111CCCF0AC0809163
:100BF000D501882361F0853061F08091E80083FDA4
:100C00000AC08091E80082FFF2CF80E0089582E080
:100C1000089583E0089581E008952091DC013091EA
:100C2000DD012617370748F06115710539F4209169
:100C3000E8002E772093E80001C0B901FC0120E014
:100C40006115710579F18091D501882309F43DC0C2
:100C5000853009F43CC08091E80083FD3AC0809162
:100C6000E80082FD2CC08091E80080FFE9CF8091F0
:100C7000F20090E06115710559F08830910540F45B
:100C800024912093F1003196615071090196F2CFC1
:100C900021E0089709F020E08091E8008E778093AA
:100CA000E800CECF2111CFCF0AC08091D501882393
:100CB00061F0853061F08091E80083FD0AC0809189
:100CC000E80082FFF2CF80E0089582E0089583E09B
:100CD000089581E00895982F953058F59093E90094
:100CE000981739F07091EC002091ED005091F000D0
:100CF00003C0242F762F50E021FF19C03091EB0064
:100D00003E7F3093EB003091ED003D7F3093ED005E
:100D10003091EB0031603093EB007093EC00209346
:100D2000ED005093F0002091EE0027FF07C09F5F79
:100D3000D3CF8F708093E90081E0089580E008951B
:100D40008091D60187FF11C08091E80082FD05C027
:100D50008091D5018111F8CF11C08091E8008B7787
:100D60000BC08091D501882349F08091E80080FF75
:100D7000F8CF8091E8008E778093E8000895209165
:100D8000E4003091E50095E64091EC00842F8170FD
:100D900040FF22C08091E80080FD1CC08091D501F9
:100DA000882391F0853091F08091EB0085FD10C093
:100DB0004091E4005091E5004217530729F39A014E
:100DC000915011F784E0089582E0089583E008953A
:100DD00081E0089580E008954091E80042FFDECF71
:100DE00008950E944E070E945107E0EEF0E08081D6
:100DF00081608083E8EDF0E080818F77808319BC8B
:100E0000E3E6F0E08081816080831092D401089550
:100E10000E944E070E9451078091D8008F778093DF
:100E2000D8008091D80080688093D8008091D80045
:100E30008F7D8093D80084E089BD86E089BD09B4A8
:100E400000FEFDCF1092D5011092D1011092D30176
:100E50001092D20142E060E080E00E946B06809137
:100E6000E1008E7F8093E1008091E20081608093B9
:100E7000E2008091E20088608093E2008091E000CF
:100E80008E7F8093E0000895E3E6F0E080818E7F1E
:100E9000808381E08093D4010C9408071092E200D3
:100EA00008951092E10008951F920F920FB60F92CD
:100EB00011242F933F934F935F936F937F938F935F
:100EC0009F93AF93BF93EF93FF938091E10082FFD5
:100ED0000BC08091E20082FF07C08091E1008B7F10
:100EE0008093E1000E944F098091E10080FF19C0CA
:100EF0008091E20080FF15C08091E2008E7F809398
:100F0000E2008091E20080618093E2008091D8004D
:100F100080628093D80019BC85E08093D5010E943F
:100F2000A0048091E10084FF30C08091E20084FF42
:100F30002CC084E089BD86E089BD09B400FEFDCFE8
:100F40008091D8008F7D8093D8008091E1008F7EC2
:100F50008093E1008091E2008F7E8093E200809197
:100F6000E20081608093E2008091D101882311F03A
:100F700084E007C08091E30087FD02C081E001C0EA
:100F800083E08093D5010E94F0048091E10083FF0B
:100F900024C08091E20083FF20C08091E100877F20
:100FA0008093E10082E08093D5011092D10180917D
:100FB000E1008E7F8093E1008091E2008E7F80933C
:100FC000E2008091E20080618093E20042E060E014
:100FD00080E00E946B060E94DD03FF91EF91BF91BC
:100FE000AF919F918F917F916F915F914F913F91C1
:100FF0002F910F900FBE0F901F9018951F93CF93B6
:10100000DF93CDB7DEB7AA970FB6F894DEBF0FBE59
:10101000CDBFE6EDF1E088E08E0F9091F100919365
:101020008E13FBCF0E94ED038091E80083FF1FC168
:101030008091D6019091D701492F50E04A30510557
:1010400008F015C1FA01E55BFF4F0C94E61B8038F0
:1010500081F0823809F00BC18091DA018F708093A2
:10106000E9008091EB0085FB882780F91092E90068
:1010700006C08091D2019091D3019111826090912C
:10108000E800977F9093E8008093F1001092F100C0
:10109000C8C0282F2D7F09F0EAC0882319F08230BC
:1010A00061F0E5C08091D801813009F0E0C0933053
:1010B00009F080E08093D3012BC08091D801811189
:1010C00027C08091DA018F7009F4D1C08093E900C4
:1010D0002091EB0020FF1CC0933021F48091EB00A5
:1010E000806214C09091EB0090619093EB0021E03E
:1010F00030E0A90102C0440F551F8A95E2F74093E2
:10110000EA001092EA008091EB0088608093EB0087
:101110001092E9008091E800877F86C08111A7C006
:101120001091D8011F778091E3008078812B809304
:10113000E3008091E800877F8093E8000E94A0068A
:101140008091E80080FFFCCF8091E300806880936D
:10115000E300111102C082E001C083E08093D50159
:1011600086C08058823008F082C08091D80190916A
:10117000D9018C3D53E0950779F583E08A838AE2B3
:1011800089834FB7F894DE01139620E03EE051E2E8
:10119000E32FF0E050935700E49120FF03C0E29565
:1011A000EF703F5FEF708E2F90E0EA3010F0C7963F
:1011B00001C0C0968D939D932F5F243149F74FBF97
:1011C0008091E800877F8093E8006AE270E0CE01BA
:1011D00001960E94AD0514C0AE014F5F5F4F609154
:1011E000DA010E94F204BC01892B09F440C09091FD
:1011F000E800977F9093E80089819A810E940D060C
:101200008091E8008B778093E80031C0803879F5D1
:101210008091E800877F8093E8008091D1018093DE
:10122000F1008091E8008E778093E8000E94A0068C
:101230001EC081111CC09091D8019230C0F48091E1
:10124000E800877F8093E8009093D1010E94A00678
:101250008091D101811106C08091E30087FD02C019
:1012600081E001C084E08093D5010E94DE0380917B
:10127000E80083FF0AC08091E800877F8093E80040
:101280008091EB0080628093EB00AA960FB6F894F1
:10129000DEBF0FBECDBFDF91CF911F91089508959E
:1012A000CF938091D5018823A1F0C091E900CF7040
:1012B0009091EC00892F817090FD80E8C82B1092EE
:1012C000E9008091E80083FD0E94FE07CF70C09383
:1012D000E900CF9108959093610180936001089592
:1012E000E0916001F0916101309721F00190F0816F
:1012F000E02D099480E00895E0916001F091610192
:10130000309721F00280F381E02D09940895E09157
:101310006001F0916101309721F00480F581E02DAA
:101320000994089520915E0130915F01821793071F
:1013300071F090935F0180935E01E0916001F09104
:101340006101309721F00680F781E02D099408951E
:1013500020915C0130915D018217930771F09093A9
:101360005D0180935C01E0916001F0916101309733
:1013700021F00084F185E02D0994089508950C94DE
:10138000BE090E94FF140C942D02CF92DF92EF92BF
:10139000FF920F931F93CF93DF9300D000D000D024
:1013A000CDB7DEB70E94430283E6C82E81E0D82E77
:1013B00000E010E0E02E802F0E940303F60141912F
:1013C0006F01F42EF826B1F40F5F1F4F02311105A3
:1013D00089F78FEF89838A831B820E9408158160B9
:1013E000782F9D838C8349815A816B818D810E94E6
:1013F000700A47C09091C00191FF04C08E830E9483
:1014000009038E8120E030E04F2D50E0922FBA0189
:10141000022E02C0759567950A94E2F760FF2BC013
:101420002983EA8221E030E0690102C0CC0CDD1C96
:101430009A95E2F790E08C219D21892B09F420E018
:101440002B830E9408158160782F9D838C834981AE
:101450005A816B818D810E94700A49815A816B810A
:101460007C818D810E948214F801ED59FE4F8081AC
:10147000C826C08206C02F5F3F4F2830310531F6A5
:10148000A3CF0E9481140E94D217109162010E9482
:1014900070091817A1F00E947009809362012696C6
:1014A0000FB6F894DEBF0FBECDBFDF91CF911F9175
:1014B0000F91FF90EF90DF90CF900C9493142696AD
:1014C0000FB6F894DEBF0FBECDBFDF91CF911F9155
:1014D0000F91FF90EF90DF90CF9008950C940A0346
:1014E000CF93DF93CDB7DEB72B970FB6F894DEBF5F
:1014F0000FBECDBF942F4F83252F588769877A87DA
:101500008B874A855B85452B21F02F3F09F59F3F4F
:10151000F9F4DE01119686E0FD0111928A95E9F752
:1015200085E0FE01379601900D928A95E1F7498199
:101530005A816B817C818D819E810E9453112B96F3
:101540000FB6F894DEBF0FBECDBFDF91CF910895E7
:101550004F81588569857A858B850E948214D9CF01
:10156000CF93882309F4A4C0C82F8CEF8C0F813A45
:1015700048F48C2F0E94F01981119AC08C2F0E9480
:10158000E2130CC080E28C0F883058F4C77081E001
:1015900001C0880FCA95EAF70E942114CF910C94DC
:1015A0005B148BE58C0F833078F4C53A29F0C63A8A
:1015B00031F083E890E005C081E890E002C082E865
:1015C00090E0CF910C94920988E58C0F853108F05A
:1015D0006FC0C83A61F1C93A69F1CA3A71F1CB3AC0
:1015E00079F1CC3A81F1CD3A89F1CE3A91F1CF3A05
:1015F00099F1C13BA1F1C03BA9F1C23BB1F1C33BA1
:10160000B9F1C43BC1F1C53BC9F1C63BD1F1C73B00
:10161000D9F1C83BE1F1C93BE9F1CA3BF1F1CB3B60
:10162000F9F1CC3B09F43FC080E090E03EC082EE8F
:1016300090E03BC089EE90E038C08AEE90E035C083
:1016400085EB90E032C086EB90E02FC083EB90E01A
:101650002CC084EB90E029C087EB90E026C08CEC96
:1016600090E023C08DEC90E020C083E891E01DC0A5
:101670008AE891E01AC082E991E017C084E991E01C
:1016800014C081E292E011C083E292E00EC084E2D5
:1016900092E00BC085E292E008C086E292E005C0CD
:1016A00087E292E002C08AE292E0CF910C94A8090E
:1016B000CF910895882329F19CEF980F913A18F45F
:1016C0000E94FF130DC090E2980F983058F4877075
:1016D00091E001C0990F8A95EAF7892F0E9427149B
:1016E0000C945B149BE5980F933020F480E090E01D
:1016F0000C949209885A853120F480E090E00C9493
:10170000A8090895882321F00E9421140C945B14E9
:101710000895882321F00E9427140C945B140895E7
:10172000CF92DF92EF92FF920F931F93CF93DF93AD
:1017300000D000D000D0CDB7DEB725E0FC01DE013F
:10174000119601900D922A95E1F7FC0140813181BB
:10175000F280258122952F7063817481672B09F4B3
:10176000D8C23F3F19F44F3F09F4D3C26C014983FB
:101770003A8389819A812E830E94A113182F092F01
:101780000E94A0130E94B012E02FE295EF70F0E0EB
:10179000EB5AFF4F2E810C94E61B802F807F902FF9
:1017A0009F70092F882311F00295007FFF2049F0D8
:1017B000002309F45FC2802F0E9434140E945B143E
:1017C00059C2812F0E945A0B002309F4A2C2802F14
:1017D0000E943A1426960FB6F894DEBF0FBECDBF16
:1017E000DF91CF911F910F91FF90EF90DF90CF90FD
:1017F0000C945B14802F807F902F9F70092F803274
:1018000011F00295007F112319F0113001F129C068
:10181000FF20A9F0802F222349F1213039F52696A7
:101820000FB6F894DEBF0FBECDBFDF91CF911F91F1
:101830000F91FF90EF90DF90CF900C9444142223EF
:1018400019F0213009F465C20E9447142CC0FF2012
:10185000E9F0263008F05DC20E941E14802329F0B2
:1018600022C0FF20F1F0211115C0802F26960FB65F
:10187000F894DEBF0FBECDBFDF91CF911F910F91C6
:10188000FF90EF90DF90CF900C94820B253008F002
:1018900040C209C0F601858180FFECC18F7085834D
:1018A000E4CF2111FBC1802F69C1202F26952695F9
:1018B000237030E02115310521F021303105C9F0C8
:1018C00028C2FF2021F0812F902F937002C080E06A
:1018D00090E026960FB6F894DEBF0FBECDBFDF9125
:1018E000CF911F910F91FF90EF90DF90CF900C94CC
:1018F0009209FF2021F0812F902F937002C080E089
:1019000090E026960FB6F894DEBF0FBECDBFDF91F4
:10191000CF911F910F91FF90EF90DF90CF900C949B
:10192000A809812FFF2019F00E94DA1602C00E9438
:10193000421726960FB6F894DEBF0FBECDBFDF91DB
:10194000CF911F910F91FF90EF90DF90CF900C946B
:10195000C717802F837009F078C0F110DAC1812F8A
:10196000829586958770880F880F912F9F70C92E5A
:10197000D12CE12CF12C082E04C0CC0CDD1CEE1C6B
:10198000FF1C0A94D2F714FF12C04FE050E060E051
:1019900070E004C0440F551F661F771F8A95D2F769
:1019A000CB01BA01609570958095909503C060E079
:1019B00070E0CB01202F269526952370422F50E012
:1019C00042305105D1F04330510559F16C297D2940
:1019D0008E299F294130510541F126960FB6F89482
:1019E000DEBF0FBECDBFDF91CF911F910F91FF9052
:1019F000EF90DF90CF900C94C5126C297D298E2931
:101A00009F2926960FB6F894DEBF0FBECDBFDF919B
:101A1000CF911F910F91FF90EF90DF90CF900C949A
:101A2000D7120E94C512C701B60126960FB6F894C8
:101A3000DEBF0FBECDBFDF91CF911F910F91FF9001
:101A4000EF90DF90CF900C94B312FF2019F0802F0D
:101A5000817001C08695882309F45BC1812F82952E
:101A600086958770880F880F912F9F70C92ED12C73
:101A7000E12CF12C082E04C0CC0CDD1CEE1CFF1C4C
:101A80000A94D2F714FF12C04FE050E060E070E01B
:101A900004C0440F551F661F771F8A95D2F7CB01EC
:101AA000BA01609570958095909503C060E070E0F4
:101AB000CB01202F269526952370422F50E04230EF
:101AC0005105D1F04330510559F16C297D298E29FA
:101AD0009F294130510541F126960FB6F894DEBF9B
:101AE0000FBECDBFDF91CF911F910F91FF90EF906F
:101AF000DF90CF900C947C136C297D298E299F292F
:101B000026960FB6F894DEBF0FBECDBFDF91CF9102
:101B10001F910F91FF90EF90DF90CF900C948E1358
:101B20000E947C13C701B60126960FB6F894DEBF5B
:101B30000FBECDBFDF91CF911F910F91FF90EF901E
:101B4000DF90CF900C946A13103F41F118F4103ECF
:101B500048F48BC0123F09F450C0D8F1133F09F488
:101B600060C083C01F70802F8F71FF2021F00E9402
:101B70000313812F7BCE0E942413812F26960FB64C
:101B8000F894DEBF0FBECDBFDF91CF911F910F91B3
:101B9000FF90EF90DF90CF900C94890BFF20A9F07D
:101BA000253008F0B6C0802F8F7126960FB6F894B6
:101BB000DEBF0FBECDBFDF91CF911F910F91FF9080
:101BC000EF90DF90CF900C944913263008F0A1C01D
:101BD000EACFFF20A1F0802F8F7126960FB6F894E0
:101BE000DEBF0FBECDBFDF91CF911F910F91FF9050
:101BF000EF90DF90CF900C940313FF2061F3802FC0
:101C00008F7126960FB6F894DEBF0FBECDBFDF9161
:101C1000CF911F910F91FF90EF90DF90CF900C9498
:101C20002413FF2091F0802F8F7126960FB6F89421
:101C3000DEBF0FBECDBFDF91CF911F910F91FF90FF
:101C4000EF90DF90CF900C94EE1226960FB6F8949A
:101C5000DEBF0FBECDBFDF91CF911F910F91FF90DF
:101C6000EF90DF90CF900C94E912FF20A1F0222397
:101C700009F4B1CF812F26960FB6F894DEBF0FBEC0
:101C8000CDBFDF91CF911F910F91FF90EF90DF902B
:101C9000CF900C94B00A222309F4B1CF812F26965D
:101CA0000FB6F894DEBF0FBECDBFDF91CF911F916D
:101CB0000F91FF90EF90DF90CF900C945A0B402F34
:101CC0004F70612FC6010E94501626960FB6F894E9
:101CD000DEBF0FBECDBFDF91CF911F910F91FF905F
:101CE000EF90DF90CF900C94FB11402F4F70612F3D
:101CF000C60126960FB6F894DEBF0FBECDBFDF91AA
:101D0000CF911F910F91FF90EF90DF90CF900C94A7
:101D1000531626960FB6F894DEBF0FBECDBFDF91E7
:101D2000CF911F910F91FF90EF90DF90CF9008958A
:101D30000E9441140E9410140E945B140E947918A2
:101D40000E94C71780E090E00E94920980E090E036
:101D50000C94A8090E9431140C94980E0E94A113AF
:101D6000292F22952F7030E02C3031054CF42A3089
:101D700031056CF4225031092230310588F407C056
:101D80002C30310549F02F30310531F009C0803E4B
:101D900048F0803F29F406C093FB882780F9089516
:101DA00080E0089581E00895CF93DF9300D000D0C4
:101DB0001F92CDB7DEB70F900F900F900F900F903E
:101DC000DF91CF910895CF93DF9300D000D000D062
:101DD000CDB7DEB726960FB6F894DEBF0FBECDBFE7
:101DE000DF91CF910895CF93DF93C09175018091DA
:101DF0007601C817A1F0D0E0CE0166E070E00E9445
:101E0000C11BFC01E958FE4F408151816281738101
:101E1000848195810E94E30E2196C770E8CFDF91FF
:101E2000CF9108954091A7015091A8016091A90117
:101E30007091AA018091AB019091AC010C94E30EDA
:101E4000CF93DF938091AC0182958F7009F05CC0D5
:101E50008091A901882309F457C020917501D09180
:101E600076014091A701C091A801E091AA01F091EB
:101E7000AB012D1709F448C030E0309709F440C099
:101E8000CF3F11F44F3FE1F1C90166E070E00E94DD
:101E9000C11BDC01A958BE4F11968C911197C81334
:101EA0002FC08C9148132CC012968C9112978111DF
:101EB00027C013968D919C9114978E179F0708F455
:101EC00001978E1B9F0B883C9105D0F48091AC014B
:101ED0008F7080618093AC01C90166E070E00E9460
:101EE000C11BFC01E458FE4F90819F70906190836C
:101EF00087EA91E00E94900BDF91CF910C94F30E52
:101F00002F5F3F4F2770B5CFDF91CF910895BF92DC
:101F1000CF92DF92EF92FF920F931F93CF93DF93B5
:101F2000CDB7DEB761970FB6F894DEBF0FBECDBF59
:101F30008C0185E0F801DE011D9601900D928A95D5
:101F4000E1F7D8014C9111962C9111971296EC90D3
:101F500012971396CD90DC9014975091A701609141
:101F6000A8018091AA019091AB01009709F46EC17C
:101F70006F3F19F45F3F09F469C1B090A901BB201C
:101F800009F4C3C03091AC01C816D90628F0F60197
:101F9000E81BF90BCF0104C0809590958C0D9D1D19
:101FA000FF24F394883C910588F0F12C307F09F0F0
:101FB000CBC07C2DD98AC88A522F6E2D89890E9468
:101FC000D40E87EA91E00E94900BB4C0832F807FEB
:101FD00009F049C0621314C0541312C0E11010C0BC
:101FE0003F7030613093AC010E94120F87EA91E09C
:101FF0000E94900B8091AC01D80115968C9331C052
:10200000CD2831F12F3F11F44F3F11F1FE2CE1109B
:102010001FC0E091750130917601E31709F45CC0AF
:10202000F0E0CF0166E070E00E94C11BDC01A9581E
:10203000BE4F11968C911197281307C08C914813AD
:1020400004C012968C91811103C03196E770E5CFE0
:10205000FE2CEE2009F416C18091AC0181608093C2
:10206000AC01F12C0FC1621308C0541306C0E1107B
:1020700004C08091AC01D801C1C04D872E878D85E9
:102080009E850E94AE0E8823E1F1EE20D1F12091D1
:10209000AC01822F82958F7090E0029774F080914E
:1020A000A7019091A80198878F831986DB86CA863D
:1020B0002C87CE0107960E94900B86E0F801A7EAD4
:1020C000B1E001900D928A95E1F70E94200F0E94E5
:1020D000120FFF24F394D6C04D872E878D859E85E1
:1020E0000E94A113292F22952F7030E02230310554
:1020F0000CF0BCC09F7009F0B6C0805E883008F458
:10210000C1C0C8010E94900BE4CFC816D90608F4DC
:1021100053C0F601E81BF90BCF01883C910508F488
:1021200050C0F12C7C2DD98AC88A522F6E2D8989F6
:102130000E94D40EE7EAF1E086E0DF011D928A9565
:10214000E9F70E94120F9EC0621314C0541312C00C
:10215000E11010C08091AC01F8018583C8010E9494
:10216000900B86E0E7EAF1E0DF011D928A95E9F73E
:10217000FB2C88C04D872E878D859E850E94AE0ED4
:10218000882309F4BECFEE2009F4BBCF2091AC0127
:10219000822F82958F7090E002970CF48ECF809101
:1021A000A7019091A8019A8389831B82DD82CC824A
:1021B0002E83CE0101967FCF809590958C0D9D1D2D
:1021C000ACCFFE2CEE2009F49CCF62132EC054132A
:1021D0002CC02091AC0120FD1FC0822F82958F70F2
:1021E000D9F0D80115962C9315978F3049F08F5F51
:1021F000982F9295907F822F8F70892B15968C93B4
:10220000C8010E94900B86E0F801A7EAB1E00190B6
:102210000D928A95E1F795CF86E0F801A7EAB1E043
:1022200001900D928A95E1F72DC04D872E878D85FF
:102230009E850E94AE0E811140CF8091AC018160DD
:102240008093AC01C8010E94900B1CC0EE2009F4E1
:1022500058CF4D872E878D859E850E94AE0E882390
:1022600009F44FCF2ACF811148CF0CC0243031055B
:102270000CF047CF9F7009F440CFF8019581907F13
:1022800009F03BCF8F2D61960FB6F894DEBF0FBEDD
:10229000CDBFDF91CF911F910F91FF90EF90DF9015
:1022A000CF90BF900895CF93DF93CDB7DEB72C9733
:1022B0000FB6F894DEBF0FBECDBF4F835887698736
:1022C0007A878B879C87CE0107960E94870F882389
:1022D00071F08F8198852A853B85232B09F43FC0B7
:1022E0009F3F09F068C08F3F09F065C038C086E0A5
:1022F000FE013796DE01119601900D928A95E1F765
:102300006F817885EA85FB85309749F17F3F11F42D
:102310006F3F29F18091760190E09C012F5F3F4F44
:10232000277033274091750150E02417350709F4D1
:102330004BC069837A83FD83EC8366E070E00E9482
:10234000C11BDC01A958BE4F96E0FE0131960190F9
:102350000D929A95E1F7209376010E94F30E8091F9
:102360007501909176018917E9F190E066E070E0DF
:102370000E94C11B89589E4F0E94870F882391F1AC
:102380008091750190E066E070E00E94C11BFC0145
:10239000E958FE4F4081518162817381848195812A
:1023A0000E94E30E8091750190E001968770992755
:1023B00080937501D4CF4F81588569857A858B8547
:1023C0009C850E94E30ECBCF0E94AA0E109276014C
:1023D00010927501E7EAF1E086E0DF011D928A952F
:1023E000E9F7BDCF2C960FB6F894DEBF0FBECDBF78
:1023F000DF91CF910895DF92EF92FF920F931F9399
:10240000CF93DF93FC01892B09F48AC0E12CF12CD6
:10241000DD24D394EF0121968491853709F461C0BE
:1024200058F4843708F04EC0843008F06AC0813018
:10243000D1F0823071F174C0883709F45DC050F476
:10244000863709F455C0873709F06AC08E2D0E947F
:102450002E1454C09CE7980F903708F061C08F7716
:102460000E945A0B50C08F010E5F1F4FFE018491D6
:1024700090E2980F983050F48770FD2D01C0FF0F47
:102480008A95EAF78F2F0E94341414C00E94B00A74
:1024900013C08F010E5F1F4FFE01C49180E28C0FAD
:1024A000883060F4C7708D2D01C0880FCA95EAF797
:1024B0000E943A140E945B14E80125C08C2F0E94F0
:1024C0005A0BFACF9F012E5F3F4FFE01C491CC23E0
:1024D00069F08FE99FE00197F1F700C00000C1505B
:1024E000F6CF9F012E5F3F4FFE01F490E9010BC034
:1024F0000E941E14E82E07C00E9431140E945B1433
:1025000002C00E94B00A8F2D882341F0EFE9FFE05E
:102510003197F1F700C000008150F6CFFE017ACF6D
:10252000DF91CF911F910F91FF90EF90DF90089571
:102530006093B1017093B2018093B3019093B401A1
:102540000E9491140C94980E6093AD017093AE01AB
:102550008093AF019093B0010E9492140C94980E56
:1025600008950C9498120F931F930091B10110914C
:10257000B2012091B3013091B401602B712B822BF9
:10258000932B1F910F910C9498120F931F9300910E
:10259000B1011091B2012091B3013091B4016023D7
:1025A0007123822393231F910F910C9498120F9300
:1025B0001F930091B1011091B2012091B3013091AC
:1025C000B40160277127822793271F910F910C94E4
:1025D000981260E070E0CB010C94A4120F931F934B
:1025E00041E050E060E070E08A019B0104C0000F10
:1025F000111F221F331F8A95D2F7C901B8011F91FD
:102600000F910C94A4120F931F9341E050E060E0EF
:1026100070E004C0440F551F661F771F8A95D2F7DC
:102620008091AD019091AE01A091AF01B091B00148
:102630008A019B01082B192B2A2B3B2BC901B801BE
:102640001F910F910C94A4120F931F9341E050E03F
:1026500060E070E004C0440F551F661F771F8A9525
:10266000D2F740955095609570958091AD0190910D
:10267000AE01A091AF01B091B0018A019B01082386
:1026800019232A233B23C901B8011F910F910C94F0
:10269000A4120F931F9341E050E060E070E004C08B
:1026A000440F551F661F771F8A95D2F78091AD01A1
:1026B0009091AE01A091AF01B091B0018A019B0150
:1026C000082719272A273B27C901B8011F910F9115
:1026D0000C94A4120F931F930091AD011091AE01C1
:1026E0002091AF013091B001602B712B822B932B85
:1026F0001F910F910C94A4120F931F930091AD01A1
:102700001091AE012091AF013091B001602371238F
:10271000822393231F910F910C94A4120F931F9364
:102720000091AD011091AE012091AF013091B00147
:1027300060277127822793271F910F910C94A41271
:102740000895CF92DF92EF92FF920F931F93CF9352
:10275000DF938C01C090B101D090B201E090B30141
:10276000F090B4014091AD015091AE016091AF0184
:102770007091B001C42AD52AE62AF72ACFE1D0E029
:10278000D701C6010C2E04C0B695A79597958795DD
:102790000A94D2F780FF07C0B8018C2F0E948515DC
:1027A0008130910531F4219758F7B80180E00E94FB
:1027B0008515DF91CF911F910F91FF90EF90DF90E2
:1027C000CF90089520910C0130910D01F9013296BE
:1027D0009FEF40E05191581789F09F3F19F4511134
:1027E00001C0942F4F5F4630A9F79F3F39F0F901A0
:1027F000E90FF11D97FDFA958283089508952091C0
:102800000C0130910D01F9013296285F3F4F908104
:10281000981301C010823196E217F307C1F70895AB
:1028200081E090E0E0910C01F0910D01E80FF91FBB
:102830001082019688309105A9F708958091BF0113
:1028400008959091BF01892B8093BF0108958095D1
:102850009091BF0189238093BF0108958093BF01A8
:1028600008951092BF0108959091BE01892B809325
:10287000BE01089580959091BE0189238093BE0189
:1028800008951092BE0108958093B50108951092A5
:10289000B501089580910C0190910D01FC013196D4
:1028A0009C01285F3F4F80E0919191118F5FE2176B
:1028B000F307D1F70895E0910C01F0910D0180919B
:1028C000BF018083E0910C01F0910D019081809116
:1028D000BE01892B80838091B501882361F0E0914E
:1028E0000C01F0910D019081892B80830E944A1484
:1028F00081111092B50180910C0190910D010C9401
:102900007C090895CF93DF9300D000D01F92CDB7FC
:10291000DEB70F900F900F900F900F90DF91CF9137
:102920000895089508950C946E0A8091D50184301D
:1029300021F11092C10120E488E190E00FB6F894F3
:10294000A895809360000FBE2093600083B7817FBD
:10295000846083BF83B7816083BF7894889583B791
:102960008E7F83BF0FB6F894A89580916000886130
:1029700080936000109260000FBE0895089508953E
:10298000CF930E94BE140E9443020E94BF14C0E075
:102990008C2F0E940303811104C0CF5FC231C1F7A5
:1029A00001C081E0CF9108950C94AA0E1F920F925E
:1029B0000FB60F9211248F939F93AF93BF93809183
:1029C000C101811113C08091C2019091C301A091F6
:1029D000C401B091C5014196A11DB11D8093C201F2
:1029E0009093C301A093C401B093C501BF91AF916F
:1029F0009F918F910F900FBE0F901F90189582E0BE
:102A000084BD93E095BD9AEF97BD80936E000895C5
:102A10002FB7F8948091C2019091C301A091C40195
:102A2000B091C5012FBF0895CF92DF92EF92FF9230
:102A30000F931F932FB7F8944091C2015091C30197
:102A40006091C4017091C5012FBF6A017B01EE2422
:102A5000FF248C0120E030E0C016D106E206F30628
:102A600010F4415051099A01281B390BC9011F91DB
:102A70000F91FF90EF90DF90CF9008951F920F92EB
:102A80000FB60F9211248F939F93AF93BF938091B2
:102A9000C2019091C301A091C401B091C5010196FA
:102AA000A11DB11D8093C2019093C301A093C401E5
:102AB000B093C501BF91AF919F918F910F900FBEC1
:102AC0000F901F9018950E94F106F8942FEF87EA57
:102AD00091E6215080409040E1F700C0000087E07F
:102AE00090EBDC018093DE019093DF01A093E00185
:102AF000B093E1019CE088E10FB6F894A89580932B
:102B000060000FBE90936000FFCF0E94010290E42E
:102B1000980F903218F40E94230208958D3B50F4D0
:102B2000883A80F5853A28F5843000F5813009F43B
:102B30006EC06AC0883E98F4803EC0F48F3B09F0B6
:102B400063C00E94AA0E2FEF80E792E021508040E0
:102B50009040E1F700C000000E94631555C0803F1F
:102B600008F452C0282F30E0306598C0282F30E09C
:102B700095C0853A09F44EC0863A09F44EC023E860
:102B800030E48CC0883A09F44BC0893A09F44BC050
:102B90008A3A09F44BC08B3A09F44BC08C3A09F4D9
:102BA0004BC08D3A09F44BC08E3A09F44BC08F3AB2
:102BB00009F44BC0813B09F44BC0803B09F44BC086
:102BC000823B09F44BC0833B09F44BC0843B09F4BE
:102BD0004BC0853B09F44BC0863B09F44BC0873B97
:102BE00009F44BC0883B09F44BC0893B09F44BC046
:102BF0008A3B09F44BC08B3B09F44BC08C3B09F476
:102C00004BC020E034E44AC020E030E047C021E07F
:102C100030E044C021E830E441C022E830E43EC066
:102C200022EE34E43BC029EE34E438C02AEE34E42A
:102C300035C025EB34E432C026EB34E42FC023EB5F
:102C400034E42CC024EB34E429C027EB34E426C060
:102C50002CEC34E423C02DEC34E420C023E835E42C
:102C60001DC02AE835E41AC022E935E417C024E97A
:102C700035E414C021E236E411C023E236E40EC08C
:102C800024E236E40BC025E236E408C026E236E44E
:102C900005C027E236E402C02AE236E4C9010895FD
:102CA00080E090E0089508958091C80180FF0CC0F5
:102CB0008091110190E065E070E00E94C11B959544
:102CC0008795959587952EC081FF0AC08091110147
:102CD00090E065E070E00E94C11B9595879522C049
:102CE00082FF08C08091110190E065E070E00E94D1
:102CF000C11B18C02091C9012223D1F030911001CD
:102D0000231780F78091110190E065E070E00E9448
:102D1000C11B622F70E00E94C11B632F70E00E94F4
:102D2000D21BCB018038910530F4009731F0089523
:102D300085E090E008958FE7089581E008958091FF
:102D4000C80180FF08C060910F0170E0759567951C
:102D50007595679523C081FF06C060910F0170E0F3
:102D6000759567951BC082FF04C060910F0170E0EC
:102D700012C06091C9016623D1F020910E01621743
:102D8000A0F780910F0170E090E00E94C11B622FBC
:102D900070E00E94D21B6038710528F4611571053E
:102DA00021F0862F08958FE7089581E0089561E06E
:102DB00070E0F4CF803F21F40E945416819504C046
:102DC000813F29F40E9454168093CC010895823FDC
:102DD00021F40E945416819504C0833F29F40E9477
:102DE00054168093CB010895893F19F40E949F16D1
:102DF00005C08A3F31F40E949F1681958093CD01D2
:102E000008958B3F21F40E949F16819504C08C3F4A
:102E100029F40E949F168093CE010895843F21F4E7
:102E20008091CA01816017C0853F21F48091CA0159
:102E3000826011C0863F21F48091CA0184600BC07A
:102E4000873F21F48091CA01886005C0883F31F432
:102E50008091CA0180618093CA0108958D3F21F459
:102E60008091C80181600BC08E3F21F48091C80120
:102E7000826005C08F3F29F48091C80184608093EF
:102E8000C8010895803F39F48091CC0187FF6CC060
:102E90001092CC0169C0813F29F48091CC011816B1
:102EA000BCF362C09091CB01823F29F497FF5CC0D4
:102EB0001092CB0159C0833F19F41916CCF354C0BA
:102EC000893F41F48091CD0118160CF04DC010924D
:102ED000CD014AC08A3F29F48091CD0187FF44C0CB
:102EE000F6CF8B3F39F48091CE0187FF3DC0109221
:102EF000CE013AC08C3F29F48091CE011816BCF364
:102F000033C0843F21F48091CA018E7F17C0853F72
:102F100021F48091CA018D7F11C0863F21F48091F8
:102F2000CA018B7F0BC0873F21F48091CA01877F44
:102F300005C0883F31F48091CA018F7E8093CA0119
:102F400013C08D3F21F48091C8018E7F0BC08E3F4E
:102F500021F48091C8018D7F05C08F3F29F48091B5
:102F6000C8018B7F8093C8018091CB0181110EC075
:102F70008091CC0181110AC08091CD01811106C0E0
:102F80008091CE01811102C01092C90108958AEC8E
:102F900091E00E9487090E9408159093C7018093D1
:102FA000C60108951F93CF93DF938091C60190913E
:102FB000C7010E941415FC012091C901222329F0A8
:102FC00090911201892F90E007C08091130190E049
:102FD0006AE070E00E94C11BE817F90708F485C099
:102FE0008091CB01C091CC01D091CD011091CE0147
:102FF000811107C0C11175C0D11173C0111171C009
:1030000074C02F3F19F02F5F2093C901181624F4C4
:103010000E9454168093CB018091CB0187FF05C09D
:103020000E94541681958093CB011C1624F40E94B3
:1030300054168093CC018091CC0187FF05C00E947B
:10304000541681958093CC016091CB01662331F1B8
:10305000C091CC01CC2311F1062E000C770B880B0C
:10306000990B0E94C01A23E333E343E35FE30E941A
:10307000241B0E94881A6093CB016C2FCC0F770B16
:10308000880B990B0E94C01A23E333E343E35FE309
:103090000E94241B0E94881A6093CC011D1624F400
:1030A0000E949F168093CD018091CD0187FF05C0BE
:1030B0000E949F1681958093CD01111624F40E94E1
:1030C0009F168093CE018091CE0187FF05C00E949C
:1030D0009F1681958093CE01DF91CF911F910C9423
:1030E000C7172F3F09F08FCF97CFDF91CF911F9157
:1030F0000895EAECF1E085E0DF011D928A95E9F799
:103100001092C9011092C8010895833081F128F40A
:10311000813059F08230D1F00895853009F449C0EA
:10312000B8F1863009F456C0089580911301262F16
:1031300030E0280F311D2F3F310524F4680F6093D4
:10314000130108958FEF8093130108958091120168
:10315000262F30E0280F311D2F3F310524F4680F52
:103160006093120108958FEF80931201089580916A
:103170001101262F30E0280F311D2F3F310524F497
:10318000680F6093110108958FEF809311010895E6
:1031900080911001262F30E0280F311D2F3F31057F
:1031A00024F4680F6093100108958FEF809310014D
:1031B000089580910F01262F30E0280F311D2F3FF9
:1031C000310524F4680F60930F0108958FEF809309
:1031D0000F01089580910E01262F30E0280F311D38
:1031E0002F3F310524F4680F60930E0108958FEF8F
:1031F00080930E010895833011F128F4813049F055
:10320000823091F00895853081F120F18630C1F14E
:10321000089580911301681720F4861B8093130191
:10322000089510921301089580911201681720F4F7
:10323000861B8093120108951092120108958091C7
:103240001101681720F4861B8093110108951092D4
:103250001101089580911001681720F4861B809356
:103260001001089510921001089580910F016817C0
:1032700020F4861B80930F01089510920F0108958A
:1032800080910E01681720F4861B80930E0108952B
:1032900010920E0108950F931F938732D8F58E3147
:1032A00008F080C08E3009F465C098F4873009F4C6
:1032B00056C08B3009F48AC0863009F089C08091ED
:1032C000C001817F8E7F8093C00181E08093D00117
:1032D00080C0863109F47AC068F4803109F078C082
:1032E0008091C00183FB222720F991E0922790FB77
:1032F00083F949C0893109F469C08B3109F068C08C
:103300008091C00181FB222720F991E0922790FB58
:1033100081F939C0883309F459C040F48932E9F1A0
:103320008533D9F1873209F053C037C08334A9F10E
:1033300028F48A3308F44CC0895335C0883409F026
:1033400047C00E94AA0E0FEF13ED20E3015010407A
:103350002040E1F700C000000E94631537C0909143
:10336000C001892F817090FF12C0917F9E7F909342
:10337000C0012FC08091C00182FB222720F991E07B
:10338000922790FB82F98093C0019923F9F08091F4
:10339000C00181608093C00119C061E070E080E0ED
:1033A00090E010C08D5141E050E060E070E08A0193
:1033B0009B0104C0000F111F221F331F8A95D2F7F3
:1033C000C901B8010E94B1120E94AA0E81E001C099
:1033D00080E01F910F91089580E0089580E00895A6
:1033E000CF93C82F8091D001813069F018F08230DE
:1033F000C9F184C0E0910C01F0910D01808182320D
:1034000009F07EC007C0E0910C01F0910D018081B0
:10341000823261F48C2F0E94EC19811104C08C2F30
:103420000E944B191DC081E090E01AC08C2F0E94B1
:10343000EE19811114C0C43179F048F4CB3079F021
:10344000C03109F061C082E08093D00108C0C93268
:1034500019F0C83321F058C01092D00155C081E056
:10346000817054C0C93291F120F5C43179F1B0F4C2
:10347000C73009F047C08EE18093130182E3809347
:1034800012018AE08093110184E18093100188E0A9
:1034900080930F0188E280930E0134C0CE51C63074
:1034A00088F5EC2FF0E0ED5DFE4F80818093CF0139
:1034B00029C0CE34E9F020F4CB3421F56AE013C002
:1034C000C13579F0C235F1F461E00DC08091CF01D2
:1034D000882319F01092CF0115C081E08093D001AC
:1034E00015C061E006C08091CF010E9485180AC016
:1034F0006AE08091CF010E94FB1804C01092D001B5
:1035000080E004C081E002C080E0AACFCF9108959E
:103510000E948F1A6894B1110C941E1B08950E948A
:10352000031B88F09F5798F0B92F9927B751B0F037
:10353000E1F0660F771F881F991F1AF0BA95C9F737
:1035400014C0B13091F00E941D1BB1E008950C949D
:103550001D1B672F782F8827B85F39F0B93FCCF350
:10356000869577956795B395D9F73EF490958095B4
:10357000709561957F4F8F4F9F4F0895E89409C0D4
:1035800097FB3EF490958095709561957F4F8F4F96
:103590009F4F9923A9F0F92F96E9BB279395F695AC
:1035A000879577956795B795F111F8CFFAF4BB0F2A
:1035B00011F460FF1BC06F5F7F4F8F4F9F4F16C08E
:1035C000882311F096E911C0772321F09EE8872F18
:1035D000762F05C0662371F096E8862F70E060E0D4
:1035E0002AF09A95660F771F881FDAF7880F96954D
:1035F000879597F9089557FD9058440F551F59F036
:103600005F3F71F04795880F97FB991F61F09F3FCF
:1036100079F087950895121613061406551FF2CFF8
:103620004695F1DF08C0161617061806991FF1CF48
:1036300086957105610508940895E894BB2766276F
:103640007727CB0197F908950E94361B0C94B01B85
:103650000E94A21B38F00E94A91B20F0952311F0B4
:103660000C94991B0C949F1B0C941E1B0E94FB1A1C
:1036700078F39923C9F35523B9F3950F50E0551FFB
:10368000AA27EE27FF27BB2700240894679520F47C
:10369000E20FF31FB41F0A1E220F331F441FAA1F7D
:1036A0006695A9F7779530F4F30FB41F0A1E121E22
:1036B00008F46395330F441FAA1F221F769599F7CC
:1036C000879520F4B40F0A1E121E631F440FAA1F11
:1036D000221F331F8695A9F7862F712D602D112487
:1036E0009F5750409AF0F1F088234AF0EE0FFF1FE9
:1036F000BB1F661F771F881F91505040A9F79E3F40
:10370000510580F00C94991B0C941E1B5F3FE4F351
:10371000983ED4F3869577956795B795F795E79595
:103720009F5FC1F7FE2B880F911D9695879597F99E
:10373000089597F99F6780E870E060E008959FEF33
:1037400080EC089500240A94161617061806090638
:10375000089500240A941216130614060506089507
:10376000092E0394000C11F4882352F0BB0F40F48F
:10377000BF2B11F460FF04C06F5F7F4F8F4F9F4FCF
:1037800008950024552704C0080E591F880F991F5B
:10379000009729F076956795B8F37105B9F7802DF4
:1037A000952F089597FB072E16F4009407D077FD08
:1037B00009D00E94EC1B07FC05D03EF49095819542
:1037C0009F4F0895709561957F4F0895EE0FFF1FED
:1037D0000590F491E02D0994AA1BBB1B51E107C091
:1037E000AA1FBB1FA617B70710F0A61BB70B881F91
:1037F000991F5A95A9F780959095BC01CD01089520
:04380000F894FFCF6A
:10380400051F03AD038A035603220301B6012808EA
:10381400140A321E404D362F03E202AC02580271E4
:0E382400028A020102030405060708090000DB
:00000001FF
